{
  "contractName": "KnightAdventure",
  "abi": [
    {
      "constant": true,
      "inputs": [
        {
          "name": "_index",
          "type": "uint256"
        }
      ],
      "name": "getTicketDetails",
      "outputs": [
        {
          "name": "",
          "type": "uint256"
        },
        {
          "name": "",
          "type": "uint256"
        },
        {
          "name": "",
          "type": "string"
        }
      ],
      "payable": false,
      "stateMutability": "view",
      "type": "function"
    },
    {
      "constant": true,
      "inputs": [
        {
          "name": "_index",
          "type": "uint256"
        }
      ],
      "name": "getKnightDetails",
      "outputs": [
        {
          "name": "",
          "type": "string"
        },
        {
          "name": "",
          "type": "uint256"
        },
        {
          "name": "",
          "type": "uint256"
        },
        {
          "name": "",
          "type": "uint256"
        },
        {
          "name": "",
          "type": "string"
        }
      ],
      "payable": false,
      "stateMutability": "view",
      "type": "function"
    },
    {
      "constant": true,
      "inputs": [],
      "name": "knightsLength",
      "outputs": [
        {
          "name": "",
          "type": "uint256"
        }
      ],
      "payable": false,
      "stateMutability": "view",
      "type": "function"
    },
    {
      "constant": true,
      "inputs": [
        {
          "name": "_owner",
          "type": "address"
        }
      ],
      "name": "getTicketsByOwner",
      "outputs": [
        {
          "name": "",
          "type": "uint256[]"
        }
      ],
      "payable": false,
      "stateMutability": "view",
      "type": "function"
    },
    {
      "constant": true,
      "inputs": [
        {
          "name": "",
          "type": "uint256"
        }
      ],
      "name": "ticketIndexToOwner",
      "outputs": [
        {
          "name": "",
          "type": "address"
        }
      ],
      "payable": false,
      "stateMutability": "view",
      "type": "function"
    },
    {
      "constant": false,
      "inputs": [
        {
          "name": "_knightId",
          "type": "uint256"
        },
        {
          "name": "_newTitle",
          "type": "string"
        }
      ],
      "name": "changeTitle",
      "outputs": [],
      "payable": false,
      "stateMutability": "nonpayable",
      "type": "function"
    },
    {
      "constant": true,
      "inputs": [],
      "name": "owner",
      "outputs": [
        {
          "name": "",
          "type": "address"
        }
      ],
      "payable": false,
      "stateMutability": "view",
      "type": "function"
    },
    {
      "constant": true,
      "inputs": [
        {
          "name": "_owner",
          "type": "address"
        }
      ],
      "name": "getKnightsByOwner",
      "outputs": [
        {
          "name": "",
          "type": "uint256[]"
        }
      ],
      "payable": false,
      "stateMutability": "view",
      "type": "function"
    },
    {
      "constant": false,
      "inputs": [
        {
          "name": "_ticketId",
          "type": "uint256"
        }
      ],
      "name": "refreshTicketUseLimit",
      "outputs": [],
      "payable": true,
      "stateMutability": "payable",
      "type": "function"
    },
    {
      "constant": false,
      "inputs": [
        {
          "name": "_knightId",
          "type": "uint256"
        },
        {
          "name": "_newName",
          "type": "string"
        }
      ],
      "name": "changeName",
      "outputs": [],
      "payable": false,
      "stateMutability": "nonpayable",
      "type": "function"
    },
    {
      "constant": false,
      "inputs": [
        {
          "name": "_name",
          "type": "string"
        },
        {
          "name": "_level",
          "type": "uint8"
        }
      ],
      "name": "_createKnight",
      "outputs": [],
      "payable": false,
      "stateMutability": "nonpayable",
      "type": "function"
    },
    {
      "constant": true,
      "inputs": [
        {
          "name": "",
          "type": "uint256"
        }
      ],
      "name": "knightIndexToOwner",
      "outputs": [
        {
          "name": "",
          "type": "address"
        }
      ],
      "payable": false,
      "stateMutability": "view",
      "type": "function"
    },
    {
      "constant": false,
      "inputs": [
        {
          "name": "newOwner",
          "type": "address"
        }
      ],
      "name": "transferOwnership",
      "outputs": [],
      "payable": false,
      "stateMutability": "nonpayable",
      "type": "function"
    },
    {
      "anonymous": false,
      "inputs": [
        {
          "indexed": true,
          "name": "knightId",
          "type": "uint256"
        }
      ],
      "name": "KnightLeveledUp",
      "type": "event"
    },
    {
      "anonymous": false,
      "inputs": [
        {
          "indexed": true,
          "name": "ticketId",
          "type": "uint256"
        }
      ],
      "name": "NewTicket",
      "type": "event"
    },
    {
      "anonymous": false,
      "inputs": [
        {
          "indexed": true,
          "name": "knightId",
          "type": "uint256"
        },
        {
          "indexed": true,
          "name": "name",
          "type": "string"
        }
      ],
      "name": "NewKnight",
      "type": "event"
    },
    {
      "anonymous": false,
      "inputs": [
        {
          "indexed": true,
          "name": "previousOwner",
          "type": "address"
        },
        {
          "indexed": true,
          "name": "newOwner",
          "type": "address"
        }
      ],
      "name": "OwnershipTransferred",
      "type": "event"
    },
    {
      "constant": false,
      "inputs": [
        {
          "name": "_knightId",
          "type": "uint256"
        },
        {
          "name": "_ticketId",
          "type": "uint256"
        }
      ],
      "name": "enterDungeon",
      "outputs": [],
      "payable": false,
      "stateMutability": "nonpayable",
      "type": "function"
    }
  ],
  "bytecode": "0x60806040526032600460006101000a81548163ffffffff021916908363ffffffff16021790555060fa60085560016009556032600a55336000806101000a81548173ffffffffffffffffffffffffffffffffffffffff021916908373ffffffffffffffffffffffffffffffffffffffff160217905550620000c66040805190810160405280600781526020017f47656e657369730000000000000000000000000000000000000000000000000081525060fa620001ae640100000000026401000000009004565b620001176040805190810160405280600681526020017f54657374203100000000000000000000000000000000000000000000000000008152506001620001ae640100000000026401000000009004565b336000806101000a81548173ffffffffffffffffffffffffffffffffffffffff021916908373ffffffffffffffffffffffffffffffffffffffff16021790555062000172600162000510640100000000026401000000009004565b6200018d600262000510640100000000026401000000009004565b620001a8600362000510640100000000026401000000009004565b62000931565b6000620001ba62000802565b6000620001f4600460009054906101000a900463ffffffff168560ff16620007866401000000000262001732179091906401000000009004565b925060e0604051908101604052808681526020018560ff168152602001600063ffffffff1681526020018463ffffffff1681526020016040805190810160405280600a81526020017f416476656e747572657200000000000000000000000000000000000000000000815250815260200142815260200160001515815250915060018083908060018154018082558091505090600182039060005260206000209060050201600090919290919091506000820151816000019080519060200190620002c192919062000851565b5060208201518160010160006101000a81548160ff021916908360ff16021790555060408201518160010160016101000a81548163ffffffff021916908363ffffffff16021790555060608201518160010160056101000a81548163ffffffff021916908363ffffffff16021790555060808201518160020190805190602001906200034f92919062000851565b5060a0820151816003015560c08201518160040160006101000a81548160ff0219169083151502179055505050039050336002600083815260200190815260200160002060006101000a81548173ffffffffffffffffffffffffffffffffffffffff021916908373ffffffffffffffffffffffffffffffffffffffff160217905550620004346001600360003373ffffffffffffffffffffffffffffffffffffffff1673ffffffffffffffffffffffffffffffffffffffff16815260200190815260200160002054620007e3640100000000026200178b179091906401000000009004565b600360003373ffffffffffffffffffffffffffffffffffffffff1673ffffffffffffffffffffffffffffffffffffffff16815260200190815260200160002081905550846040518082805190602001908083835b602083101515620004af578051825260208201915060208101905060208303925062000488565b6001836020036101000a0380198251168184511680821785525050505050509050019150506040518091039020817fdd7528f86d7595165cc235f18bdd47a562f826a3fda4d76bc88df64136bca3b160405160405180910390a35050505050565b6200051a620008d8565b60006080604051908101604052808460ff168152602001600560ff168152602001606060405190810160405280602481526020017f526571756972656420746f20616363657373207468652064756e67656f6e206781526020017f6174652e00000000000000000000000000000000000000000000000000000000815250815260200160001515815250915060016005839080600181540180825580915050906001820390600052602060002090600302016000909192909190915060008201518160000160006101000a81548160ff021916908360ff16021790555060208201518160000160016101000a81548160ff021916908360ff16021790555060408201518160010190805190602001906200063692919062000851565b5060608201518160020160006101000a81548160ff0219169083151502179055505050039050336006600083815260200190815260200160002060006101000a81548173ffffffffffffffffffffffffffffffffffffffff021916908373ffffffffffffffffffffffffffffffffffffffff160217905550620007116001600760003373ffffffffffffffffffffffffffffffffffffffff1673ffffffffffffffffffffffffffffffffffffffff16815260200190815260200160002054620007e3640100000000026200178b179091906401000000009004565b600760003373ffffffffffffffffffffffffffffffffffffffff1673ffffffffffffffffffffffffffffffffffffffff16815260200190815260200160002081905550807f44ff5a1d96b658d6e6d1368850d7b60d71011fd0d12f5ff7a448ee083f7a648e60405160405180910390a2505050565b60008060008463ffffffff161415620007a35760009150620007dc565b82840290508263ffffffff168463ffffffff168263ffffffff16811515620007c757fe5b0463ffffffff16141515620007d857fe5b8091505b5092915050565b6000808284019050838110151515620007f857fe5b8091505092915050565b60e06040519081016040528060608152602001600060ff168152602001600063ffffffff168152602001600063ffffffff16815260200160608152602001600081526020016000151581525090565b828054600181600116156101000203166002900490600052602060002090601f016020900481019282601f106200089457805160ff1916838001178555620008c5565b82800160010185558215620008c5579182015b82811115620008c4578251825591602001919060010190620008a7565b5b509050620008d4919062000909565b5090565b608060405190810160405280600060ff168152602001600060ff168152602001606081526020016000151581525090565b6200092e91905b808211156200092a57600081600090555060010162000910565b5090565b90565b61206980620009416000396000f3006080604052600436106100d0576000357c0100000000000000000000000000000000000000000000000000000000900463ffffffff16806324c14160146100d55780635a38b3f1146101895780636313a988146102b057806367aa23e2146102db57806380310ea5146103735780638ac85869146103e05780638da5cb5b14610425578063936fe6751461047c578063ac001b9214610514578063c39cbef114610534578063c74cf2f114610579578063ce3d644b146105ef578063d24d48fa14610626578063f2fde38b14610693575b600080fd5b3480156100e157600080fd5b50610100600480360381019080803590602001909291905050506106d6565b6040518084815260200183815260200180602001828103825283818151815260200191508051906020019080838360005b8381101561014c578082015181840152602081019050610131565b50505050905090810190601f1680156101795780820380516001836020036101000a031916815260200191505b5094505050505060405180910390f35b34801561019557600080fd5b506101b4600480360381019080803590602001909291905050506107fc565b604051808060200186815260200185815260200184815260200180602001838103835288818151815260200191508051906020019080838360005b8381101561020a5780820151818401526020810190506101ef565b50505050905090810190601f1680156102375780820380516001836020036101000a031916815260200191505b50838103825284818151815260200191508051906020019080838360005b83811015610270578082015181840152602081019050610255565b50505050905090810190601f16801561029d5780820380516001836020036101000a031916815260200191505b5097505050505050505060405180910390f35b3480156102bc57600080fd5b506102c56109f0565b6040518082815260200191505060405180910390f35b3480156102e757600080fd5b5061031c600480360381019080803573ffffffffffffffffffffffffffffffffffffffff1690602001909291905050506109fd565b6040518080602001828103825283818151815260200191508051906020019060200280838360005b8381101561035f578082015181840152602081019050610344565b505050509050019250505060405180910390f35b34801561037f57600080fd5b5061039e60048036038101908080359060200190929190505050610ba4565b604051808273ffffffffffffffffffffffffffffffffffffffff1673ffffffffffffffffffffffffffffffffffffffff16815260200191505060405180910390f35b3480156103ec57600080fd5b5061042360048036038101908080359060200190929190803590602001908201803590602001919091929391929390505050610bd7565b005b34801561043157600080fd5b5061043a610cbf565b604051808273ffffffffffffffffffffffffffffffffffffffff1673ffffffffffffffffffffffffffffffffffffffff16815260200191505060405180910390f35b34801561048857600080fd5b506104bd600480360381019080803573ffffffffffffffffffffffffffffffffffffffff169060200190929190505050610ce4565b6040518080602001828103825283818151815260200191508051906020019060200280838360005b838110156105005780820151818401526020810190506104e5565b505050509050019250505060405180910390f35b61053260048036038101908080359060200190929190505050610e51565b005b34801561054057600080fd5b5061057760048036038101908080359060200190929190803590602001908201803590602001919091929391929390505050610ecc565b005b34801561058557600080fd5b506105ed600480360381019080803590602001908201803590602001908080601f0160208091040260200160405190810160405280939291908181526020018383808284378201915050505050509192919290803560ff169060200190929190505050610fb4565b005b3480156105fb57600080fd5b5061062460048036038101908080359060200190929190803590602001909291905050506112ee565b005b34801561063257600080fd5b50610651600480360381019080803590602001909291905050506115aa565b604051808273ffffffffffffffffffffffffffffffffffffffff1673ffffffffffffffffffffffffffffffffffffffff16815260200191505060405180910390f35b34801561069f57600080fd5b506106d4600480360381019080803573ffffffffffffffffffffffffffffffffffffffff1690602001909291905050506115dd565b005b600080606060008085101515156106ec57600080fd5b600580549050851015156106ff57600080fd5b60058581548110151561070e57fe5b906000526020600020906003020190508060000160009054906101000a900460ff168160000160019054906101000a900460ff16826001018260ff1692508160ff169150808054600181600116156101000203166002900480601f0160208091040260200160405190810160405280929190818152602001828054600181600116156101000203166002900480156107e75780601f106107bc576101008083540402835291602001916107e7565b820191906000526020600020905b8154815290600101906020018083116107ca57829003601f168201915b50505050509050935093509350509193909250565b606060008060006060600080871015151561081657600080fd5b6001805490508710151561082957600080fd5b60018781548110151561083857fe5b90600052602060002090600502019050806000018160010160009054906101000a900460ff168260010160019054906101000a900463ffffffff168360010160059054906101000a900463ffffffff1684600201848054600181600116156101000203166002900480601f0160208091040260200160405190810160405280929190818152602001828054600181600116156101000203166002900480156109215780601f106108f657610100808354040283529160200191610921565b820191906000526020600020905b81548152906001019060200180831161090457829003601f168201915b505050505094508360ff1693508263ffffffff1692508163ffffffff169150808054600181600116156101000203166002900480601f0160208091040260200160405190810160405280929190818152602001828054600181600116156101000203166002900480156109d55780601f106109aa576101008083540402835291602001916109d5565b820191906000526020600020905b8154815290600101906020018083116109b857829003601f168201915b50505050509050955095509550955095505091939590929450565b6000600180549050905090565b606080600080600760008673ffffffffffffffffffffffffffffffffffffffff1673ffffffffffffffffffffffffffffffffffffffff16815260200190815260200160002054604051908082528060200260200182016040528015610a715781602001602082028038833980820191505090505b50925060009150600090505b600580549050811015610b99578473ffffffffffffffffffffffffffffffffffffffff166006600083815260200190815260200160002060009054906101000a900473ffffffffffffffffffffffffffffffffffffffff1673ffffffffffffffffffffffffffffffffffffffff161415610b8c5760001515600582815481101515610b0457fe5b906000526020600020906003020160020160009054906101000a900460ff1615151415610b8b576000600582815481101515610b3c57fe5b906000526020600020906003020160000160019054906101000a900460ff1660ff161115610b8a57808383815181101515610b7357fe5b906020019060200201818152505081806001019250505b5b5b8080600101915050610a7d565b829350505050919050565b60066020528060005260406000206000915054906101000a900473ffffffffffffffffffffffffffffffffffffffff1681565b826002600082815260200190815260200160002060009054906101000a900473ffffffffffffffffffffffffffffffffffffffff1673ffffffffffffffffffffffffffffffffffffffff163373ffffffffffffffffffffffffffffffffffffffff16141515610c4557600080fd5b600a8481600182815481101515610c5857fe5b906000526020600020906005020160010160009054906101000a900460ff1660ff1610151515610c8757600080fd5b8484600188815481101515610c9857fe5b90600052602060002090600502016002019190610cb6929190611e98565b50505050505050565b6000809054906101000a900473ffffffffffffffffffffffffffffffffffffffff1681565b606080600080600360008673ffffffffffffffffffffffffffffffffffffffff1673ffffffffffffffffffffffffffffffffffffffff16815260200190815260200160002054604051908082528060200260200182016040528015610d585781602001602082028038833980820191505090505b50925060009150600090505b600180549050811015610e46578473ffffffffffffffffffffffffffffffffffffffff166002600083815260200190815260200160002060009054906101000a900473ffffffffffffffffffffffffffffffffffffffff1673ffffffffffffffffffffffffffffffffffffffff161415610e395760001515600182815481101515610deb57fe5b906000526020600020906005020160040160009054906101000a900460ff1615151415610e3857808383815181101515610e2157fe5b906020019060200201818152505081806001019250505b5b8080600101915050610d64565b829350505050919050565b6000600582815481101515610e6257fe5b906000526020600020906003020160000160019054906101000a900460ff1660ff16141515610e9057600080fd5b60058082815481101515610ea057fe5b906000526020600020906003020160000160016101000a81548160ff021916908360ff16021790555050565b826002600082815260200190815260200160002060009054906101000a900473ffffffffffffffffffffffffffffffffffffffff1673ffffffffffffffffffffffffffffffffffffffff163373ffffffffffffffffffffffffffffffffffffffff16141515610f3a57600080fd5b60028481600182815481101515610f4d57fe5b906000526020600020906005020160010160009054906101000a900460ff1660ff1610151515610f7c57600080fd5b8484600188815481101515610f8d57fe5b90600052602060002090600502016000019190610fab929190611e98565b50505050505050565b6000610fbe611f18565b6000610fe8600460009054906101000a900463ffffffff168560ff1661173290919063ffffffff16565b925060e0604051908101604052808681526020018560ff168152602001600063ffffffff1681526020018463ffffffff1681526020016040805190810160405280600a81526020017f416476656e7475726572000000000000000000000000000000000000000000008152508152602001428152602001600015158152509150600180839080600181540180825580915050906001820390600052602060002090600502016000909192909190915060008201518160000190805190602001906110b3929190611f67565b5060208201518160010160006101000a81548160ff021916908360ff16021790555060408201518160010160016101000a81548163ffffffff021916908363ffffffff16021790555060608201518160010160056101000a81548163ffffffff021916908363ffffffff160217905550608082015181600201908051906020019061113f929190611f67565b5060a0820151816003015560c08201518160040160006101000a81548160ff0219169083151502179055505050039050336002600083815260200190815260200160002060006101000a81548173ffffffffffffffffffffffffffffffffffffffff021916908373ffffffffffffffffffffffffffffffffffffffff1602179055506112146001600360003373ffffffffffffffffffffffffffffffffffffffff1673ffffffffffffffffffffffffffffffffffffffff1681526020019081526020016000205461178b90919063ffffffff16565b600360003373ffffffffffffffffffffffffffffffffffffffff1673ffffffffffffffffffffffffffffffffffffffff16815260200190815260200160002081905550846040518082805190602001908083835b60208310151561128d5780518252602082019150602081019050602083039250611268565b6001836020036101000a0380198251168184511680821785525050505050509050019150506040518091039020817fdd7528f86d7595165cc235f18bdd47a562f826a3fda4d76bc88df64136bca3b160405160405180910390a35050505050565b600080836002600082815260200190815260200160002060009054906101000a900473ffffffffffffffffffffffffffffffffffffffff1673ffffffffffffffffffffffffffffffffffffffff163373ffffffffffffffffffffffffffffffffffffffff1614151561135f57600080fd5b60018581548110151561136e57fe5b9060005260206000209060050201925060058481548110151561138d57fe5b906000526020600020906003020191506113a6836117a9565b15156113b157600080fd5b60018260000160019054906101000a900460ff1660ff16101515156113d557600080fd5b81600001600181819054906101000a900460ff16809291906001900391906101000a81548160ff021916908360ff1602179055505060008260000160019054906101000a900460ff1660ff1614156114be5761147a6001600760003373ffffffffffffffffffffffffffffffffffffffff1673ffffffffffffffffffffffffffffffffffffffff168152602001908152602001600020546117ba90919063ffffffff16565b600760003373ffffffffffffffffffffffffffffffffffffffff1673ffffffffffffffffffffffffffffffffffffffff168152602001908152602001600020819055505b6008548360010160009054906101000a900460ff1660ff161015611560576114e683836117d3565b5b8260010160059054906101000a900463ffffffff1663ffffffff168360010160019054906101000a900463ffffffff1663ffffffff1610151561155f5761152d8361192b565b847f2e7a68ae79b91a55a87ce42081bdb1b4333d3c3feff3c211ac1f9f32b62541d660405160405180910390a26114e7565b5b61156c60006064611a15565b600b81905550600a54600b5410151561159a576115998260000160009054906101000a900460ff16611b3e565b5b6115a383611bd7565b5050505050565b60026020528060005260406000206000915054906101000a900473ffffffffffffffffffffffffffffffffffffffff1681565b6000809054906101000a900473ffffffffffffffffffffffffffffffffffffffff1673ffffffffffffffffffffffffffffffffffffffff163373ffffffffffffffffffffffffffffffffffffffff1614151561163857600080fd5b600073ffffffffffffffffffffffffffffffffffffffff168173ffffffffffffffffffffffffffffffffffffffff161415151561167457600080fd5b8073ffffffffffffffffffffffffffffffffffffffff166000809054906101000a900473ffffffffffffffffffffffffffffffffffffffff1673ffffffffffffffffffffffffffffffffffffffff167f8be0079c531659141344cd1fd0a4f28419497f9722a3daafe3b4186f6b6457e060405160405180910390a3806000806101000a81548173ffffffffffffffffffffffffffffffffffffffff021916908373ffffffffffffffffffffffffffffffffffffffff16021790555050565b60008060008463ffffffff16141561174d5760009150611784565b82840290508263ffffffff168463ffffffff168263ffffffff1681151561177057fe5b0463ffffffff1614151561178057fe5b8091505b5092915050565b600080828401905083811015151561179f57fe5b8091505092915050565b600042826003015411159050919050565b60008282111515156117c857fe5b818303905092915050565b60018160000160009054906101000a900460ff1660ff1614156118455761181e604b8360010160019054906101000a900463ffffffff1663ffffffff16611be790919063ffffffff16565b8260010160016101000a81548163ffffffff021916908363ffffffff160217905550611927565b60028160000160009054906101000a900460ff1660ff1614156118b75761189060968360010160019054906101000a900463ffffffff1663ffffffff16611be790919063ffffffff16565b8260010160016101000a81548163ffffffff021916908363ffffffff160217905550611926565b60038160000160009054906101000a900460ff1660ff1614156119255761190260e18360010160019054906101000a900463ffffffff1663ffffffff16611be790919063ffffffff16565b8260010160016101000a81548163ffffffff021916908363ffffffff1602179055505b5b5b5050565b80600101600081819054906101000a900460ff168092919060010191906101000a81548160ff021916908360ff160217905550506119a08160010160059054906101000a900463ffffffff168260010160019054906101000a900463ffffffff1663ffffffff16611c1190919063ffffffff16565b8160010160016101000a81548163ffffffff021916908363ffffffff1602179055506119f060328260010160059054906101000a900463ffffffff1663ffffffff16611be790919063ffffffff16565b8160010160056101000a81548163ffffffff021916908363ffffffff16021790555050565b6000806000808242600143034041444360405160200180876000191660001916815260200186815260200185600019166000191681526020018473ffffffffffffffffffffffffffffffffffffffff1673ffffffffffffffffffffffffffffffffffffffff166c0100000000000000000000000002815260140183815260200182815260200196505050505050506040516020818303038152906040526040518082805190602001908083835b602083101515611ae75780518252602082019150602081019050602083039250611ac2565b6001836020036101000a038019825116818451168082178552505050505050905001915050604051809103902092506001868603019150818360019004811515611b2d57fe5b068601905080935050505092915050565b60006032600b5410158015611b5657506050600b5411155b15611ba157600a82029050611ba06040805190810160405280601381526020017f4e6577204b6e696768742041637175697265640000000000000000000000000081525082610fb4565b5b6046600b5410158015611bb757506064600b5411155b15611bd357611bd2611bcd60018460ff16611a15565b611c36565b5b5050565b6009544201816003018190555050565b60008082840190508363ffffffff168163ffffffff1610151515611c0757fe5b8091505092915050565b60008263ffffffff168263ffffffff1611151515611c2b57fe5b818303905092915050565b611c3e611fe7565b60006080604051908101604052808460ff168152602001600560ff168152602001606060405190810160405280602481526020017f526571756972656420746f20616363657373207468652064756e67656f6e206781526020017f6174652e00000000000000000000000000000000000000000000000000000000815250815260200160001515815250915060016005839080600181540180825580915050906001820390600052602060002090600302016000909192909190915060008201518160000160006101000a81548160ff021916908360ff16021790555060208201518160000160016101000a81548160ff021916908360ff1602179055506040820151816001019080519060200190611d58929190611f67565b5060608201518160020160006101000a81548160ff0219169083151502179055505050039050336006600083815260200190815260200160002060006101000a81548173ffffffffffffffffffffffffffffffffffffffff021916908373ffffffffffffffffffffffffffffffffffffffff160217905550611e236001600760003373ffffffffffffffffffffffffffffffffffffffff1673ffffffffffffffffffffffffffffffffffffffff1681526020019081526020016000205461178b90919063ffffffff16565b600760003373ffffffffffffffffffffffffffffffffffffffff1673ffffffffffffffffffffffffffffffffffffffff16815260200190815260200160002081905550807f44ff5a1d96b658d6e6d1368850d7b60d71011fd0d12f5ff7a448ee083f7a648e60405160405180910390a2505050565b828054600181600116156101000203166002900490600052602060002090601f016020900481019282601f10611ed957803560ff1916838001178555611f07565b82800160010185558215611f07579182015b82811115611f06578235825591602001919060010190611eeb565b5b509050611f149190612018565b5090565b60e06040519081016040528060608152602001600060ff168152602001600063ffffffff168152602001600063ffffffff16815260200160608152602001600081526020016000151581525090565b828054600181600116156101000203166002900490600052602060002090601f016020900481019282601f10611fa857805160ff1916838001178555611fd6565b82800160010185558215611fd6579182015b82811115611fd5578251825591602001919060010190611fba565b5b509050611fe39190612018565b5090565b608060405190810160405280600060ff168152602001600060ff168152602001606081526020016000151581525090565b61203a91905b8082111561203657600081600090555060010161201e565b5090565b905600a165627a7a72305820572269dcedcb96960f521900e29fd9e60fcde4a4e32ee608c1a447d94ac083300029",
  "source": "pragma solidity ^0.4.24;\r\n\r\nimport \"./SafeMath.sol\";\r\nimport \"./KnightHelper.sol\";\r\n\r\ncontract KnightAdventure is KnightHelper {\r\n    \r\n    using SafeMath8 for uint8;\r\n    using SafeMath16 for uint16;\r\n    using SafeMath32 for uint32;\r\n    \r\n    uint maxLevel = 250;\r\n    event KnightLeveledUp(uint indexed knightId);\r\n    \r\n    uint dungeonCompleteRuntime = 1 seconds;\r\n    uint lootSuccessProbability = 50;\r\n    uint lootSuccessRate;\r\n    \r\n    function _pseudoRandom(uint _start, uint _end) private view returns (uint) {\r\n        bytes32 randseed = keccak256(abi.encodePacked(randseed, block.timestamp, blockhash(block.number-1), block.coinbase, block.difficulty, block.number));\r\n        uint range = _end - _start + 1;\r\n        uint randVal = _start + uint256(randseed) % range;\r\n        return randVal;\r\n    }\r\n    \r\n    function _isReady(Knight storage _knight) internal view returns (bool) {\r\n        return (_knight.ReadyTime <= now);\r\n    }\r\n\r\n    function _triggerCooldown(Knight storage _knight) internal {\r\n        _knight.ReadyTime = now + dungeonCompleteRuntime;\r\n    }\r\n\r\n    //add exp based on gate number\r\n    function _expReward(Knight storage _knight, Ticket storage _ticket) private {\r\n        if (_ticket.Gate == 1) {\r\n            _knight.CurrentExp = _knight.CurrentExp.add(75);\r\n        }\r\n        else if (_ticket.Gate == 2) {\r\n            _knight.CurrentExp = _knight.CurrentExp.add(150);\r\n        }\r\n        else if (_ticket.Gate == 3) {\r\n            _knight.CurrentExp = _knight.CurrentExp.add(225);\r\n        }\r\n    }\r\n    \r\n    //add 1 level to the knight\r\n    function _levelUp(Knight storage _knight) private {\r\n        _knight.Level++;\r\n        //set CurrentExp by subtracting the CurrentExp by ExpNeededForNextLevel\r\n        _knight.CurrentExp = _knight.CurrentExp.sub(_knight.ExpNeededForNextLevel);\r\n        //add 100exp for next ExpNeededForNextLevel\r\n        _knight.ExpNeededForNextLevel = _knight.ExpNeededForNextLevel.add(50);\r\n    }\r\n    \r\n    function _loot(uint8 _upto) private {\r\n        //lootSuccessRate for knight\r\n        if (lootSuccessRate >= 50 && lootSuccessRate <= 80) {\r\n            uint8 level = _upto * 10;\r\n            _createKnight(\"New Knight Acquired\", level);\r\n        }\r\n        \r\n        //lootSuccessRate for ticket\r\n        if (lootSuccessRate >= 70 && lootSuccessRate <= 100) {\r\n            _createTicket(uint8(_pseudoRandom(1, _upto)));\r\n        }\r\n    }\r\n    \r\n    function enterDungeon(uint _knightId, uint _ticketId) onlyOwnerOf(_knightId) public {\r\n        Knight storage knight = knights[_knightId];\r\n        Ticket storage ticket = tickets[_ticketId];\r\n        \r\n        //require that knight must ready or available\r\n        require(_isReady(knight));\r\n        //require that ticket has still UseLimit\r\n        require(ticket.UseLimit >= 1);\r\n        //reduce the UseLimit of ticket by 1\r\n        ticket.UseLimit--;\r\n\r\n        if (ticket.UseLimit == 0) {\r\n            ownerTicketCount[msg.sender] = ownerTicketCount[msg.sender].sub(1);\r\n        }\r\n\r\n        if (knight.Level < maxLevel) {\r\n            _expReward(knight, ticket);\r\n            //check if knight is ready to level up\r\n            while (knight.CurrentExp >= knight.ExpNeededForNextLevel) {\r\n                _levelUp(knight);\r\n                emit KnightLeveledUp(_knightId);\r\n            }\r\n        }\r\n        \r\n        lootSuccessRate = _pseudoRandom(0, 100);\r\n        if (lootSuccessRate >= lootSuccessProbability) {\r\n            _loot(ticket.Gate);\r\n        }\r\n        \r\n        _triggerCooldown(knight);\r\n    }\r\n}",
  "sourcePath": "C:\\Users\\arj\\Desktop\\Blockchain Project\\Dapp\\KryptoKnight-v2\\KryptoKnight\\contracts\\KnightAdventure.sol",
  "compiler": {
    "name": "solc",
    "version": "0.4.24+commit.e67f0147.Emscripten.clang"
  },
  "schemaVersion": "2.0.1",
  "updatedAt": "2018-09-28T20:45:57.404Z"
}