{
  "contractName": "KnightHelper",
  "abi": [
    {
      "constant": true,
      "inputs": [
        {
          "name": "",
          "type": "uint256"
        }
      ],
      "name": "ticketIndexToOwner",
      "outputs": [
        {
          "name": "",
          "type": "address"
        }
      ],
      "payable": false,
      "stateMutability": "view",
      "type": "function"
    },
    {
      "constant": true,
      "inputs": [
        {
          "name": "",
          "type": "uint256"
        }
      ],
      "name": "knightIndexToOwner",
      "outputs": [
        {
          "name": "",
          "type": "address"
        }
      ],
      "payable": false,
      "stateMutability": "view",
      "type": "function"
    },
    {
      "anonymous": false,
      "inputs": [
        {
          "indexed": true,
          "name": "ticketId",
          "type": "uint256"
        }
      ],
      "name": "NewTicket",
      "type": "event"
    },
    {
      "anonymous": false,
      "inputs": [
        {
          "indexed": true,
          "name": "knightId",
          "type": "uint256"
        },
        {
          "indexed": true,
          "name": "name",
          "type": "string"
        }
      ],
      "name": "NewKnight",
      "type": "event"
    },
    {
      "constant": false,
      "inputs": [
        {
          "name": "_knightId",
          "type": "uint256"
        },
        {
          "name": "_newName",
          "type": "string"
        }
      ],
      "name": "changeName",
      "outputs": [],
      "payable": false,
      "stateMutability": "nonpayable",
      "type": "function"
    },
    {
      "constant": false,
      "inputs": [
        {
          "name": "_knightId",
          "type": "uint256"
        },
        {
          "name": "_newTitle",
          "type": "string"
        }
      ],
      "name": "changeTitle",
      "outputs": [],
      "payable": false,
      "stateMutability": "nonpayable",
      "type": "function"
    },
    {
      "constant": false,
      "inputs": [
        {
          "name": "_ticketId",
          "type": "uint256"
        }
      ],
      "name": "refreshTicketUseLimit",
      "outputs": [],
      "payable": true,
      "stateMutability": "payable",
      "type": "function"
    },
    {
      "constant": true,
      "inputs": [
        {
          "name": "_index",
          "type": "uint256"
        }
      ],
      "name": "getKnightDetails",
      "outputs": [
        {
          "name": "",
          "type": "string"
        },
        {
          "name": "",
          "type": "uint256"
        },
        {
          "name": "",
          "type": "uint256"
        },
        {
          "name": "",
          "type": "uint256"
        },
        {
          "name": "",
          "type": "string"
        }
      ],
      "payable": false,
      "stateMutability": "view",
      "type": "function"
    },
    {
      "constant": true,
      "inputs": [
        {
          "name": "_owner",
          "type": "address"
        }
      ],
      "name": "getKnightsByOwner",
      "outputs": [
        {
          "name": "",
          "type": "uint256[]"
        }
      ],
      "payable": false,
      "stateMutability": "view",
      "type": "function"
    },
    {
      "constant": true,
      "inputs": [
        {
          "name": "_index",
          "type": "uint256"
        }
      ],
      "name": "getTicketDetails",
      "outputs": [
        {
          "name": "",
          "type": "uint256"
        },
        {
          "name": "",
          "type": "uint256"
        },
        {
          "name": "",
          "type": "string"
        }
      ],
      "payable": false,
      "stateMutability": "view",
      "type": "function"
    },
    {
      "constant": true,
      "inputs": [
        {
          "name": "_owner",
          "type": "address"
        }
      ],
      "name": "getTicketsByOwner",
      "outputs": [
        {
          "name": "",
          "type": "uint256[]"
        }
      ],
      "payable": false,
      "stateMutability": "view",
      "type": "function"
    }
  ],
  "bytecode": "0x60806040526032600360006101000a81548163ffffffff021916908363ffffffff160217905550620000776040805190810160405280600781526020017f47656e657369730000000000000000000000000000000000000000000000000081525060fa620000e9640100000000026401000000009004565b620000c86040805190810160405280600981526020017f416e6f74686572203100000000000000000000000000000000000000000000008152506001620000e9640100000000026401000000009004565b620000e3600162000423640100000000026401000000009004565b62000809565b6000620000f5620006ec565b60006200012f600360009054906101000a900463ffffffff168560ff16620006706401000000000262000dbf179091906401000000009004565b925060c0604051908101604052808681526020018560ff168152602001600063ffffffff1681526020018463ffffffff1681526020016040805190810160405280600a81526020017f416476656e74757265720000000000000000000000000000000000000000000081525081526020014281525091506001600083908060018154018082558091505090600182039060005260206000209060040201600090919290919091506000820151816000019080519060200190620001f492919062000732565b5060208201518160010160006101000a81548160ff021916908360ff16021790555060408201518160010160016101000a81548163ffffffff021916908363ffffffff16021790555060608201518160010160056101000a81548163ffffffff021916908363ffffffff16021790555060808201518160020190805190602001906200028292919062000732565b5060a082015181600301555050039050336001600083815260200190815260200160002060006101000a81548173ffffffffffffffffffffffffffffffffffffffff021916908373ffffffffffffffffffffffffffffffffffffffff160217905550620003476001600260003373ffffffffffffffffffffffffffffffffffffffff1673ffffffffffffffffffffffffffffffffffffffff16815260200190815260200160002054620006cd6401000000000262000e18179091906401000000009004565b600260003373ffffffffffffffffffffffffffffffffffffffff1673ffffffffffffffffffffffffffffffffffffffff16815260200190815260200160002081905550846040518082805190602001908083835b602083101515620003c257805182526020820191506020810190506020830392506200039b565b6001836020036101000a0380198251168184511680821785525050505050509050019150506040518091039020817fdd7528f86d7595165cc235f18bdd47a562f826a3fda4d76bc88df64136bca3b160405160405180910390a35050505050565b6200042d620007b9565b60006060604051908101604052808460ff168152602001600560ff168152602001606060405190810160405280602481526020017f526571756972656420746f20616363657373207468652064756e67656f6e206781526020017f6174652e00000000000000000000000000000000000000000000000000000000815250815250915060016004839080600181540180825580915050906001820390600052602060002090600202016000909192909190915060008201518160000160006101000a81548160ff021916908360ff16021790555060208201518160000160016101000a81548160ff021916908360ff16021790555060408201518160010190805190602001906200054092919062000732565b505050039050336005600083815260200190815260200160002060006101000a81548173ffffffffffffffffffffffffffffffffffffffff021916908373ffffffffffffffffffffffffffffffffffffffff160217905550620005fb6001600660003373ffffffffffffffffffffffffffffffffffffffff1673ffffffffffffffffffffffffffffffffffffffff16815260200190815260200160002054620006cd6401000000000262000e18179091906401000000009004565b600660003373ffffffffffffffffffffffffffffffffffffffff1673ffffffffffffffffffffffffffffffffffffffff16815260200190815260200160002081905550807f44ff5a1d96b658d6e6d1368850d7b60d71011fd0d12f5ff7a448ee083f7a648e60405160405180910390a2505050565b60008060008463ffffffff1614156200068d5760009150620006c6565b82840290508263ffffffff168463ffffffff168263ffffffff16811515620006b157fe5b0463ffffffff16141515620006c257fe5b8091505b5092915050565b6000808284019050838110151515620006e257fe5b8091505092915050565b60c06040519081016040528060608152602001600060ff168152602001600063ffffffff168152602001600063ffffffff16815260200160608152602001600081525090565b828054600181600116156101000203166002900490600052602060002090601f016020900481019282601f106200077557805160ff1916838001178555620007a6565b82800160010185558215620007a6579182015b82811115620007a557825182559160200191906001019062000788565b5b509050620007b59190620007e1565b5090565b606060405190810160405280600060ff168152602001600060ff168152602001606081525090565b6200080691905b8082111562000802576000816000905550600101620007e8565b5090565b90565b610e6280620008196000396000f300608060405260043610610099576000357c0100000000000000000000000000000000000000000000000000000000900463ffffffff16806324c141601461009e5780635a38b3f11461015257806367aa23e21461027957806380310ea5146103115780638ac858691461037e578063936fe675146103c3578063ac001b921461045b578063c39cbef11461047b578063d24d48fa146104c0575b600080fd5b3480156100aa57600080fd5b506100c96004803603810190808035906020019092919050505061052d565b6040518084815260200183815260200180602001828103825283818151815260200191508051906020019080838360005b838110156101155780820151818401526020810190506100fa565b50505050905090810190601f1680156101425780820380516001836020036101000a031916815260200191505b5094505050505060405180910390f35b34801561015e57600080fd5b5061017d60048036038101908080359060200190929190505050610631565b604051808060200186815260200185815260200184815260200180602001838103835288818151815260200191508051906020019080838360005b838110156101d35780820151818401526020810190506101b8565b50505050905090810190601f1680156102005780820380516001836020036101000a031916815260200191505b50838103825284818151815260200191508051906020019080838360005b8381101561023957808201518184015260208101905061021e565b50505050905090810190601f1680156102665780820380516001836020036101000a031916815260200191505b5097505050505050505060405180910390f35b34801561028557600080fd5b506102ba600480360381019080803573ffffffffffffffffffffffffffffffffffffffff169060200190929190505050610802565b6040518080602001828103825283818151815260200191508051906020019060200280838360005b838110156102fd5780820151818401526020810190506102e2565b505050509050019250505060405180910390f35b34801561031d57600080fd5b5061033c60048036038101908080359060200190929190505050610935565b604051808273ffffffffffffffffffffffffffffffffffffffff1673ffffffffffffffffffffffffffffffffffffffff16815260200191505060405180910390f35b34801561038a57600080fd5b506103c160048036038101908080359060200190929190803590602001908201803590602001919091929391929390505050610968565b005b3480156103cf57600080fd5b50610404600480360381019080803573ffffffffffffffffffffffffffffffffffffffff169060200190929190505050610a50565b6040518080602001828103825283818151815260200191508051906020019060200280838360005b8381101561044757808201518184015260208101905061042c565b505050509050019250505060405180910390f35b61047960048036038101908080359060200190929190505050610b83565b005b34801561048757600080fd5b506104be60048036038101908080359060200190929190803590602001908201803590602001919091929391929390505050610bff565b005b3480156104cc57600080fd5b506104eb60048036038101908080359060200190929190505050610ce7565b604051808273ffffffffffffffffffffffffffffffffffffffff1673ffffffffffffffffffffffffffffffffffffffff16815260200191505060405180910390f35b6000806060600060048581548110151561054357fe5b906000526020600020906002020190508060000160009054906101000a900460ff168160000160019054906101000a900460ff16826001018260ff1692508160ff169150808054600181600116156101000203166002900480601f01602080910402602001604051908101604052809291908181526020018280546001816001161561010002031660029004801561061c5780601f106105f15761010080835404028352916020019161061c565b820191906000526020600020905b8154815290600101906020018083116105ff57829003601f168201915b50505050509050935093509350509193909250565b6060600080600060606000808781548110151561064a57fe5b90600052602060002090600402019050806000018160010160009054906101000a900460ff168260010160019054906101000a900463ffffffff168360010160059054906101000a900463ffffffff1684600201848054600181600116156101000203166002900480601f0160208091040260200160405190810160405280929190818152602001828054600181600116156101000203166002900480156107335780601f1061070857610100808354040283529160200191610733565b820191906000526020600020905b81548152906001019060200180831161071657829003601f168201915b505050505094508360ff1693508263ffffffff1692508163ffffffff169150808054600181600116156101000203166002900480601f0160208091040260200160405190810160405280929190818152602001828054600181600116156101000203166002900480156107e75780601f106107bc576101008083540402835291602001916107e7565b820191906000526020600020905b8154815290600101906020018083116107ca57829003601f168201915b50505050509050955095509550955095505091939590929450565b606080600080600660008673ffffffffffffffffffffffffffffffffffffffff1673ffffffffffffffffffffffffffffffffffffffff168152602001908152602001600020546040519080825280602002602001820160405280156108765781602001602082028038833980820191505090505b50925060009150600190505b60048054905081101561092a578473ffffffffffffffffffffffffffffffffffffffff166005600083815260200190815260200160002060009054906101000a900473ffffffffffffffffffffffffffffffffffffffff1673ffffffffffffffffffffffffffffffffffffffff16141561091d576001838381518110151561090657fe5b906020019060200201818152505081806001019250505b8080600101915050610882565b829350505050919050565b60056020528060005260406000206000915054906101000a900473ffffffffffffffffffffffffffffffffffffffff1681565b826001600082815260200190815260200160002060009054906101000a900473ffffffffffffffffffffffffffffffffffffffff1673ffffffffffffffffffffffffffffffffffffffff163373ffffffffffffffffffffffffffffffffffffffff161415156109d657600080fd5b600a84816000828154811015156109e957fe5b906000526020600020906004020160010160009054906101000a900460ff1660ff1610151515610a1857600080fd5b8484600088815481101515610a2957fe5b90600052602060002090600402016002019190610a47929190610d1a565b50505050505050565b606080600080600260008673ffffffffffffffffffffffffffffffffffffffff1673ffffffffffffffffffffffffffffffffffffffff16815260200190815260200160002054604051908082528060200260200182016040528015610ac45781602001602082028038833980820191505090505b50925060009150600190505b600080549050811015610b78578473ffffffffffffffffffffffffffffffffffffffff166001600083815260200190815260200160002060009054906101000a900473ffffffffffffffffffffffffffffffffffffffff1673ffffffffffffffffffffffffffffffffffffffff161415610b6b5760018383815181101515610b5457fe5b906020019060200201818152505081806001019250505b8080600101915050610ad0565b829350505050919050565b6000600482815481101515610b9457fe5b906000526020600020906002020160000160019054906101000a900460ff1660ff16141515610bc257600080fd5b6005600482815481101515610bd357fe5b906000526020600020906002020160000160016101000a81548160ff021916908360ff16021790555050565b826001600082815260200190815260200160002060009054906101000a900473ffffffffffffffffffffffffffffffffffffffff1673ffffffffffffffffffffffffffffffffffffffff163373ffffffffffffffffffffffffffffffffffffffff16141515610c6d57600080fd5b60028481600082815481101515610c8057fe5b906000526020600020906004020160010160009054906101000a900460ff1660ff1610151515610caf57600080fd5b8484600088815481101515610cc057fe5b90600052602060002090600402016000019190610cde929190610d1a565b50505050505050565b60016020528060005260406000206000915054906101000a900473ffffffffffffffffffffffffffffffffffffffff1681565b828054600181600116156101000203166002900490600052602060002090601f016020900481019282601f10610d5b57803560ff1916838001178555610d89565b82800160010185558215610d89579182015b82811115610d88578235825591602001919060010190610d6d565b5b509050610d969190610d9a565b5090565b610dbc91905b80821115610db8576000816000905550600101610da0565b5090565b90565b60008060008463ffffffff161415610dda5760009150610e11565b82840290508263ffffffff168463ffffffff168263ffffffff16811515610dfd57fe5b0463ffffffff16141515610e0d57fe5b8091505b5092915050565b6000808284019050838110151515610e2c57fe5b80915050929150505600a165627a7a72305820b3ff2a60018ee09ff7ed7a42421190e0eccbd9f54c8ec227db83057ea86ebb740029",
  "source": "pragma solidity ^0.4.24;\r\n\r\nimport \"./KnightCastle.sol\";\r\nimport \"./KnightTicket.sol\";\r\n\r\ncontract KnightHelper is KnightCastle, KnightTicket {\r\n    \r\n    //event KnightNameChange(uint indexed knightId, string indexed newName);\r\n    //event KnightTitleChange(uint indexed knightId, string indexed newTitle);\r\n    //event TicketRefresh(uint _ticketId);\r\n\r\n    modifier aboveLevel(uint _level, uint _knightId) {\r\n        require(knights[_knightId].Level >= _level);\r\n        _;\r\n    }\r\n    \r\n    modifier onlyOwnerOf(uint _knightId) {\r\n        require(msg.sender == knightIndexToOwner[_knightId]);\r\n        _;\r\n    }\r\n    \r\n    //knight level 2 or above can change Name\r\n    function changeName(uint _knightId, string _newName) external onlyOwnerOf(_knightId) aboveLevel(2, _knightId)  {\r\n        knights[_knightId].Name = _newName;\r\n        //emit KnightNameChange(_knightId, _newName);\r\n    }\r\n    \r\n    //knight level 10 or above can change Title\r\n    function changeTitle(uint _knightId, string _newTitle) external onlyOwnerOf(_knightId) aboveLevel(10, _knightId) {\r\n        knights[_knightId].Title = _newTitle;\r\n        //emit KnightTitleChange(_knightId, _newTitle);\r\n    }\r\n    \r\n    function refreshTicketUseLimit(uint _ticketId) external payable {\r\n        require(tickets[_ticketId].UseLimit == 0);\r\n        tickets[_ticketId].UseLimit = 5;\r\n        //emit TicketRefresh(_ticketId);\r\n    }\r\n    \r\n    function getKnightDetails(uint _index) external view returns(string, uint, uint, uint, string) {\r\n        Knight storage knight = knights[_index];\r\n        return (knight.Name, knight.Level, knight.CurrentExp, knight.ExpNeededForNextLevel, knight.Title);\r\n    }\r\n\r\n    //return array of uint of knightIndexToOwner\r\n    function getKnightsByOwner(address _owner) external view returns(uint[]) {\r\n        uint[] memory result = new uint[](ownerKnightCount[_owner]);\r\n        uint counter = 0;\r\n        for (uint i = 1; i < knights.length; i++) {\r\n            if (knightIndexToOwner[i] == _owner) {\r\n                result[counter] = 1;\r\n                counter++;\r\n            }\r\n        }\r\n        return result;\r\n    }\r\n\r\n    function getTicketDetails(uint _index) external view returns(uint, uint, string) {\r\n        Ticket storage ticket = tickets[_index];\r\n        return (ticket.Gate, ticket.UseLimit, ticket.Description);\r\n    }\r\n\r\n    //return array of uint of ticketIndexToOwner\r\n    function getTicketsByOwner(address _owner) external view returns(uint[]) {\r\n        uint[] memory result = new uint[](ownerTicketCount[_owner]);\r\n        uint counter = 0;\r\n        for (uint i = 1; i < tickets.length; i++) {\r\n            if (ticketIndexToOwner[i] == _owner) {\r\n                result[counter] = 1;\r\n                counter++;\r\n            }\r\n        }\r\n        return result;\r\n    }\r\n}",
  "sourcePath": "C:\\Users\\arj\\Desktop\\Blockchain Project\\Dapp\\KryptoKnight\\contracts\\KnightHelper.sol",
  "compiler": {
    "name": "solc",
    "version": "0.4.24+commit.e67f0147.Emscripten.clang"
  },
  "schemaVersion": "2.0.1",
  "updatedAt": "2018-09-24T20:04:16.734Z"
}