{
  "contractName": "KnightHelper",
  "abi": [
    {
      "constant": true,
      "inputs": [],
      "name": "knightsLength",
      "outputs": [
        {
          "name": "",
          "type": "uint256"
        }
      ],
      "payable": false,
      "stateMutability": "view",
      "type": "function"
    },
    {
      "constant": true,
      "inputs": [
        {
          "name": "",
          "type": "uint256"
        }
      ],
      "name": "ticketIndexToOwner",
      "outputs": [
        {
          "name": "",
          "type": "address"
        }
      ],
      "payable": false,
      "stateMutability": "view",
      "type": "function"
    },
    {
      "constant": true,
      "inputs": [],
      "name": "owner",
      "outputs": [
        {
          "name": "",
          "type": "address"
        }
      ],
      "payable": false,
      "stateMutability": "view",
      "type": "function"
    },
    {
      "constant": false,
      "inputs": [
        {
          "name": "_name",
          "type": "string"
        },
        {
          "name": "_level",
          "type": "uint8"
        }
      ],
      "name": "_createKnight",
      "outputs": [],
      "payable": false,
      "stateMutability": "nonpayable",
      "type": "function"
    },
    {
      "constant": true,
      "inputs": [
        {
          "name": "",
          "type": "uint256"
        }
      ],
      "name": "knightIndexToOwner",
      "outputs": [
        {
          "name": "",
          "type": "address"
        }
      ],
      "payable": false,
      "stateMutability": "view",
      "type": "function"
    },
    {
      "constant": false,
      "inputs": [
        {
          "name": "newOwner",
          "type": "address"
        }
      ],
      "name": "transferOwnership",
      "outputs": [],
      "payable": false,
      "stateMutability": "nonpayable",
      "type": "function"
    },
    {
      "anonymous": false,
      "inputs": [
        {
          "indexed": true,
          "name": "ticketId",
          "type": "uint256"
        }
      ],
      "name": "NewTicket",
      "type": "event"
    },
    {
      "anonymous": false,
      "inputs": [
        {
          "indexed": true,
          "name": "knightId",
          "type": "uint256"
        },
        {
          "indexed": true,
          "name": "name",
          "type": "string"
        }
      ],
      "name": "NewKnight",
      "type": "event"
    },
    {
      "anonymous": false,
      "inputs": [
        {
          "indexed": true,
          "name": "previousOwner",
          "type": "address"
        },
        {
          "indexed": true,
          "name": "newOwner",
          "type": "address"
        }
      ],
      "name": "OwnershipTransferred",
      "type": "event"
    },
    {
      "constant": false,
      "inputs": [
        {
          "name": "_knightId",
          "type": "uint256"
        },
        {
          "name": "_newName",
          "type": "string"
        }
      ],
      "name": "changeName",
      "outputs": [],
      "payable": false,
      "stateMutability": "nonpayable",
      "type": "function"
    },
    {
      "constant": false,
      "inputs": [
        {
          "name": "_knightId",
          "type": "uint256"
        },
        {
          "name": "_newTitle",
          "type": "string"
        }
      ],
      "name": "changeTitle",
      "outputs": [],
      "payable": false,
      "stateMutability": "nonpayable",
      "type": "function"
    },
    {
      "constant": false,
      "inputs": [
        {
          "name": "_ticketId",
          "type": "uint256"
        }
      ],
      "name": "refreshTicketUseLimit",
      "outputs": [],
      "payable": true,
      "stateMutability": "payable",
      "type": "function"
    },
    {
      "constant": true,
      "inputs": [
        {
          "name": "_index",
          "type": "uint256"
        }
      ],
      "name": "getKnightDetails",
      "outputs": [
        {
          "name": "",
          "type": "string"
        },
        {
          "name": "",
          "type": "uint256"
        },
        {
          "name": "",
          "type": "uint256"
        },
        {
          "name": "",
          "type": "uint256"
        },
        {
          "name": "",
          "type": "string"
        }
      ],
      "payable": false,
      "stateMutability": "view",
      "type": "function"
    },
    {
      "constant": true,
      "inputs": [
        {
          "name": "_owner",
          "type": "address"
        }
      ],
      "name": "getKnightsByOwner",
      "outputs": [
        {
          "name": "",
          "type": "uint256[]"
        }
      ],
      "payable": false,
      "stateMutability": "view",
      "type": "function"
    },
    {
      "constant": true,
      "inputs": [
        {
          "name": "_index",
          "type": "uint256"
        }
      ],
      "name": "getTicketDetails",
      "outputs": [
        {
          "name": "",
          "type": "uint256"
        },
        {
          "name": "",
          "type": "uint256"
        },
        {
          "name": "",
          "type": "string"
        }
      ],
      "payable": false,
      "stateMutability": "view",
      "type": "function"
    },
    {
      "constant": true,
      "inputs": [
        {
          "name": "_owner",
          "type": "address"
        }
      ],
      "name": "getTicketsByOwner",
      "outputs": [
        {
          "name": "",
          "type": "uint256[]"
        }
      ],
      "payable": false,
      "stateMutability": "view",
      "type": "function"
    }
  ],
  "bytecode": "0x60806040526032600460006101000a81548163ffffffff021916908363ffffffff160217905550336000806101000a81548173ffffffffffffffffffffffffffffffffffffffff021916908373ffffffffffffffffffffffffffffffffffffffff160217905550620000b76040805190810160405280600781526020017f47656e657369730000000000000000000000000000000000000000000000000081525060fa6200019f640100000000026401000000009004565b620001086040805190810160405280600681526020017f546573742031000000000000000000000000000000000000000000000000000081525060016200019f640100000000026401000000009004565b336000806101000a81548173ffffffffffffffffffffffffffffffffffffffff021916908373ffffffffffffffffffffffffffffffffffffffff16021790555062000163600162000501640100000000026401000000009004565b6200017e600262000501640100000000026401000000009004565b62000199600362000501640100000000026401000000009004565b62000922565b6000620001ab620007f3565b6000620001e5600460009054906101000a900463ffffffff168560ff16620007776401000000000262001434179091906401000000009004565b925060e0604051908101604052808681526020018560ff168152602001600063ffffffff1681526020018463ffffffff1681526020016040805190810160405280600a81526020017f416476656e747572657200000000000000000000000000000000000000000000815250815260200142815260200160001515815250915060018083908060018154018082558091505090600182039060005260206000209060050201600090919290919091506000820151816000019080519060200190620002b292919062000842565b5060208201518160010160006101000a81548160ff021916908360ff16021790555060408201518160010160016101000a81548163ffffffff021916908363ffffffff16021790555060608201518160010160056101000a81548163ffffffff021916908363ffffffff16021790555060808201518160020190805190602001906200034092919062000842565b5060a0820151816003015560c08201518160040160006101000a81548160ff0219169083151502179055505050039050336002600083815260200190815260200160002060006101000a81548173ffffffffffffffffffffffffffffffffffffffff021916908373ffffffffffffffffffffffffffffffffffffffff160217905550620004256001600360003373ffffffffffffffffffffffffffffffffffffffff1673ffffffffffffffffffffffffffffffffffffffff16815260200190815260200160002054620007d4640100000000026200148d179091906401000000009004565b600360003373ffffffffffffffffffffffffffffffffffffffff1673ffffffffffffffffffffffffffffffffffffffff16815260200190815260200160002081905550846040518082805190602001908083835b602083101515620004a0578051825260208201915060208101905060208303925062000479565b6001836020036101000a0380198251168184511680821785525050505050509050019150506040518091039020817fdd7528f86d7595165cc235f18bdd47a562f826a3fda4d76bc88df64136bca3b160405160405180910390a35050505050565b6200050b620008c9565b60006080604051908101604052808460ff168152602001600560ff168152602001606060405190810160405280602481526020017f526571756972656420746f20616363657373207468652064756e67656f6e206781526020017f6174652e00000000000000000000000000000000000000000000000000000000815250815260200160001515815250915060016005839080600181540180825580915050906001820390600052602060002090600302016000909192909190915060008201518160000160006101000a81548160ff021916908360ff16021790555060208201518160000160016101000a81548160ff021916908360ff16021790555060408201518160010190805190602001906200062792919062000842565b5060608201518160020160006101000a81548160ff0219169083151502179055505050039050336006600083815260200190815260200160002060006101000a81548173ffffffffffffffffffffffffffffffffffffffff021916908373ffffffffffffffffffffffffffffffffffffffff160217905550620007026001600760003373ffffffffffffffffffffffffffffffffffffffff1673ffffffffffffffffffffffffffffffffffffffff16815260200190815260200160002054620007d4640100000000026200148d179091906401000000009004565b600760003373ffffffffffffffffffffffffffffffffffffffff1673ffffffffffffffffffffffffffffffffffffffff16815260200190815260200160002081905550807f44ff5a1d96b658d6e6d1368850d7b60d71011fd0d12f5ff7a448ee083f7a648e60405160405180910390a2505050565b60008060008463ffffffff161415620007945760009150620007cd565b82840290508263ffffffff168463ffffffff168263ffffffff16811515620007b857fe5b0463ffffffff16141515620007c957fe5b8091505b5092915050565b6000808284019050838110151515620007e957fe5b8091505092915050565b60e06040519081016040528060608152602001600060ff168152602001600063ffffffff168152602001600063ffffffff16815260200160608152602001600081526020016000151581525090565b828054600181600116156101000203166002900490600052602060002090601f016020900481019282601f106200088557805160ff1916838001178555620008b6565b82800160010185558215620008b6579182015b82811115620008b557825182559160200191906001019062000898565b5b509050620008c59190620008fa565b5090565b608060405190810160405280600060ff168152602001600060ff168152602001606081526020016000151581525090565b6200091f91905b808211156200091b57600081600090555060010162000901565b5090565b90565b61164b80620009326000396000f3006080604052600436106100c5576000357c0100000000000000000000000000000000000000000000000000000000900463ffffffff16806324c14160146100ca5780635a38b3f11461017e5780636313a988146102a557806367aa23e2146102d057806380310ea5146103685780638ac85869146103d55780638da5cb5b1461041a578063936fe67514610471578063ac001b9214610509578063c39cbef114610529578063c74cf2f11461056e578063d24d48fa146105e4578063f2fde38b14610651575b600080fd5b3480156100d657600080fd5b506100f560048036038101908080359060200190929190505050610694565b6040518084815260200183815260200180602001828103825283818151815260200191508051906020019080838360005b83811015610141578082015181840152602081019050610126565b50505050905090810190601f16801561016e5780820380516001836020036101000a031916815260200191505b5094505050505060405180910390f35b34801561018a57600080fd5b506101a9600480360381019080803590602001909291905050506107ba565b604051808060200186815260200185815260200184815260200180602001838103835288818151815260200191508051906020019080838360005b838110156101ff5780820151818401526020810190506101e4565b50505050905090810190601f16801561022c5780820380516001836020036101000a031916815260200191505b50838103825284818151815260200191508051906020019080838360005b8381101561026557808201518184015260208101905061024a565b50505050905090810190601f1680156102925780820380516001836020036101000a031916815260200191505b5097505050505050505060405180910390f35b3480156102b157600080fd5b506102ba6109ae565b6040518082815260200191505060405180910390f35b3480156102dc57600080fd5b50610311600480360381019080803573ffffffffffffffffffffffffffffffffffffffff1690602001909291905050506109bb565b6040518080602001828103825283818151815260200191508051906020019060200280838360005b83811015610354578082015181840152602081019050610339565b505050509050019250505060405180910390f35b34801561037457600080fd5b5061039360048036038101908080359060200190929190505050610b62565b604051808273ffffffffffffffffffffffffffffffffffffffff1673ffffffffffffffffffffffffffffffffffffffff16815260200191505060405180910390f35b3480156103e157600080fd5b5061041860048036038101908080359060200190929190803590602001908201803590602001919091929391929390505050610b95565b005b34801561042657600080fd5b5061042f610c7d565b604051808273ffffffffffffffffffffffffffffffffffffffff1673ffffffffffffffffffffffffffffffffffffffff16815260200191505060405180910390f35b34801561047d57600080fd5b506104b2600480360381019080803573ffffffffffffffffffffffffffffffffffffffff169060200190929190505050610ca2565b6040518080602001828103825283818151815260200191508051906020019060200280838360005b838110156104f55780820151818401526020810190506104da565b505050509050019250505060405180910390f35b61052760048036038101908080359060200190929190505050610e0f565b005b34801561053557600080fd5b5061056c60048036038101908080359060200190929190803590602001908201803590602001919091929391929390505050610e8a565b005b34801561057a57600080fd5b506105e2600480360381019080803590602001908201803590602001908080601f0160208091040260200160405190810160405280939291908181526020018383808284378201915050505050509192919290803560ff169060200190929190505050610f72565b005b3480156105f057600080fd5b5061060f600480360381019080803590602001909291905050506112ac565b604051808273ffffffffffffffffffffffffffffffffffffffff1673ffffffffffffffffffffffffffffffffffffffff16815260200191505060405180910390f35b34801561065d57600080fd5b50610692600480360381019080803573ffffffffffffffffffffffffffffffffffffffff1690602001909291905050506112df565b005b600080606060008085101515156106aa57600080fd5b600580549050851015156106bd57600080fd5b6005858154811015156106cc57fe5b906000526020600020906003020190508060000160009054906101000a900460ff168160000160019054906101000a900460ff16826001018260ff1692508160ff169150808054600181600116156101000203166002900480601f0160208091040260200160405190810160405280929190818152602001828054600181600116156101000203166002900480156107a55780601f1061077a576101008083540402835291602001916107a5565b820191906000526020600020905b81548152906001019060200180831161078857829003601f168201915b50505050509050935093509350509193909250565b60606000806000606060008087101515156107d457600080fd5b600180549050871015156107e757600080fd5b6001878154811015156107f657fe5b90600052602060002090600502019050806000018160010160009054906101000a900460ff168260010160019054906101000a900463ffffffff168360010160059054906101000a900463ffffffff1684600201848054600181600116156101000203166002900480601f0160208091040260200160405190810160405280929190818152602001828054600181600116156101000203166002900480156108df5780601f106108b4576101008083540402835291602001916108df565b820191906000526020600020905b8154815290600101906020018083116108c257829003601f168201915b505050505094508360ff1693508263ffffffff1692508163ffffffff169150808054600181600116156101000203166002900480601f0160208091040260200160405190810160405280929190818152602001828054600181600116156101000203166002900480156109935780601f1061096857610100808354040283529160200191610993565b820191906000526020600020905b81548152906001019060200180831161097657829003601f168201915b50505050509050955095509550955095505091939590929450565b6000600180549050905090565b606080600080600760008673ffffffffffffffffffffffffffffffffffffffff1673ffffffffffffffffffffffffffffffffffffffff16815260200190815260200160002054604051908082528060200260200182016040528015610a2f5781602001602082028038833980820191505090505b50925060009150600090505b600580549050811015610b57578473ffffffffffffffffffffffffffffffffffffffff166006600083815260200190815260200160002060009054906101000a900473ffffffffffffffffffffffffffffffffffffffff1673ffffffffffffffffffffffffffffffffffffffff161415610b4a5760001515600582815481101515610ac257fe5b906000526020600020906003020160020160009054906101000a900460ff1615151415610b49576000600582815481101515610afa57fe5b906000526020600020906003020160000160019054906101000a900460ff1660ff161115610b4857808383815181101515610b3157fe5b906020019060200201818152505081806001019250505b5b5b8080600101915050610a3b565b829350505050919050565b60066020528060005260406000206000915054906101000a900473ffffffffffffffffffffffffffffffffffffffff1681565b826002600082815260200190815260200160002060009054906101000a900473ffffffffffffffffffffffffffffffffffffffff1673ffffffffffffffffffffffffffffffffffffffff163373ffffffffffffffffffffffffffffffffffffffff16141515610c0357600080fd5b600a8481600182815481101515610c1657fe5b906000526020600020906005020160010160009054906101000a900460ff1660ff1610151515610c4557600080fd5b8484600188815481101515610c5657fe5b90600052602060002090600502016002019190610c749291906114ab565b50505050505050565b6000809054906101000a900473ffffffffffffffffffffffffffffffffffffffff1681565b606080600080600360008673ffffffffffffffffffffffffffffffffffffffff1673ffffffffffffffffffffffffffffffffffffffff16815260200190815260200160002054604051908082528060200260200182016040528015610d165781602001602082028038833980820191505090505b50925060009150600090505b600180549050811015610e04578473ffffffffffffffffffffffffffffffffffffffff166002600083815260200190815260200160002060009054906101000a900473ffffffffffffffffffffffffffffffffffffffff1673ffffffffffffffffffffffffffffffffffffffff161415610df75760001515600182815481101515610da957fe5b906000526020600020906005020160040160009054906101000a900460ff1615151415610df657808383815181101515610ddf57fe5b906020019060200201818152505081806001019250505b5b8080600101915050610d22565b829350505050919050565b6000600582815481101515610e2057fe5b906000526020600020906003020160000160019054906101000a900460ff1660ff16141515610e4e57600080fd5b60058082815481101515610e5e57fe5b906000526020600020906003020160000160016101000a81548160ff021916908360ff16021790555050565b826002600082815260200190815260200160002060009054906101000a900473ffffffffffffffffffffffffffffffffffffffff1673ffffffffffffffffffffffffffffffffffffffff163373ffffffffffffffffffffffffffffffffffffffff16141515610ef857600080fd5b60028481600182815481101515610f0b57fe5b906000526020600020906005020160010160009054906101000a900460ff1660ff1610151515610f3a57600080fd5b8484600188815481101515610f4b57fe5b90600052602060002090600502016000019190610f699291906114ab565b50505050505050565b6000610f7c61152b565b6000610fa6600460009054906101000a900463ffffffff168560ff1661143490919063ffffffff16565b925060e0604051908101604052808681526020018560ff168152602001600063ffffffff1681526020018463ffffffff1681526020016040805190810160405280600a81526020017f416476656e74757265720000000000000000000000000000000000000000000081525081526020014281526020016000151581525091506001808390806001815401808255809150509060018203906000526020600020906005020160009091929091909150600082015181600001908051906020019061107192919061157a565b5060208201518160010160006101000a81548160ff021916908360ff16021790555060408201518160010160016101000a81548163ffffffff021916908363ffffffff16021790555060608201518160010160056101000a81548163ffffffff021916908363ffffffff16021790555060808201518160020190805190602001906110fd92919061157a565b5060a0820151816003015560c08201518160040160006101000a81548160ff0219169083151502179055505050039050336002600083815260200190815260200160002060006101000a81548173ffffffffffffffffffffffffffffffffffffffff021916908373ffffffffffffffffffffffffffffffffffffffff1602179055506111d26001600360003373ffffffffffffffffffffffffffffffffffffffff1673ffffffffffffffffffffffffffffffffffffffff1681526020019081526020016000205461148d90919063ffffffff16565b600360003373ffffffffffffffffffffffffffffffffffffffff1673ffffffffffffffffffffffffffffffffffffffff16815260200190815260200160002081905550846040518082805190602001908083835b60208310151561124b5780518252602082019150602081019050602083039250611226565b6001836020036101000a0380198251168184511680821785525050505050509050019150506040518091039020817fdd7528f86d7595165cc235f18bdd47a562f826a3fda4d76bc88df64136bca3b160405160405180910390a35050505050565b60026020528060005260406000206000915054906101000a900473ffffffffffffffffffffffffffffffffffffffff1681565b6000809054906101000a900473ffffffffffffffffffffffffffffffffffffffff1673ffffffffffffffffffffffffffffffffffffffff163373ffffffffffffffffffffffffffffffffffffffff1614151561133a57600080fd5b600073ffffffffffffffffffffffffffffffffffffffff168173ffffffffffffffffffffffffffffffffffffffff161415151561137657600080fd5b8073ffffffffffffffffffffffffffffffffffffffff166000809054906101000a900473ffffffffffffffffffffffffffffffffffffffff1673ffffffffffffffffffffffffffffffffffffffff167f8be0079c531659141344cd1fd0a4f28419497f9722a3daafe3b4186f6b6457e060405160405180910390a3806000806101000a81548173ffffffffffffffffffffffffffffffffffffffff021916908373ffffffffffffffffffffffffffffffffffffffff16021790555050565b60008060008463ffffffff16141561144f5760009150611486565b82840290508263ffffffff168463ffffffff168263ffffffff1681151561147257fe5b0463ffffffff1614151561148257fe5b8091505b5092915050565b60008082840190508381101515156114a157fe5b8091505092915050565b828054600181600116156101000203166002900490600052602060002090601f016020900481019282601f106114ec57803560ff191683800117855561151a565b8280016001018555821561151a579182015b828111156115195782358255916020019190600101906114fe565b5b50905061152791906115fa565b5090565b60e06040519081016040528060608152602001600060ff168152602001600063ffffffff168152602001600063ffffffff16815260200160608152602001600081526020016000151581525090565b828054600181600116156101000203166002900490600052602060002090601f016020900481019282601f106115bb57805160ff19168380011785556115e9565b828001600101855582156115e9579182015b828111156115e85782518255916020019190600101906115cd565b5b5090506115f691906115fa565b5090565b61161c91905b80821115611618576000816000905550600101611600565b5090565b905600a165627a7a723058204fdfd97c3e00e8f138582f8a663569a449afbec3965ac89f4067e36aa7e877380029",
  "source": "pragma solidity ^0.4.24;\r\n\r\nimport \"./KnightCastle.sol\";\r\nimport \"./KnightTicket.sol\";\r\n\r\ncontract KnightHelper is KnightCastle, KnightTicket {\r\n    \r\n    //event KnightNameChange(uint indexed knightId, string indexed newName);\r\n    //event KnightTitleChange(uint indexed knightId, string indexed newTitle);\r\n    //event TicketRefresh(uint _ticketId);\r\n\r\n    modifier aboveLevel(uint _level, uint _knightId) {\r\n        require(knights[_knightId].Level >= _level);\r\n        _;\r\n    }\r\n    \r\n    modifier onlyOwnerOf(uint _knightId) {\r\n        require(msg.sender == knightIndexToOwner[_knightId]);\r\n        _;\r\n    }\r\n    \r\n    //knight level 2 or above can change Name\r\n    function changeName(uint _knightId, string _newName) external onlyOwnerOf(_knightId) aboveLevel(2, _knightId)  {\r\n        knights[_knightId].Name = _newName;\r\n        //emit KnightNameChange(_knightId, _newName);\r\n    }\r\n    \r\n    //knight level 10 or above can change Title\r\n    function changeTitle(uint _knightId, string _newTitle) external onlyOwnerOf(_knightId) aboveLevel(10, _knightId) {\r\n        knights[_knightId].Title = _newTitle;\r\n        //emit KnightTitleChange(_knightId, _newTitle);\r\n    }\r\n    \r\n    function refreshTicketUseLimit(uint _ticketId) external payable {\r\n        require(tickets[_ticketId].UseLimit == 0);\r\n        tickets[_ticketId].UseLimit = 5;\r\n        //emit TicketRefresh(_ticketId);\r\n    }\r\n    \r\n    function getKnightDetails(uint _index) public view returns(string, uint, uint, uint, string) {\r\n        require(_index >= 0);\r\n        require(_index < knights.length);        \r\n        Knight storage knight = knights[_index];\r\n        return (knight.Name, knight.Level, knight.CurrentExp, knight.ExpNeededForNextLevel, knight.Title);\r\n    }\r\n\r\n    //return array of uint of knightIndexToOwner\r\n    function getKnightsByOwner(address _owner) external view returns(uint[]) {\r\n        uint[] memory result = new uint[](ownerKnightCount[_owner]);\r\n        uint counter = 0;\r\n        for (uint i = 0; i < knights.length; i++) {\r\n            if (knightIndexToOwner[i] == _owner) {\r\n                //knight is not in the market\r\n                if (knights[i].isInMarket == false) {\r\n                    result[counter] = i;\r\n                    counter++;\r\n                }\r\n            }\r\n        }\r\n        return result;\r\n    }\r\n\r\n    function getTicketDetails(uint _index) public view returns(uint, uint, string) {\r\n        require(_index >= 0);\r\n        require(_index < tickets.length);\r\n        Ticket storage ticket = tickets[_index];\r\n        return (ticket.Gate, ticket.UseLimit, ticket.Description);\r\n    }\r\n\r\n    //return array of uint of ticketIndexToOwner\r\n    function getTicketsByOwner(address _owner) external view returns(uint[]) {\r\n        uint[] memory result = new uint[](ownerTicketCount[_owner]);\r\n        uint counter = 0;\r\n        for (uint i = 0; i < tickets.length; i++) {\r\n            if (ticketIndexToOwner[i] == _owner) {\r\n                //ticket is not in the market\r\n                if (tickets[i].isInMarket == false) {\r\n                    if (tickets[i].UseLimit > 0) {\r\n                        result[counter] = i;\r\n                        counter++;\r\n                    }\r\n                }\r\n            }\r\n        }\r\n        return result;\r\n    }\r\n}",
  "sourcePath": "C:\\Users\\arj\\Desktop\\Blockchain Project\\Dapp\\KryptoKnight-v2\\KryptoKnight\\contracts\\KnightHelper.sol",
  "compiler": {
    "name": "solc",
    "version": "0.4.24+commit.e67f0147.Emscripten.clang"
  },
  "schemaVersion": "2.0.1",
  "updatedAt": "2018-09-28T20:45:57.332Z"
}