{
  "contractName": "KnightAdventure",
  "abi": [
    {
      "constant": true,
      "inputs": [
        {
          "name": "_index",
          "type": "uint256"
        }
      ],
      "name": "getTicketDetails",
      "outputs": [
        {
          "name": "",
          "type": "uint256"
        },
        {
          "name": "",
          "type": "uint256"
        },
        {
          "name": "",
          "type": "string"
        }
      ],
      "payable": false,
      "stateMutability": "view",
      "type": "function"
    },
    {
      "constant": true,
      "inputs": [
        {
          "name": "_index",
          "type": "uint256"
        }
      ],
      "name": "getKnightDetails",
      "outputs": [
        {
          "name": "",
          "type": "string"
        },
        {
          "name": "",
          "type": "uint256"
        },
        {
          "name": "",
          "type": "uint256"
        },
        {
          "name": "",
          "type": "uint256"
        },
        {
          "name": "",
          "type": "string"
        }
      ],
      "payable": false,
      "stateMutability": "view",
      "type": "function"
    },
    {
      "constant": true,
      "inputs": [
        {
          "name": "_owner",
          "type": "address"
        }
      ],
      "name": "getTicketsByOwner",
      "outputs": [
        {
          "name": "",
          "type": "uint256[]"
        }
      ],
      "payable": false,
      "stateMutability": "view",
      "type": "function"
    },
    {
      "constant": true,
      "inputs": [
        {
          "name": "",
          "type": "uint256"
        }
      ],
      "name": "ticketIndexToOwner",
      "outputs": [
        {
          "name": "",
          "type": "address"
        }
      ],
      "payable": false,
      "stateMutability": "view",
      "type": "function"
    },
    {
      "constant": false,
      "inputs": [
        {
          "name": "_knightId",
          "type": "uint256"
        },
        {
          "name": "_newTitle",
          "type": "string"
        }
      ],
      "name": "changeTitle",
      "outputs": [],
      "payable": false,
      "stateMutability": "nonpayable",
      "type": "function"
    },
    {
      "constant": true,
      "inputs": [],
      "name": "owner",
      "outputs": [
        {
          "name": "",
          "type": "address"
        }
      ],
      "payable": false,
      "stateMutability": "view",
      "type": "function"
    },
    {
      "constant": true,
      "inputs": [
        {
          "name": "_owner",
          "type": "address"
        }
      ],
      "name": "getKnightsByOwner",
      "outputs": [
        {
          "name": "",
          "type": "uint256[]"
        }
      ],
      "payable": false,
      "stateMutability": "view",
      "type": "function"
    },
    {
      "constant": false,
      "inputs": [
        {
          "name": "_ticketId",
          "type": "uint256"
        }
      ],
      "name": "refreshTicketUseLimit",
      "outputs": [],
      "payable": true,
      "stateMutability": "payable",
      "type": "function"
    },
    {
      "constant": false,
      "inputs": [
        {
          "name": "_knightId",
          "type": "uint256"
        },
        {
          "name": "_newName",
          "type": "string"
        }
      ],
      "name": "changeName",
      "outputs": [],
      "payable": false,
      "stateMutability": "nonpayable",
      "type": "function"
    },
    {
      "constant": true,
      "inputs": [
        {
          "name": "",
          "type": "uint256"
        }
      ],
      "name": "knightIndexToOwner",
      "outputs": [
        {
          "name": "",
          "type": "address"
        }
      ],
      "payable": false,
      "stateMutability": "view",
      "type": "function"
    },
    {
      "constant": false,
      "inputs": [
        {
          "name": "newOwner",
          "type": "address"
        }
      ],
      "name": "transferOwnership",
      "outputs": [],
      "payable": false,
      "stateMutability": "nonpayable",
      "type": "function"
    },
    {
      "anonymous": false,
      "inputs": [
        {
          "indexed": true,
          "name": "knightId",
          "type": "uint256"
        }
      ],
      "name": "KnightLeveledUp",
      "type": "event"
    },
    {
      "anonymous": false,
      "inputs": [
        {
          "indexed": true,
          "name": "ticketId",
          "type": "uint256"
        }
      ],
      "name": "NewTicket",
      "type": "event"
    },
    {
      "anonymous": false,
      "inputs": [
        {
          "indexed": true,
          "name": "knightId",
          "type": "uint256"
        },
        {
          "indexed": true,
          "name": "name",
          "type": "string"
        }
      ],
      "name": "NewKnight",
      "type": "event"
    },
    {
      "anonymous": false,
      "inputs": [
        {
          "indexed": true,
          "name": "previousOwner",
          "type": "address"
        },
        {
          "indexed": true,
          "name": "newOwner",
          "type": "address"
        }
      ],
      "name": "OwnershipTransferred",
      "type": "event"
    },
    {
      "constant": false,
      "inputs": [
        {
          "name": "_knightId",
          "type": "uint256"
        },
        {
          "name": "_ticketId",
          "type": "uint256"
        }
      ],
      "name": "enterDungeon",
      "outputs": [],
      "payable": false,
      "stateMutability": "nonpayable",
      "type": "function"
    }
  ],
  "bytecode": "0x608060405260fa600755601e6008556032600955336000806101000a81548173ffffffffffffffffffffffffffffffffffffffff021916908373ffffffffffffffffffffffffffffffffffffffff160217905550620000a26040805190810160405280600781526020017f47656e657369730000000000000000000000000000000000000000000000000081525062000152640100000000026401000000009004565b620000f16040805190810160405280600981526020017f416e6f746865722031000000000000000000000000000000000000000000000081525062000152640100000000026401000000009004565b336000806101000a81548173ffffffffffffffffffffffffffffffffffffffff021916908373ffffffffffffffffffffffffffffffffffffffff1602179055506200014c60016200044f640100000000026401000000009004565b620007d8565b6200015c620006bb565b600060c060405190810160405280848152602001600160ff168152602001600063ffffffff168152602001603263ffffffff1681526020016040805190810160405280600a81526020017f416476656e7475726572000000000000000000000000000000000000000000008152508152602001428152509150600180839080600181540180825580915050906001820390600052602060002090600402016000909192909190915060008201518160000190805190602001906200022292919062000701565b5060208201518160010160006101000a81548160ff021916908360ff16021790555060408201518160010160016101000a81548163ffffffff021916908363ffffffff16021790555060608201518160010160056101000a81548163ffffffff021916908363ffffffff1602179055506080820151816002019080519060200190620002b092919062000701565b5060a082015181600301555050039050336002600083815260200190815260200160002060006101000a81548173ffffffffffffffffffffffffffffffffffffffff021916908373ffffffffffffffffffffffffffffffffffffffff160217905550620003756001600360003373ffffffffffffffffffffffffffffffffffffffff1673ffffffffffffffffffffffffffffffffffffffff168152602001908152602001600020546200069c6401000000000262001b79179091906401000000009004565b600360003373ffffffffffffffffffffffffffffffffffffffff1673ffffffffffffffffffffffffffffffffffffffff16815260200190815260200160002081905550826040518082805190602001908083835b602083101515620003f05780518252602082019150602081019050602083039250620003c9565b6001836020036101000a0380198251168184511680821785525050505050509050019150506040518091039020817fdd7528f86d7595165cc235f18bdd47a562f826a3fda4d76bc88df64136bca3b160405160405180910390a3505050565b6200045962000788565b60006060604051908101604052808460ff168152602001600560ff168152602001606060405190810160405280602481526020017f526571756972656420746f20616363657373207468652064756e67656f6e206781526020017f6174652e00000000000000000000000000000000000000000000000000000000815250815250915060016004839080600181540180825580915050906001820390600052602060002090600202016000909192909190915060008201518160000160006101000a81548160ff021916908360ff16021790555060208201518160000160016101000a81548160ff021916908360ff16021790555060408201518160010190805190602001906200056c92919062000701565b505050039050336005600083815260200190815260200160002060006101000a81548173ffffffffffffffffffffffffffffffffffffffff021916908373ffffffffffffffffffffffffffffffffffffffff160217905550620006276001600660003373ffffffffffffffffffffffffffffffffffffffff1673ffffffffffffffffffffffffffffffffffffffff168152602001908152602001600020546200069c6401000000000262001b79179091906401000000009004565b600660003373ffffffffffffffffffffffffffffffffffffffff1673ffffffffffffffffffffffffffffffffffffffff16815260200190815260200160002081905550807f44ff5a1d96b658d6e6d1368850d7b60d71011fd0d12f5ff7a448ee083f7a648e60405160405180910390a2505050565b6000808284019050838110151515620006b157fe5b8091505092915050565b60c06040519081016040528060608152602001600060ff168152602001600063ffffffff168152602001600063ffffffff16815260200160608152602001600081525090565b828054600181600116156101000203166002900490600052602060002090601f016020900481019282601f106200074457805160ff191683800117855562000775565b8280016001018555821562000775579182015b828111156200077457825182559160200191906001019062000757565b5b509050620007849190620007b0565b5090565b606060405190810160405280600060ff168152602001600060ff168152602001606081525090565b620007d591905b80821115620007d1576000816000905550600101620007b7565b5090565b90565b611d5680620007e86000396000f3006080604052600436106100ba576000357c0100000000000000000000000000000000000000000000000000000000900463ffffffff16806324c14160146100bf5780635a38b3f11461017357806367aa23e21461029a57806380310ea5146103325780638ac858691461039f5780638da5cb5b146103e4578063936fe6751461043b578063ac001b92146104d3578063c39cbef1146104f3578063ce3d644b14610538578063d24d48fa1461056f578063f2fde38b146105dc575b600080fd5b3480156100cb57600080fd5b506100ea6004803603810190808035906020019092919050505061061f565b6040518084815260200183815260200180602001828103825283818151815260200191508051906020019080838360005b8381101561013657808201518184015260208101905061011b565b50505050905090810190601f1680156101635780820380516001836020036101000a031916815260200191505b5094505050505060405180910390f35b34801561017f57600080fd5b5061019e60048036038101908080359060200190929190505050610723565b604051808060200186815260200185815260200184815260200180602001838103835288818151815260200191508051906020019080838360005b838110156101f45780820151818401526020810190506101d9565b50505050905090810190601f1680156102215780820380516001836020036101000a031916815260200191505b50838103825284818151815260200191508051906020019080838360005b8381101561025a57808201518184015260208101905061023f565b50505050905090810190601f1680156102875780820380516001836020036101000a031916815260200191505b5097505050505050505060405180910390f35b3480156102a657600080fd5b506102db600480360381019080803573ffffffffffffffffffffffffffffffffffffffff1690602001909291905050506108f5565b6040518080602001828103825283818151815260200191508051906020019060200280838360005b8381101561031e578082015181840152602081019050610303565b505050509050019250505060405180910390f35b34801561033e57600080fd5b5061035d60048036038101908080359060200190929190505050610a28565b604051808273ffffffffffffffffffffffffffffffffffffffff1673ffffffffffffffffffffffffffffffffffffffff16815260200191505060405180910390f35b3480156103ab57600080fd5b506103e260048036038101908080359060200190929190803590602001908201803590602001919091929391929390505050610a5b565b005b3480156103f057600080fd5b506103f9610b43565b604051808273ffffffffffffffffffffffffffffffffffffffff1673ffffffffffffffffffffffffffffffffffffffff16815260200191505060405180910390f35b34801561044757600080fd5b5061047c600480360381019080803573ffffffffffffffffffffffffffffffffffffffff169060200190929190505050610b68565b6040518080602001828103825283818151815260200191508051906020019060200280838360005b838110156104bf5780820151818401526020810190506104a4565b505050509050019250505060405180910390f35b6104f160048036038101908080359060200190929190505050610c9b565b005b3480156104ff57600080fd5b5061053660048036038101908080359060200190929190803590602001908201803590602001919091929391929390505050610d17565b005b34801561054457600080fd5b5061056d6004803603810190808035906020019092919080359060200190929190505050610dff565b005b34801561057b57600080fd5b5061059a60048036038101908080359060200190929190505050611019565b604051808273ffffffffffffffffffffffffffffffffffffffff1673ffffffffffffffffffffffffffffffffffffffff16815260200191505060405180910390f35b3480156105e857600080fd5b5061061d600480360381019080803573ffffffffffffffffffffffffffffffffffffffff16906020019092919050505061104c565b005b6000806060600060048581548110151561063557fe5b906000526020600020906002020190508060000160009054906101000a900460ff168160000160019054906101000a900460ff16826001018260ff1692508160ff169150808054600181600116156101000203166002900480601f01602080910402602001604051908101604052809291908181526020018280546001816001161561010002031660029004801561070e5780601f106106e35761010080835404028352916020019161070e565b820191906000526020600020905b8154815290600101906020018083116106f157829003601f168201915b50505050509050935093509350509193909250565b606060008060006060600060018781548110151561073d57fe5b90600052602060002090600402019050806000018160010160009054906101000a900460ff168260010160019054906101000a900463ffffffff168360010160059054906101000a900463ffffffff1684600201848054600181600116156101000203166002900480601f0160208091040260200160405190810160405280929190818152602001828054600181600116156101000203166002900480156108265780601f106107fb57610100808354040283529160200191610826565b820191906000526020600020905b81548152906001019060200180831161080957829003601f168201915b505050505094508360ff1693508263ffffffff1692508163ffffffff169150808054600181600116156101000203166002900480601f0160208091040260200160405190810160405280929190818152602001828054600181600116156101000203166002900480156108da5780601f106108af576101008083540402835291602001916108da565b820191906000526020600020905b8154815290600101906020018083116108bd57829003601f168201915b50505050509050955095509550955095505091939590929450565b606080600080600660008673ffffffffffffffffffffffffffffffffffffffff1673ffffffffffffffffffffffffffffffffffffffff168152602001908152602001600020546040519080825280602002602001820160405280156109695781602001602082028038833980820191505090505b50925060009150600190505b600480549050811015610a1d578473ffffffffffffffffffffffffffffffffffffffff166005600083815260200190815260200160002060009054906101000a900473ffffffffffffffffffffffffffffffffffffffff1673ffffffffffffffffffffffffffffffffffffffff161415610a1057600183838151811015156109f957fe5b906020019060200201818152505081806001019250505b8080600101915050610975565b829350505050919050565b60056020528060005260406000206000915054906101000a900473ffffffffffffffffffffffffffffffffffffffff1681565b826002600082815260200190815260200160002060009054906101000a900473ffffffffffffffffffffffffffffffffffffffff1673ffffffffffffffffffffffffffffffffffffffff163373ffffffffffffffffffffffffffffffffffffffff16141515610ac957600080fd5b600a8481600182815481101515610adc57fe5b906000526020600020906004020160010160009054906101000a900460ff1660ff1610151515610b0b57600080fd5b8484600188815481101515610b1c57fe5b90600052602060002090600402016002019190610b3a929190611b97565b50505050505050565b6000809054906101000a900473ffffffffffffffffffffffffffffffffffffffff1681565b606080600080600360008673ffffffffffffffffffffffffffffffffffffffff1673ffffffffffffffffffffffffffffffffffffffff16815260200190815260200160002054604051908082528060200260200182016040528015610bdc5781602001602082028038833980820191505090505b50925060009150600190505b600180549050811015610c90578473ffffffffffffffffffffffffffffffffffffffff166002600083815260200190815260200160002060009054906101000a900473ffffffffffffffffffffffffffffffffffffffff1673ffffffffffffffffffffffffffffffffffffffff161415610c835760018383815181101515610c6c57fe5b906020019060200201818152505081806001019250505b8080600101915050610be8565b829350505050919050565b6000600482815481101515610cac57fe5b906000526020600020906002020160000160019054906101000a900460ff1660ff16141515610cda57600080fd5b6005600482815481101515610ceb57fe5b906000526020600020906002020160000160016101000a81548160ff021916908360ff16021790555050565b826002600082815260200190815260200160002060009054906101000a900473ffffffffffffffffffffffffffffffffffffffff1673ffffffffffffffffffffffffffffffffffffffff163373ffffffffffffffffffffffffffffffffffffffff16141515610d8557600080fd5b60028481600182815481101515610d9857fe5b906000526020600020906004020160010160009054906101000a900460ff1660ff1610151515610dc757600080fd5b8484600188815481101515610dd857fe5b90600052602060002090600402016000019190610df6929190611b97565b50505050505050565b600080836002600082815260200190815260200160002060009054906101000a900473ffffffffffffffffffffffffffffffffffffffff1673ffffffffffffffffffffffffffffffffffffffff163373ffffffffffffffffffffffffffffffffffffffff16141515610e7057600080fd5b600185815481101515610e7f57fe5b90600052602060002090600402019250600484815481101515610e9e57fe5b90600052602060002090600202019150610eb7836111a1565b1515610ec257600080fd5b60018260000160019054906101000a900460ff1660ff1610151515610ee657600080fd5b610f0e60018360000160019054906101000a900460ff1660ff166111b290919063ffffffff16565b8260000160016101000a81548160ff021916908360ff1602179055506007548360010160009054906101000a900460ff1660ff161015610fcc57610f5283836111d1565b5b8260010160059054906101000a900463ffffffff1663ffffffff168360010160019054906101000a900463ffffffff1663ffffffff16101515610fcb57610f9983611329565b847f2e7a68ae79b91a55a87ce42081bdb1b4333d3c3feff3c211ac1f9f32b62541d660405160405180910390a2610f53565b5b610fd860006064611423565b600a81905550600954600a54101515611009576110088260000160009054906101000a900460ff1660ff1661154c565b5b611012836115d8565b5050505050565b60026020528060005260406000206000915054906101000a900473ffffffffffffffffffffffffffffffffffffffff1681565b6000809054906101000a900473ffffffffffffffffffffffffffffffffffffffff1673ffffffffffffffffffffffffffffffffffffffff163373ffffffffffffffffffffffffffffffffffffffff161415156110a757600080fd5b600073ffffffffffffffffffffffffffffffffffffffff168173ffffffffffffffffffffffffffffffffffffffff16141515156110e357600080fd5b8073ffffffffffffffffffffffffffffffffffffffff166000809054906101000a900473ffffffffffffffffffffffffffffffffffffffff1673ffffffffffffffffffffffffffffffffffffffff167f8be0079c531659141344cd1fd0a4f28419497f9722a3daafe3b4186f6b6457e060405160405180910390a3806000806101000a81548173ffffffffffffffffffffffffffffffffffffffff021916908373ffffffffffffffffffffffffffffffffffffffff16021790555050565b600042826003015411159050919050565b60008260ff168260ff16111515156111c657fe5b818303905092915050565b60018160000160009054906101000a900460ff1660ff1614156112435761121c604b8360010160019054906101000a900463ffffffff1663ffffffff166115e890919063ffffffff16565b8260010160016101000a81548163ffffffff021916908363ffffffff160217905550611325565b60028160000160009054906101000a900460ff1660ff1614156112b55761128e60968360010160019054906101000a900463ffffffff1663ffffffff166115e890919063ffffffff16565b8260010160016101000a81548163ffffffff021916908363ffffffff160217905550611324565b60038160000160009054906101000a900460ff1660ff1614156113235761130060e18360010160019054906101000a900463ffffffff1663ffffffff166115e890919063ffffffff16565b8260010160016101000a81548163ffffffff021916908363ffffffff1602179055505b5b5b5050565b61135160018260010160009054906101000a900460ff1660ff1661161290919063ffffffff16565b8160010160006101000a81548160ff021916908360ff1602179055506113ae8160010160059054906101000a900463ffffffff168260010160019054906101000a900463ffffffff1663ffffffff1661163690919063ffffffff16565b8160010160016101000a81548163ffffffff021916908363ffffffff1602179055506113fe60328260010160059054906101000a900463ffffffff1663ffffffff166115e890919063ffffffff16565b8160010160056101000a81548163ffffffff021916908363ffffffff16021790555050565b6000806000808242600143034041444360405160200180876000191660001916815260200186815260200185600019166000191681526020018473ffffffffffffffffffffffffffffffffffffffff1673ffffffffffffffffffffffffffffffffffffffff166c0100000000000000000000000002815260140183815260200182815260200196505050505050506040516020818303038152906040526040518082805190602001908083835b6020831015156114f557805182526020820191506020810190506020830392506114d0565b6001836020036101000a03801982511681845116808217855250505050505090500191505060405180910390209250600186860301915081836001900481151561153b57fe5b068601905080935050505092915050565b6032600a541015801561156257506050600a5411155b156115a6576115a56040805190810160405280601381526020017f4e6577204b6e696768742041637175697265640000000000000000000000000081525061165b565b5b6046600a54101580156115bc57506064600a5411155b156115d5576115d46115cf600183611423565b611940565b5b50565b6008544201816003018190555050565b60008082840190508363ffffffff168163ffffffff161015151561160857fe5b8091505092915050565b60008082840190508360ff168160ff161015151561162c57fe5b8091505092915050565b60008263ffffffff168263ffffffff161115151561165057fe5b818303905092915050565b611663611c17565b600060c060405190810160405280848152602001600160ff168152602001600063ffffffff168152602001603263ffffffff1681526020016040805190810160405280600a81526020017f416476656e747572657200000000000000000000000000000000000000000000815250815260200142815250915060018083908060018154018082558091505090600182039060005260206000209060040201600090919290919091506000820151816000019080519060200190611727929190611c5d565b5060208201518160010160006101000a81548160ff021916908360ff16021790555060408201518160010160016101000a81548163ffffffff021916908363ffffffff16021790555060608201518160010160056101000a81548163ffffffff021916908363ffffffff16021790555060808201518160020190805190602001906117b3929190611c5d565b5060a082015181600301555050039050336002600083815260200190815260200160002060006101000a81548173ffffffffffffffffffffffffffffffffffffffff021916908373ffffffffffffffffffffffffffffffffffffffff1602179055506118686001600360003373ffffffffffffffffffffffffffffffffffffffff1673ffffffffffffffffffffffffffffffffffffffff16815260200190815260200160002054611b7990919063ffffffff16565b600360003373ffffffffffffffffffffffffffffffffffffffff1673ffffffffffffffffffffffffffffffffffffffff16815260200190815260200160002081905550826040518082805190602001908083835b6020831015156118e157805182526020820191506020810190506020830392506118bc565b6001836020036101000a0380198251168184511680821785525050505050509050019150506040518091039020817fdd7528f86d7595165cc235f18bdd47a562f826a3fda4d76bc88df64136bca3b160405160405180910390a3505050565b611948611cdd565b60006060604051908101604052808460ff168152602001600560ff168152602001606060405190810160405280602481526020017f526571756972656420746f20616363657373207468652064756e67656f6e206781526020017f6174652e00000000000000000000000000000000000000000000000000000000815250815250915060016004839080600181540180825580915050906001820390600052602060002090600202016000909192909190915060008201518160000160006101000a81548160ff021916908360ff16021790555060208201518160000160016101000a81548160ff021916908360ff1602179055506040820151816001019080519060200190611a59929190611c5d565b505050039050336005600083815260200190815260200160002060006101000a81548173ffffffffffffffffffffffffffffffffffffffff021916908373ffffffffffffffffffffffffffffffffffffffff160217905550611b046001600660003373ffffffffffffffffffffffffffffffffffffffff1673ffffffffffffffffffffffffffffffffffffffff16815260200190815260200160002054611b7990919063ffffffff16565b600660003373ffffffffffffffffffffffffffffffffffffffff1673ffffffffffffffffffffffffffffffffffffffff16815260200190815260200160002081905550807f44ff5a1d96b658d6e6d1368850d7b60d71011fd0d12f5ff7a448ee083f7a648e60405160405180910390a2505050565b6000808284019050838110151515611b8d57fe5b8091505092915050565b828054600181600116156101000203166002900490600052602060002090601f016020900481019282601f10611bd857803560ff1916838001178555611c06565b82800160010185558215611c06579182015b82811115611c05578235825591602001919060010190611bea565b5b509050611c139190611d05565b5090565b60c06040519081016040528060608152602001600060ff168152602001600063ffffffff168152602001600063ffffffff16815260200160608152602001600081525090565b828054600181600116156101000203166002900490600052602060002090601f016020900481019282601f10611c9e57805160ff1916838001178555611ccc565b82800160010185558215611ccc579182015b82811115611ccb578251825591602001919060010190611cb0565b5b509050611cd99190611d05565b5090565b606060405190810160405280600060ff168152602001600060ff168152602001606081525090565b611d2791905b80821115611d23576000816000905550600101611d0b565b5090565b905600a165627a7a7230582066bf88109fffae6a4ba8ee5e082ef11e099358beedad1ef4c33e978166017d030029",
  "source": "pragma solidity ^0.4.24;\r\n\r\nimport \"./SafeMath.sol\";\r\nimport \"./KnightHelper.sol\";\r\n\r\ncontract KnightAdventure is KnightHelper {\r\n    \r\n    using SafeMath8 for uint8;\r\n    using SafeMath32 for uint32;\r\n    \r\n    uint maxLevel = 250;\r\n    event KnightLeveledUp(uint indexed knightId);\r\n    \r\n    uint dungeonCompleteRuntime = 30 seconds;\r\n    uint lootSuccessProbability = 50;\r\n    uint lootSuccessRate;\r\n    \r\n    function _pseudoRandom(uint _start, uint _end) private view returns (uint) {\r\n        bytes32 randseed = keccak256(abi.encodePacked(randseed, block.timestamp, blockhash(block.number-1), block.coinbase, block.difficulty, block.number));\r\n        uint range = _end - _start + 1;\r\n        uint randVal = _start + uint256(randseed) % range;\r\n        return randVal;\r\n    }\r\n    \r\n    function _isReady(Knight storage _knight) internal view returns (bool) {\r\n        return (_knight.ReadyTime <= now);\r\n    }\r\n\r\n    function _triggerCooldown(Knight storage _knight) internal {\r\n        _knight.ReadyTime = now + dungeonCompleteRuntime;\r\n    }\r\n\r\n    //add exp based on gate number\r\n    function _expReward(Knight storage _knight, Ticket storage _ticket) private {\r\n        if (_ticket.Gate == 1) {\r\n            _knight.CurrentExp = _knight.CurrentExp.add(75);\r\n        }\r\n        else if (_ticket.Gate == 2) {\r\n            _knight.CurrentExp = _knight.CurrentExp.add(150);\r\n        }\r\n        else if (_ticket.Gate == 3) {\r\n            _knight.CurrentExp = _knight.CurrentExp.add(225);\r\n        }\r\n    }\r\n    \r\n    //add 1 level to the knight\r\n    function _levelUp(Knight storage _knight) private {\r\n        _knight.Level = _knight.Level.add(1);\r\n        //set CurrentExp by subtracting the CurrentExp by ExpNeededForNextLevel\r\n        _knight.CurrentExp = _knight.CurrentExp.sub(_knight.ExpNeededForNextLevel);\r\n        //add 100exp for next ExpNeededForNextLevel\r\n        _knight.ExpNeededForNextLevel = _knight.ExpNeededForNextLevel.add(50);\r\n    }\r\n    \r\n    function _loot(uint _upto) private {\r\n        //lootSuccessRate for knight\r\n        if (lootSuccessRate >= 50 && lootSuccessRate <= 80) {\r\n            _createKnight(\"New Knight Acquired\");\r\n        }\r\n        \r\n        //lootSuccessRate for ticket\r\n        if (lootSuccessRate >= 70 && lootSuccessRate <= 100) {\r\n            _createTicket(uint8(_pseudoRandom(1, _upto)));\r\n        }\r\n    }\r\n    \r\n    function enterDungeon(uint _knightId, uint _ticketId) onlyOwnerOf(_knightId) public {\r\n        Knight storage knight = knights[_knightId];\r\n        Ticket storage ticket = tickets[_ticketId];\r\n        \r\n        //require that knight must ready or available\r\n        require(_isReady(knight));\r\n        //require that ticket has still UseLimit\r\n        require(ticket.UseLimit >= 1);\r\n        //reduce the UseLimit of ticket by 1\r\n        ticket.UseLimit = ticket.UseLimit.sub(1);\r\n        \r\n        if (knight.Level < maxLevel) {\r\n            _expReward(knight, ticket);\r\n            //check if knight is ready to level up\r\n            while (knight.CurrentExp >= knight.ExpNeededForNextLevel) {\r\n                _levelUp(knight);\r\n                emit KnightLeveledUp(_knightId);\r\n            }\r\n        }\r\n        \r\n        lootSuccessRate = _pseudoRandom(0, 100);\r\n        if (lootSuccessRate >= lootSuccessProbability) {\r\n            _loot(ticket.Gate);\r\n        }\r\n        \r\n        _triggerCooldown(knight);\r\n    }\r\n}",
  "sourcePath": "C:\\Users\\arj\\Desktop\\Blockchain Project\\Dapp\\KryptoKnight\\contracts\\KnightAdventure.sol",
  "compiler": {
    "name": "solc",
    "version": "0.4.24+commit.e67f0147.Emscripten.clang"
  },
  "schemaVersion": "2.0.1",
  "updatedAt": "2018-09-22T17:41:24.122Z"
}