{
  "contractName": "KnightHelper",
  "abi": [
    {
      "constant": true,
      "inputs": [
        {
          "name": "",
          "type": "uint256"
        }
      ],
      "name": "ticketIndexToOwner",
      "outputs": [
        {
          "name": "",
          "type": "address"
        }
      ],
      "payable": false,
      "stateMutability": "view",
      "type": "function"
    },
    {
      "constant": true,
      "inputs": [],
      "name": "owner",
      "outputs": [
        {
          "name": "",
          "type": "address"
        }
      ],
      "payable": false,
      "stateMutability": "view",
      "type": "function"
    },
    {
      "constant": true,
      "inputs": [
        {
          "name": "",
          "type": "uint256"
        }
      ],
      "name": "knightIndexToOwner",
      "outputs": [
        {
          "name": "",
          "type": "address"
        }
      ],
      "payable": false,
      "stateMutability": "view",
      "type": "function"
    },
    {
      "constant": false,
      "inputs": [
        {
          "name": "newOwner",
          "type": "address"
        }
      ],
      "name": "transferOwnership",
      "outputs": [],
      "payable": false,
      "stateMutability": "nonpayable",
      "type": "function"
    },
    {
      "anonymous": false,
      "inputs": [
        {
          "indexed": true,
          "name": "ticketId",
          "type": "uint256"
        }
      ],
      "name": "NewTicket",
      "type": "event"
    },
    {
      "anonymous": false,
      "inputs": [
        {
          "indexed": true,
          "name": "knightId",
          "type": "uint256"
        },
        {
          "indexed": true,
          "name": "name",
          "type": "string"
        }
      ],
      "name": "NewKnight",
      "type": "event"
    },
    {
      "anonymous": false,
      "inputs": [
        {
          "indexed": true,
          "name": "previousOwner",
          "type": "address"
        },
        {
          "indexed": true,
          "name": "newOwner",
          "type": "address"
        }
      ],
      "name": "OwnershipTransferred",
      "type": "event"
    },
    {
      "constant": false,
      "inputs": [
        {
          "name": "_knightId",
          "type": "uint256"
        },
        {
          "name": "_newName",
          "type": "string"
        }
      ],
      "name": "changeName",
      "outputs": [],
      "payable": false,
      "stateMutability": "nonpayable",
      "type": "function"
    },
    {
      "constant": false,
      "inputs": [
        {
          "name": "_knightId",
          "type": "uint256"
        },
        {
          "name": "_newTitle",
          "type": "string"
        }
      ],
      "name": "changeTitle",
      "outputs": [],
      "payable": false,
      "stateMutability": "nonpayable",
      "type": "function"
    },
    {
      "constant": false,
      "inputs": [
        {
          "name": "_ticketId",
          "type": "uint256"
        }
      ],
      "name": "refreshTicketUseLimit",
      "outputs": [],
      "payable": true,
      "stateMutability": "payable",
      "type": "function"
    },
    {
      "constant": true,
      "inputs": [
        {
          "name": "_index",
          "type": "uint256"
        }
      ],
      "name": "getKnightDetails",
      "outputs": [
        {
          "name": "",
          "type": "string"
        },
        {
          "name": "",
          "type": "uint256"
        },
        {
          "name": "",
          "type": "uint256"
        },
        {
          "name": "",
          "type": "uint256"
        },
        {
          "name": "",
          "type": "string"
        }
      ],
      "payable": false,
      "stateMutability": "view",
      "type": "function"
    },
    {
      "constant": true,
      "inputs": [
        {
          "name": "_owner",
          "type": "address"
        }
      ],
      "name": "getKnightsByOwner",
      "outputs": [
        {
          "name": "",
          "type": "uint256[]"
        }
      ],
      "payable": false,
      "stateMutability": "view",
      "type": "function"
    },
    {
      "constant": true,
      "inputs": [
        {
          "name": "_index",
          "type": "uint256"
        }
      ],
      "name": "getTicketDetails",
      "outputs": [
        {
          "name": "",
          "type": "uint256"
        },
        {
          "name": "",
          "type": "uint256"
        },
        {
          "name": "",
          "type": "string"
        }
      ],
      "payable": false,
      "stateMutability": "view",
      "type": "function"
    },
    {
      "constant": true,
      "inputs": [
        {
          "name": "_owner",
          "type": "address"
        }
      ],
      "name": "getTicketsByOwner",
      "outputs": [
        {
          "name": "",
          "type": "uint256[]"
        }
      ],
      "payable": false,
      "stateMutability": "view",
      "type": "function"
    }
  ],
  "bytecode": "0x6080604052336000806101000a81548173ffffffffffffffffffffffffffffffffffffffff021916908373ffffffffffffffffffffffffffffffffffffffff160217905550620000936040805190810160405280600781526020017f47656e657369730000000000000000000000000000000000000000000000000081525062000143640100000000026401000000009004565b620000e26040805190810160405280600981526020017f416e6f746865722031000000000000000000000000000000000000000000000081525062000143640100000000026401000000009004565b336000806101000a81548173ffffffffffffffffffffffffffffffffffffffff021916908373ffffffffffffffffffffffffffffffffffffffff1602179055506200013d600162000440640100000000026401000000009004565b620007c9565b6200014d620006ac565b600060c060405190810160405280848152602001600160ff168152602001600063ffffffff168152602001603263ffffffff1681526020016040805190810160405280600a81526020017f416476656e74757265720000000000000000000000000000000000000000000081525081526020014281525091506001808390806001815401808255809150509060018203906000526020600020906004020160009091929091909150600082015181600001908051906020019062000213929190620006f2565b5060208201518160010160006101000a81548160ff021916908360ff16021790555060408201518160010160016101000a81548163ffffffff021916908363ffffffff16021790555060608201518160010160056101000a81548163ffffffff021916908363ffffffff1602179055506080820151816002019080519060200190620002a1929190620006f2565b5060a082015181600301555050039050336002600083815260200190815260200160002060006101000a81548173ffffffffffffffffffffffffffffffffffffffff021916908373ffffffffffffffffffffffffffffffffffffffff160217905550620003666001600360003373ffffffffffffffffffffffffffffffffffffffff1673ffffffffffffffffffffffffffffffffffffffff168152602001908152602001600020546200068d6401000000000262000fea179091906401000000009004565b600360003373ffffffffffffffffffffffffffffffffffffffff1673ffffffffffffffffffffffffffffffffffffffff16815260200190815260200160002081905550826040518082805190602001908083835b602083101515620003e15780518252602082019150602081019050602083039250620003ba565b6001836020036101000a0380198251168184511680821785525050505050509050019150506040518091039020817fdd7528f86d7595165cc235f18bdd47a562f826a3fda4d76bc88df64136bca3b160405160405180910390a3505050565b6200044a62000779565b60006060604051908101604052808460ff168152602001600560ff168152602001606060405190810160405280602481526020017f526571756972656420746f20616363657373207468652064756e67656f6e206781526020017f6174652e00000000000000000000000000000000000000000000000000000000815250815250915060016004839080600181540180825580915050906001820390600052602060002090600202016000909192909190915060008201518160000160006101000a81548160ff021916908360ff16021790555060208201518160000160016101000a81548160ff021916908360ff16021790555060408201518160010190805190602001906200055d929190620006f2565b505050039050336005600083815260200190815260200160002060006101000a81548173ffffffffffffffffffffffffffffffffffffffff021916908373ffffffffffffffffffffffffffffffffffffffff160217905550620006186001600660003373ffffffffffffffffffffffffffffffffffffffff1673ffffffffffffffffffffffffffffffffffffffff168152602001908152602001600020546200068d6401000000000262000fea179091906401000000009004565b600660003373ffffffffffffffffffffffffffffffffffffffff1673ffffffffffffffffffffffffffffffffffffffff16815260200190815260200160002081905550807f44ff5a1d96b658d6e6d1368850d7b60d71011fd0d12f5ff7a448ee083f7a648e60405160405180910390a2505050565b6000808284019050838110151515620006a257fe5b8091505092915050565b60c06040519081016040528060608152602001600060ff168152602001600063ffffffff168152602001600063ffffffff16815260200160608152602001600081525090565b828054600181600116156101000203166002900490600052602060002090601f016020900481019282601f106200073557805160ff191683800117855562000766565b8280016001018555821562000766579182015b828111156200076557825182559160200191906001019062000748565b5b509050620007759190620007a1565b5090565b606060405190810160405280600060ff168152602001600060ff168152602001606081525090565b620007c691905b80821115620007c2576000816000905550600101620007a8565b5090565b90565b61103480620007d96000396000f3006080604052600436106100af576000357c0100000000000000000000000000000000000000000000000000000000900463ffffffff16806324c14160146100b45780635a38b3f11461016857806367aa23e21461028f57806380310ea5146103275780638ac85869146103945780638da5cb5b146103d9578063936fe67514610430578063ac001b92146104c8578063c39cbef1146104e8578063d24d48fa1461052d578063f2fde38b1461059a575b600080fd5b3480156100c057600080fd5b506100df600480360381019080803590602001909291905050506105dd565b6040518084815260200183815260200180602001828103825283818151815260200191508051906020019080838360005b8381101561012b578082015181840152602081019050610110565b50505050905090810190601f1680156101585780820380516001836020036101000a031916815260200191505b5094505050505060405180910390f35b34801561017457600080fd5b50610193600480360381019080803590602001909291905050506106e1565b604051808060200186815260200185815260200184815260200180602001838103835288818151815260200191508051906020019080838360005b838110156101e95780820151818401526020810190506101ce565b50505050905090810190601f1680156102165780820380516001836020036101000a031916815260200191505b50838103825284818151815260200191508051906020019080838360005b8381101561024f578082015181840152602081019050610234565b50505050905090810190601f16801561027c5780820380516001836020036101000a031916815260200191505b5097505050505050505060405180910390f35b34801561029b57600080fd5b506102d0600480360381019080803573ffffffffffffffffffffffffffffffffffffffff1690602001909291905050506108b3565b6040518080602001828103825283818151815260200191508051906020019060200280838360005b838110156103135780820151818401526020810190506102f8565b505050509050019250505060405180910390f35b34801561033357600080fd5b50610352600480360381019080803590602001909291905050506109e6565b604051808273ffffffffffffffffffffffffffffffffffffffff1673ffffffffffffffffffffffffffffffffffffffff16815260200191505060405180910390f35b3480156103a057600080fd5b506103d760048036038101908080359060200190929190803590602001908201803590602001919091929391929390505050610a19565b005b3480156103e557600080fd5b506103ee610b01565b604051808273ffffffffffffffffffffffffffffffffffffffff1673ffffffffffffffffffffffffffffffffffffffff16815260200191505060405180910390f35b34801561043c57600080fd5b50610471600480360381019080803573ffffffffffffffffffffffffffffffffffffffff169060200190929190505050610b26565b6040518080602001828103825283818151815260200191508051906020019060200280838360005b838110156104b4578082015181840152602081019050610499565b505050509050019250505060405180910390f35b6104e660048036038101908080359060200190929190505050610c59565b005b3480156104f457600080fd5b5061052b60048036038101908080359060200190929190803590602001908201803590602001919091929391929390505050610cd5565b005b34801561053957600080fd5b5061055860048036038101908080359060200190929190505050610dbd565b604051808273ffffffffffffffffffffffffffffffffffffffff1673ffffffffffffffffffffffffffffffffffffffff16815260200191505060405180910390f35b3480156105a657600080fd5b506105db600480360381019080803573ffffffffffffffffffffffffffffffffffffffff169060200190929190505050610df0565b005b600080606060006004858154811015156105f357fe5b906000526020600020906002020190508060000160009054906101000a900460ff168160000160019054906101000a900460ff16826001018260ff1692508160ff169150808054600181600116156101000203166002900480601f0160208091040260200160405190810160405280929190818152602001828054600181600116156101000203166002900480156106cc5780601f106106a1576101008083540402835291602001916106cc565b820191906000526020600020905b8154815290600101906020018083116106af57829003601f168201915b50505050509050935093509350509193909250565b60606000806000606060006001878154811015156106fb57fe5b90600052602060002090600402019050806000018160010160009054906101000a900460ff168260010160019054906101000a900463ffffffff168360010160059054906101000a900463ffffffff1684600201848054600181600116156101000203166002900480601f0160208091040260200160405190810160405280929190818152602001828054600181600116156101000203166002900480156107e45780601f106107b9576101008083540402835291602001916107e4565b820191906000526020600020905b8154815290600101906020018083116107c757829003601f168201915b505050505094508360ff1693508263ffffffff1692508163ffffffff169150808054600181600116156101000203166002900480601f0160208091040260200160405190810160405280929190818152602001828054600181600116156101000203166002900480156108985780601f1061086d57610100808354040283529160200191610898565b820191906000526020600020905b81548152906001019060200180831161087b57829003601f168201915b50505050509050955095509550955095505091939590929450565b606080600080600660008673ffffffffffffffffffffffffffffffffffffffff1673ffffffffffffffffffffffffffffffffffffffff168152602001908152602001600020546040519080825280602002602001820160405280156109275781602001602082028038833980820191505090505b50925060009150600190505b6004805490508110156109db578473ffffffffffffffffffffffffffffffffffffffff166005600083815260200190815260200160002060009054906101000a900473ffffffffffffffffffffffffffffffffffffffff1673ffffffffffffffffffffffffffffffffffffffff1614156109ce57600183838151811015156109b757fe5b906020019060200201818152505081806001019250505b8080600101915050610933565b829350505050919050565b60056020528060005260406000206000915054906101000a900473ffffffffffffffffffffffffffffffffffffffff1681565b826002600082815260200190815260200160002060009054906101000a900473ffffffffffffffffffffffffffffffffffffffff1673ffffffffffffffffffffffffffffffffffffffff163373ffffffffffffffffffffffffffffffffffffffff16141515610a8757600080fd5b600a8481600182815481101515610a9a57fe5b906000526020600020906004020160010160009054906101000a900460ff1660ff1610151515610ac957600080fd5b8484600188815481101515610ada57fe5b90600052602060002090600402016002019190610af8929190610f45565b50505050505050565b6000809054906101000a900473ffffffffffffffffffffffffffffffffffffffff1681565b606080600080600360008673ffffffffffffffffffffffffffffffffffffffff1673ffffffffffffffffffffffffffffffffffffffff16815260200190815260200160002054604051908082528060200260200182016040528015610b9a5781602001602082028038833980820191505090505b50925060009150600190505b600180549050811015610c4e578473ffffffffffffffffffffffffffffffffffffffff166002600083815260200190815260200160002060009054906101000a900473ffffffffffffffffffffffffffffffffffffffff1673ffffffffffffffffffffffffffffffffffffffff161415610c415760018383815181101515610c2a57fe5b906020019060200201818152505081806001019250505b8080600101915050610ba6565b829350505050919050565b6000600482815481101515610c6a57fe5b906000526020600020906002020160000160019054906101000a900460ff1660ff16141515610c9857600080fd5b6005600482815481101515610ca957fe5b906000526020600020906002020160000160016101000a81548160ff021916908360ff16021790555050565b826002600082815260200190815260200160002060009054906101000a900473ffffffffffffffffffffffffffffffffffffffff1673ffffffffffffffffffffffffffffffffffffffff163373ffffffffffffffffffffffffffffffffffffffff16141515610d4357600080fd5b60028481600182815481101515610d5657fe5b906000526020600020906004020160010160009054906101000a900460ff1660ff1610151515610d8557600080fd5b8484600188815481101515610d9657fe5b90600052602060002090600402016000019190610db4929190610f45565b50505050505050565b60026020528060005260406000206000915054906101000a900473ffffffffffffffffffffffffffffffffffffffff1681565b6000809054906101000a900473ffffffffffffffffffffffffffffffffffffffff1673ffffffffffffffffffffffffffffffffffffffff163373ffffffffffffffffffffffffffffffffffffffff16141515610e4b57600080fd5b600073ffffffffffffffffffffffffffffffffffffffff168173ffffffffffffffffffffffffffffffffffffffff1614151515610e8757600080fd5b8073ffffffffffffffffffffffffffffffffffffffff166000809054906101000a900473ffffffffffffffffffffffffffffffffffffffff1673ffffffffffffffffffffffffffffffffffffffff167f8be0079c531659141344cd1fd0a4f28419497f9722a3daafe3b4186f6b6457e060405160405180910390a3806000806101000a81548173ffffffffffffffffffffffffffffffffffffffff021916908373ffffffffffffffffffffffffffffffffffffffff16021790555050565b828054600181600116156101000203166002900490600052602060002090601f016020900481019282601f10610f8657803560ff1916838001178555610fb4565b82800160010185558215610fb4579182015b82811115610fb3578235825591602001919060010190610f98565b5b509050610fc19190610fc5565b5090565b610fe791905b80821115610fe3576000816000905550600101610fcb565b5090565b90565b6000808284019050838110151515610ffe57fe5b80915050929150505600a165627a7a72305820048f59c517d087ac0646d9a336358dab5b3c97bb03b6229ee2663ed8da140a310029",
  "source": "pragma solidity ^0.4.24;\r\n\r\nimport \"./KnightCastle.sol\";\r\nimport \"./KnightTicket.sol\";\r\n\r\ncontract KnightHelper is KnightCastle, KnightTicket {\r\n    \r\n    //event KnightNameChange(uint indexed knightId, string indexed newName);\r\n    //event KnightTitleChange(uint indexed knightId, string indexed newTitle);\r\n    //event TicketRefresh(uint _ticketId);\r\n\r\n    modifier aboveLevel(uint _level, uint _knightId) {\r\n        require(knights[_knightId].Level >= _level);\r\n        _;\r\n    }\r\n    \r\n    modifier onlyOwnerOf(uint _knightId) {\r\n        require(msg.sender == knightIndexToOwner[_knightId]);\r\n        _;\r\n    }\r\n    \r\n    //knight level 2 or above can change Name\r\n    function changeName(uint _knightId, string _newName) external onlyOwnerOf(_knightId) aboveLevel(2, _knightId)  {\r\n        knights[_knightId].Name = _newName;\r\n        //emit KnightNameChange(_knightId, _newName);\r\n    }\r\n    \r\n    //knight level 10 or above can change Title\r\n    function changeTitle(uint _knightId, string _newTitle) external onlyOwnerOf(_knightId) aboveLevel(10, _knightId) {\r\n        knights[_knightId].Title = _newTitle;\r\n        //emit KnightTitleChange(_knightId, _newTitle);\r\n    }\r\n    \r\n    function refreshTicketUseLimit(uint _ticketId) external payable {\r\n        require(tickets[_ticketId].UseLimit == 0);\r\n        tickets[_ticketId].UseLimit = 5;\r\n        //emit TicketRefresh(_ticketId);\r\n    }\r\n    \r\n    function getKnightDetails(uint _index) external view returns(string, uint, uint, uint, string) {\r\n        Knight storage knight = knights[_index];\r\n        return (knight.Name, knight.Level, knight.CurrentExp, knight.ExpNeededForNextLevel, knight.Title);\r\n    }\r\n\r\n    //return array of uint of knightIndexToOwner\r\n    function getKnightsByOwner(address _owner) external view returns(uint[]) {\r\n        uint[] memory result = new uint[](ownerKnightCount[_owner]);\r\n        uint counter = 0;\r\n        for (uint i = 1; i < knights.length; i++) {\r\n            if (knightIndexToOwner[i] == _owner) {\r\n                result[counter] = 1;\r\n                counter++;\r\n            }\r\n        }\r\n        return result;\r\n    }\r\n\r\n    function getTicketDetails(uint _index) external view returns(uint, uint, string) {\r\n        Ticket storage ticket = tickets[_index];\r\n        return (ticket.Gate, ticket.UseLimit, ticket.Description);\r\n    }\r\n\r\n    //return array of uint of ticketIndexToOwner\r\n    function getTicketsByOwner(address _owner) external view returns(uint[]) {\r\n        uint[] memory result = new uint[](ownerTicketCount[_owner]);\r\n        uint counter = 0;\r\n        for (uint i = 1; i < tickets.length; i++) {\r\n            if (ticketIndexToOwner[i] == _owner) {\r\n                result[counter] = 1;\r\n                counter++;\r\n            }\r\n        }\r\n        return result;\r\n    }\r\n}",
  "sourcePath": "C:\\Users\\arj\\Desktop\\Blockchain Project\\Dapp\\KryptoKnight\\contracts\\KnightHelper.sol",
  "compiler": {
    "name": "solc",
    "version": "0.4.24+commit.e67f0147.Emscripten.clang"
  },
  "schemaVersion": "2.0.1",
  "updatedAt": "2018-09-22T17:41:22.873Z"
}