{
  "contractName": "KnightMarket",
  "abi": [
    {
      "constant": true,
      "inputs": [
        {
          "name": "_index",
          "type": "uint256"
        }
      ],
      "name": "getTicketDetails",
      "outputs": [
        {
          "name": "",
          "type": "uint256"
        },
        {
          "name": "",
          "type": "uint256"
        },
        {
          "name": "",
          "type": "string"
        }
      ],
      "payable": false,
      "stateMutability": "view",
      "type": "function"
    },
    {
      "constant": true,
      "inputs": [],
      "name": "getMarketTickets",
      "outputs": [
        {
          "name": "",
          "type": "uint256[]"
        }
      ],
      "payable": false,
      "stateMutability": "view",
      "type": "function"
    },
    {
      "constant": true,
      "inputs": [
        {
          "name": "_index",
          "type": "uint256"
        }
      ],
      "name": "getKnightDetails",
      "outputs": [
        {
          "name": "",
          "type": "string"
        },
        {
          "name": "",
          "type": "uint256"
        },
        {
          "name": "",
          "type": "uint256"
        },
        {
          "name": "",
          "type": "uint256"
        },
        {
          "name": "",
          "type": "string"
        }
      ],
      "payable": false,
      "stateMutability": "view",
      "type": "function"
    },
    {
      "constant": true,
      "inputs": [],
      "name": "knightsLength",
      "outputs": [
        {
          "name": "",
          "type": "uint256"
        }
      ],
      "payable": false,
      "stateMutability": "view",
      "type": "function"
    },
    {
      "constant": true,
      "inputs": [
        {
          "name": "_owner",
          "type": "address"
        }
      ],
      "name": "getTicketsByOwner",
      "outputs": [
        {
          "name": "",
          "type": "uint256[]"
        }
      ],
      "payable": false,
      "stateMutability": "view",
      "type": "function"
    },
    {
      "constant": false,
      "inputs": [
        {
          "name": "_marketId",
          "type": "uint256"
        }
      ],
      "name": "buyTicket",
      "outputs": [],
      "payable": true,
      "stateMutability": "payable",
      "type": "function"
    },
    {
      "constant": true,
      "inputs": [
        {
          "name": "",
          "type": "uint256"
        }
      ],
      "name": "ticketIndexToOwner",
      "outputs": [
        {
          "name": "",
          "type": "address"
        }
      ],
      "payable": false,
      "stateMutability": "view",
      "type": "function"
    },
    {
      "constant": false,
      "inputs": [
        {
          "name": "_knightId",
          "type": "uint256"
        },
        {
          "name": "_newTitle",
          "type": "string"
        }
      ],
      "name": "changeTitle",
      "outputs": [],
      "payable": false,
      "stateMutability": "nonpayable",
      "type": "function"
    },
    {
      "constant": true,
      "inputs": [],
      "name": "owner",
      "outputs": [
        {
          "name": "",
          "type": "address"
        }
      ],
      "payable": false,
      "stateMutability": "view",
      "type": "function"
    },
    {
      "constant": true,
      "inputs": [
        {
          "name": "_owner",
          "type": "address"
        }
      ],
      "name": "getKnightsByOwner",
      "outputs": [
        {
          "name": "",
          "type": "uint256[]"
        }
      ],
      "payable": false,
      "stateMutability": "view",
      "type": "function"
    },
    {
      "constant": true,
      "inputs": [
        {
          "name": "_marketId",
          "type": "uint256"
        }
      ],
      "name": "getMarketTicketDetails",
      "outputs": [
        {
          "name": "",
          "type": "address"
        },
        {
          "name": "",
          "type": "uint256"
        },
        {
          "name": "",
          "type": "uint256"
        },
        {
          "name": "",
          "type": "bool"
        }
      ],
      "payable": false,
      "stateMutability": "view",
      "type": "function"
    },
    {
      "constant": false,
      "inputs": [
        {
          "name": "_ticketId",
          "type": "uint256"
        }
      ],
      "name": "refreshTicketUseLimit",
      "outputs": [],
      "payable": true,
      "stateMutability": "payable",
      "type": "function"
    },
    {
      "constant": false,
      "inputs": [
        {
          "name": "_knightId",
          "type": "uint256"
        },
        {
          "name": "_newName",
          "type": "string"
        }
      ],
      "name": "changeName",
      "outputs": [],
      "payable": false,
      "stateMutability": "nonpayable",
      "type": "function"
    },
    {
      "constant": false,
      "inputs": [
        {
          "name": "_name",
          "type": "string"
        },
        {
          "name": "_level",
          "type": "uint8"
        }
      ],
      "name": "_createKnight",
      "outputs": [],
      "payable": false,
      "stateMutability": "nonpayable",
      "type": "function"
    },
    {
      "constant": false,
      "inputs": [
        {
          "name": "_knightId",
          "type": "uint256"
        },
        {
          "name": "_ticketId",
          "type": "uint256"
        }
      ],
      "name": "enterDungeon",
      "outputs": [],
      "payable": false,
      "stateMutability": "nonpayable",
      "type": "function"
    },
    {
      "constant": true,
      "inputs": [
        {
          "name": "",
          "type": "uint256"
        }
      ],
      "name": "knightIndexToOwner",
      "outputs": [
        {
          "name": "",
          "type": "address"
        }
      ],
      "payable": false,
      "stateMutability": "view",
      "type": "function"
    },
    {
      "constant": false,
      "inputs": [
        {
          "name": "_ticketId",
          "type": "uint256"
        },
        {
          "name": "_price",
          "type": "uint128"
        }
      ],
      "name": "sellTicket",
      "outputs": [],
      "payable": false,
      "stateMutability": "nonpayable",
      "type": "function"
    },
    {
      "constant": false,
      "inputs": [
        {
          "name": "newOwner",
          "type": "address"
        }
      ],
      "name": "transferOwnership",
      "outputs": [],
      "payable": false,
      "stateMutability": "nonpayable",
      "type": "function"
    },
    {
      "anonymous": false,
      "inputs": [
        {
          "indexed": true,
          "name": "knightId",
          "type": "uint256"
        }
      ],
      "name": "KnightLeveledUp",
      "type": "event"
    },
    {
      "anonymous": false,
      "inputs": [
        {
          "indexed": true,
          "name": "ticketId",
          "type": "uint256"
        }
      ],
      "name": "NewTicket",
      "type": "event"
    },
    {
      "anonymous": false,
      "inputs": [
        {
          "indexed": true,
          "name": "knightId",
          "type": "uint256"
        },
        {
          "indexed": true,
          "name": "name",
          "type": "string"
        }
      ],
      "name": "NewKnight",
      "type": "event"
    },
    {
      "anonymous": false,
      "inputs": [
        {
          "indexed": true,
          "name": "previousOwner",
          "type": "address"
        },
        {
          "indexed": true,
          "name": "newOwner",
          "type": "address"
        }
      ],
      "name": "OwnershipTransferred",
      "type": "event"
    },
    {
      "constant": false,
      "inputs": [
        {
          "name": "_knightId",
          "type": "uint256"
        },
        {
          "name": "_price",
          "type": "uint128"
        }
      ],
      "name": "sellKnight",
      "outputs": [],
      "payable": false,
      "stateMutability": "nonpayable",
      "type": "function"
    },
    {
      "constant": false,
      "inputs": [
        {
          "name": "_marketId",
          "type": "uint256"
        }
      ],
      "name": "buyKnight",
      "outputs": [],
      "payable": true,
      "stateMutability": "payable",
      "type": "function"
    },
    {
      "constant": true,
      "inputs": [],
      "name": "getMarketKnights",
      "outputs": [
        {
          "name": "",
          "type": "uint256[]"
        }
      ],
      "payable": false,
      "stateMutability": "view",
      "type": "function"
    },
    {
      "constant": true,
      "inputs": [
        {
          "name": "_marketId",
          "type": "uint256"
        }
      ],
      "name": "getMarketKnightDetails",
      "outputs": [
        {
          "name": "",
          "type": "address"
        },
        {
          "name": "",
          "type": "uint256"
        },
        {
          "name": "",
          "type": "uint256"
        },
        {
          "name": "",
          "type": "bool"
        }
      ],
      "payable": false,
      "stateMutability": "view",
      "type": "function"
    }
  ],
  "bytecode": "0x60806040526032600460006101000a81548163ffffffff021916908363ffffffff16021790555060fa60085560016009556032600a556000600d556000600f55336000806101000a81548173ffffffffffffffffffffffffffffffffffffffff021916908373ffffffffffffffffffffffffffffffffffffffff160217905550620000d06040805190810160405280600781526020017f47656e657369730000000000000000000000000000000000000000000000000081525060fa620001b8640100000000026401000000009004565b620001216040805190810160405280600681526020017f54657374203100000000000000000000000000000000000000000000000000008152506001620001b8640100000000026401000000009004565b336000806101000a81548173ffffffffffffffffffffffffffffffffffffffff021916908373ffffffffffffffffffffffffffffffffffffffff1602179055506200017c60016200051a640100000000026401000000009004565b6200019760026200051a640100000000026401000000009004565b620001b260036200051a640100000000026401000000009004565b6200093b565b6000620001c46200080c565b6000620001fe600460009054906101000a900463ffffffff168560ff1662000790640100000000026200296b179091906401000000009004565b925060e0604051908101604052808681526020018560ff168152602001600063ffffffff1681526020018463ffffffff1681526020016040805190810160405280600a81526020017f416476656e747572657200000000000000000000000000000000000000000000815250815260200142815260200160001515815250915060018083908060018154018082558091505090600182039060005260206000209060050201600090919290919091506000820151816000019080519060200190620002cb9291906200085b565b5060208201518160010160006101000a81548160ff021916908360ff16021790555060408201518160010160016101000a81548163ffffffff021916908363ffffffff16021790555060608201518160010160056101000a81548163ffffffff021916908363ffffffff1602179055506080820151816002019080519060200190620003599291906200085b565b5060a0820151816003015560c08201518160040160006101000a81548160ff0219169083151502179055505050039050336002600083815260200190815260200160002060006101000a81548173ffffffffffffffffffffffffffffffffffffffff021916908373ffffffffffffffffffffffffffffffffffffffff1602179055506200043e6001600360003373ffffffffffffffffffffffffffffffffffffffff1673ffffffffffffffffffffffffffffffffffffffff16815260200190815260200160002054620007ed6401000000000262002861179091906401000000009004565b600360003373ffffffffffffffffffffffffffffffffffffffff1673ffffffffffffffffffffffffffffffffffffffff16815260200190815260200160002081905550846040518082805190602001908083835b602083101515620004b9578051825260208201915060208101905060208303925062000492565b6001836020036101000a0380198251168184511680821785525050505050509050019150506040518091039020817fdd7528f86d7595165cc235f18bdd47a562f826a3fda4d76bc88df64136bca3b160405160405180910390a35050505050565b62000524620008e2565b60006080604051908101604052808460ff168152602001600560ff168152602001606060405190810160405280602481526020017f526571756972656420746f20616363657373207468652064756e67656f6e206781526020017f6174652e00000000000000000000000000000000000000000000000000000000815250815260200160001515815250915060016005839080600181540180825580915050906001820390600052602060002090600302016000909192909190915060008201518160000160006101000a81548160ff021916908360ff16021790555060208201518160000160016101000a81548160ff021916908360ff1602179055506040820151816001019080519060200190620006409291906200085b565b5060608201518160020160006101000a81548160ff0219169083151502179055505050039050336006600083815260200190815260200160002060006101000a81548173ffffffffffffffffffffffffffffffffffffffff021916908373ffffffffffffffffffffffffffffffffffffffff1602179055506200071b6001600760003373ffffffffffffffffffffffffffffffffffffffff1673ffffffffffffffffffffffffffffffffffffffff16815260200190815260200160002054620007ed6401000000000262002861179091906401000000009004565b600760003373ffffffffffffffffffffffffffffffffffffffff1673ffffffffffffffffffffffffffffffffffffffff16815260200190815260200160002081905550807f44ff5a1d96b658d6e6d1368850d7b60d71011fd0d12f5ff7a448ee083f7a648e60405160405180910390a2505050565b60008060008463ffffffff161415620007ad5760009150620007e6565b82840290508263ffffffff168463ffffffff168263ffffffff16811515620007d157fe5b0463ffffffff16141515620007e257fe5b8091505b5092915050565b60008082840190508381101515156200080257fe5b8091505092915050565b60e06040519081016040528060608152602001600060ff168152602001600063ffffffff168152602001600063ffffffff16815260200160608152602001600081526020016000151581525090565b828054600181600116156101000203166002900490600052602060002090601f016020900481019282601f106200089e57805160ff1916838001178555620008cf565b82800160010185558215620008cf579182015b82811115620008ce578251825591602001919060010190620008b1565b5b509050620008de919062000913565b5090565b608060405190810160405280600060ff168152602001600060ff168152602001606081526020016000151581525090565b6200093891905b80821115620009345760008160009055506001016200091a565b5090565b90565b613300806200094b6000396000f300608060405260043610610128576000357c0100000000000000000000000000000000000000000000000000000000900463ffffffff16806324c141601461012d5780632b0e799c146101e1578063415104051461024d5780634f3a6b591461026d5780635a38b3f1146102b65780636313a988146103dd57806367aa23e21461040857806367dd74ca146104a057806380310ea5146104c05780638ac858691461052d5780638da5cb5b14610572578063936fe675146105c9578063a6d5b58414610661578063ac001b92146106e7578063c39cbef114610707578063c74cf2f11461074c578063ce3d644b146107c2578063d24d48fa146107f9578063d5b7bf2914610866578063ea955fa4146108af578063f2fde38b14610935578063fa7e423b14610978575b600080fd5b34801561013957600080fd5b50610158600480360381019080803590602001909291905050506109e4565b6040518084815260200183815260200180602001828103825283818151815260200191508051906020019080838360005b838110156101a4578082015181840152602081019050610189565b50505050905090810190601f1680156101d15780820380516001836020036101000a031916815260200191505b5094505050505060405180910390f35b3480156101ed57600080fd5b506101f6610b0a565b6040518080602001828103825283818151815260200191508051906020019060200280838360005b8381101561023957808201518184015260208101905061021e565b505050509050019250505060405180910390f35b61026b60048036038101908080359060200190929190505050610bcc565b005b34801561027957600080fd5b506102b46004803603810190808035906020019092919080356fffffffffffffffffffffffffffffffff169060200190929190505050610d68565b005b3480156102c257600080fd5b506102e16004803603810190808035906020019092919050505061102e565b604051808060200186815260200185815260200184815260200180602001838103835288818151815260200191508051906020019080838360005b8381101561033757808201518184015260208101905061031c565b50505050905090810190601f1680156103645780820380516001836020036101000a031916815260200191505b50838103825284818151815260200191508051906020019080838360005b8381101561039d578082015181840152602081019050610382565b50505050905090810190601f1680156103ca5780820380516001836020036101000a031916815260200191505b5097505050505050505060405180910390f35b3480156103e957600080fd5b506103f2611222565b6040518082815260200191505060405180910390f35b34801561041457600080fd5b50610449600480360381019080803573ffffffffffffffffffffffffffffffffffffffff16906020019092919050505061122f565b6040518080602001828103825283818151815260200191508051906020019060200280838360005b8381101561048c578082015181840152602081019050610471565b505050509050019250505060405180910390f35b6104be600480360381019080803590602001909291905050506113d6565b005b3480156104cc57600080fd5b506104eb60048036038101908080359060200190929190505050611572565b604051808273ffffffffffffffffffffffffffffffffffffffff1673ffffffffffffffffffffffffffffffffffffffff16815260200191505060405180910390f35b34801561053957600080fd5b50610570600480360381019080803590602001909291908035906020019082018035906020019190919293919293905050506115a5565b005b34801561057e57600080fd5b5061058761168d565b604051808273ffffffffffffffffffffffffffffffffffffffff1673ffffffffffffffffffffffffffffffffffffffff16815260200191505060405180910390f35b3480156105d557600080fd5b5061060a600480360381019080803573ffffffffffffffffffffffffffffffffffffffff1690602001909291905050506116b2565b6040518080602001828103825283818151815260200191508051906020019060200280838360005b8381101561064d578082015181840152602081019050610632565b505050509050019250505060405180910390f35b34801561066d57600080fd5b5061068c6004803603810190808035906020019092919050505061181f565b604051808573ffffffffffffffffffffffffffffffffffffffff1673ffffffffffffffffffffffffffffffffffffffff1681526020018481526020018381526020018215151515815260200194505050505060405180910390f35b61070560048036038101908080359060200190929190505050611979565b005b34801561071357600080fd5b5061074a600480360381019080803590602001909291908035906020019082018035906020019190919293919293905050506119f4565b005b34801561075857600080fd5b506107c0600480360381019080803590602001908201803590602001908080601f0160208091040260200160405190810160405280939291908181526020018383808284378201915050505050509192919290803560ff169060200190929190505050611adc565b005b3480156107ce57600080fd5b506107f76004803603810190808035906020019092919080359060200190929190505050611e16565b005b34801561080557600080fd5b50610824600480360381019080803590602001909291905050506120d2565b604051808273ffffffffffffffffffffffffffffffffffffffff1673ffffffffffffffffffffffffffffffffffffffff16815260200191505060405180910390f35b34801561087257600080fd5b506108ad6004803603810190808035906020019092919080356fffffffffffffffffffffffffffffffff169060200190929190505050612105565b005b3480156108bb57600080fd5b506108da600480360381019080803590602001909291905050506123da565b604051808573ffffffffffffffffffffffffffffffffffffffff1673ffffffffffffffffffffffffffffffffffffffff1681526020018481526020018381526020018215151515815260200194505050505060405180910390f35b34801561094157600080fd5b50610976600480360381019080803573ffffffffffffffffffffffffffffffffffffffff169060200190929190505050612534565b005b34801561098457600080fd5b5061098d612689565b6040518080602001828103825283818151815260200191508051906020019060200280838360005b838110156109d05780820151818401526020810190506109b5565b505050509050019250505060405180910390f35b600080606060008085101515156109fa57600080fd5b60058054905085101515610a0d57600080fd5b600585815481101515610a1c57fe5b906000526020600020906003020190508060000160009054906101000a900460ff168160000160019054906101000a900460ff16826001018260ff1692508160ff169150808054600181600116156101000203166002900480601f016020809104026020016040519081016040528092919081815260200182805460018160011615610100020316600290048015610af55780601f10610aca57610100808354040283529160200191610af5565b820191906000526020600020905b815481529060010190602001808311610ad857829003601f168201915b50505050509050935093509350509193909250565b606080600080600d54604051908082528060200260200182016040528015610b415781602001602082028038833980820191505090505b509250600090505b600c80549050811015610bc35760001515600c82815481101515610b6957fe5b906000526020600020906003020160020160109054906101000a900460ff1615151415610bb657808383815181101515610b9f57fe5b906020019060200201818152505081806001019250505b8080600101915050610b49565b82935050505090565b6000600e82815481101515610bdd57fe5b90600052602060002090600302019050348160020160009054906101000a90046fffffffffffffffffffffffffffffffff166fffffffffffffffffffffffffffffffff16141515610c2d57600080fd5b600015158160020160109054906101000a900460ff161515141515610c5157600080fd5b8060000160009054906101000a900473ffffffffffffffffffffffffffffffffffffffff1673ffffffffffffffffffffffffffffffffffffffff166108fc349081150290604051600060405180830381858888f19350505050158015610cbb573d6000803e3d6000fd5b50610cee8160000160009054906101000a900473ffffffffffffffffffffffffffffffffffffffff16826001015461274b565b60018160020160106101000a81548160ff021916908315150217905550610d216001600f5461283790919063ffffffff16565b600f81905550600060018260010154815481101515610d3c57fe5b906000526020600020906005020160040160006101000a81548160ff0219169083151502179055505050565b610d70613089565b826002600082815260200190815260200160002060009054906101000a900473ffffffffffffffffffffffffffffffffffffffff1673ffffffffffffffffffffffffffffffffffffffff163373ffffffffffffffffffffffffffffffffffffffff16141515610dde57600080fd5b610e03600185815481101515610df057fe5b9060005260206000209060050201612850565b1515610e0e57600080fd5b6080604051908101604052803373ffffffffffffffffffffffffffffffffffffffff168152602001858152602001846fffffffffffffffffffffffffffffffff168152602001600015158152509150600e829080600181540180825580915050906001820390600052602060002090600302016000909192909190915060008201518160000160006101000a81548173ffffffffffffffffffffffffffffffffffffffff021916908373ffffffffffffffffffffffffffffffffffffffff1602179055506020820151816001015560408201518160020160006101000a8154816fffffffffffffffffffffffffffffffff02191690836fffffffffffffffffffffffffffffffff16021790555060608201518160020160106101000a81548160ff02191690831515021790555050505060018085815481101515610f4e57fe5b906000526020600020906005020160040160006101000a81548160ff021916908315150217905550610fc96001600360003373ffffffffffffffffffffffffffffffffffffffff1673ffffffffffffffffffffffffffffffffffffffff1681526020019081526020016000205461283790919063ffffffff16565b600360003373ffffffffffffffffffffffffffffffffffffffff1673ffffffffffffffffffffffffffffffffffffffff168152602001908152602001600020819055506110226001600f5461286190919063ffffffff16565b600f8190555050505050565b606060008060006060600080871015151561104857600080fd5b6001805490508710151561105b57600080fd5b60018781548110151561106a57fe5b90600052602060002090600502019050806000018160010160009054906101000a900460ff168260010160019054906101000a900463ffffffff168360010160059054906101000a900463ffffffff1684600201848054600181600116156101000203166002900480601f0160208091040260200160405190810160405280929190818152602001828054600181600116156101000203166002900480156111535780601f1061112857610100808354040283529160200191611153565b820191906000526020600020905b81548152906001019060200180831161113657829003601f168201915b505050505094508360ff1693508263ffffffff1692508163ffffffff169150808054600181600116156101000203166002900480601f0160208091040260200160405190810160405280929190818152602001828054600181600116156101000203166002900480156112075780601f106111dc57610100808354040283529160200191611207565b820191906000526020600020905b8154815290600101906020018083116111ea57829003601f168201915b50505050509050955095509550955095505091939590929450565b6000600180549050905090565b606080600080600760008673ffffffffffffffffffffffffffffffffffffffff1673ffffffffffffffffffffffffffffffffffffffff168152602001908152602001600020546040519080825280602002602001820160405280156112a35781602001602082028038833980820191505090505b50925060009150600090505b6005805490508110156113cb578473ffffffffffffffffffffffffffffffffffffffff166006600083815260200190815260200160002060009054906101000a900473ffffffffffffffffffffffffffffffffffffffff1673ffffffffffffffffffffffffffffffffffffffff1614156113be576000151560058281548110151561133657fe5b906000526020600020906003020160020160009054906101000a900460ff16151514156113bd57600060058281548110151561136e57fe5b906000526020600020906003020160000160019054906101000a900460ff1660ff1611156113bc578083838151811015156113a557fe5b906020019060200201818152505081806001019250505b5b5b80806001019150506112af565b829350505050919050565b6000600c828154811015156113e757fe5b90600052602060002090600302019050348160020160009054906101000a90046fffffffffffffffffffffffffffffffff166fffffffffffffffffffffffffffffffff1614151561143757600080fd5b600015158160020160109054906101000a900460ff16151514151561145b57600080fd5b8060000160009054906101000a900473ffffffffffffffffffffffffffffffffffffffff1673ffffffffffffffffffffffffffffffffffffffff166108fc349081150290604051600060405180830381858888f193505050501580156114c5573d6000803e3d6000fd5b506114f88160000160009054906101000a900473ffffffffffffffffffffffffffffffffffffffff16826001015461287f565b60018160020160106101000a81548160ff02191690831515021790555061152b6001600d5461283790919063ffffffff16565b600d8190555060006005826001015481548110151561154657fe5b906000526020600020906003020160020160006101000a81548160ff0219169083151502179055505050565b60066020528060005260406000206000915054906101000a900473ffffffffffffffffffffffffffffffffffffffff1681565b826002600082815260200190815260200160002060009054906101000a900473ffffffffffffffffffffffffffffffffffffffff1673ffffffffffffffffffffffffffffffffffffffff163373ffffffffffffffffffffffffffffffffffffffff1614151561161357600080fd5b600a848160018281548110151561162657fe5b906000526020600020906005020160010160009054906101000a900460ff1660ff161015151561165557600080fd5b848460018881548110151561166657fe5b906000526020600020906005020160020191906116849291906130dc565b50505050505050565b6000809054906101000a900473ffffffffffffffffffffffffffffffffffffffff1681565b606080600080600360008673ffffffffffffffffffffffffffffffffffffffff1673ffffffffffffffffffffffffffffffffffffffff168152602001908152602001600020546040519080825280602002602001820160405280156117265781602001602082028038833980820191505090505b50925060009150600090505b600180549050811015611814578473ffffffffffffffffffffffffffffffffffffffff166002600083815260200190815260200160002060009054906101000a900473ffffffffffffffffffffffffffffffffffffffff1673ffffffffffffffffffffffffffffffffffffffff16141561180757600015156001828154811015156117b957fe5b906000526020600020906005020160040160009054906101000a900460ff1615151415611806578083838151811015156117ef57fe5b906020019060200201818152505081806001019250505b5b8080600101915050611732565b829350505050919050565b60008060008061182d61315c565b6000861015151561183d57600080fd5b600c805490508610151561185057600080fd5b600c8681548110151561185f57fe5b9060005260206000209060030201608060405190810160405290816000820160009054906101000a900473ffffffffffffffffffffffffffffffffffffffff1673ffffffffffffffffffffffffffffffffffffffff1673ffffffffffffffffffffffffffffffffffffffff168152602001600182015481526020016002820160009054906101000a90046fffffffffffffffffffffffffffffffff166fffffffffffffffffffffffffffffffff166fffffffffffffffffffffffffffffffff1681526020016002820160109054906101000a900460ff16151515158152505090508060000151816020015182604001518360600151816fffffffffffffffffffffffffffffffff1691509450945094509450509193509193565b600060058281548110151561198a57fe5b906000526020600020906003020160000160019054906101000a900460ff1660ff161415156119b857600080fd5b600580828154811015156119c857fe5b906000526020600020906003020160000160016101000a81548160ff021916908360ff16021790555050565b826002600082815260200190815260200160002060009054906101000a900473ffffffffffffffffffffffffffffffffffffffff1673ffffffffffffffffffffffffffffffffffffffff163373ffffffffffffffffffffffffffffffffffffffff16141515611a6257600080fd5b60028481600182815481101515611a7557fe5b906000526020600020906005020160010160009054906101000a900460ff1660ff1610151515611aa457600080fd5b8484600188815481101515611ab557fe5b90600052602060002090600502016000019190611ad39291906130dc565b50505050505050565b6000611ae66131af565b6000611b10600460009054906101000a900463ffffffff168560ff1661296b90919063ffffffff16565b925060e0604051908101604052808681526020018560ff168152602001600063ffffffff1681526020018463ffffffff1681526020016040805190810160405280600a81526020017f416476656e747572657200000000000000000000000000000000000000000000815250815260200142815260200160001515815250915060018083908060018154018082558091505090600182039060005260206000209060050201600090919290919091506000820151816000019080519060200190611bdb9291906131fe565b5060208201518160010160006101000a81548160ff021916908360ff16021790555060408201518160010160016101000a81548163ffffffff021916908363ffffffff16021790555060608201518160010160056101000a81548163ffffffff021916908363ffffffff1602179055506080820151816002019080519060200190611c679291906131fe565b5060a0820151816003015560c08201518160040160006101000a81548160ff0219169083151502179055505050039050336002600083815260200190815260200160002060006101000a81548173ffffffffffffffffffffffffffffffffffffffff021916908373ffffffffffffffffffffffffffffffffffffffff160217905550611d3c6001600360003373ffffffffffffffffffffffffffffffffffffffff1673ffffffffffffffffffffffffffffffffffffffff1681526020019081526020016000205461286190919063ffffffff16565b600360003373ffffffffffffffffffffffffffffffffffffffff1673ffffffffffffffffffffffffffffffffffffffff16815260200190815260200160002081905550846040518082805190602001908083835b602083101515611db55780518252602082019150602081019050602083039250611d90565b6001836020036101000a0380198251168184511680821785525050505050509050019150506040518091039020817fdd7528f86d7595165cc235f18bdd47a562f826a3fda4d76bc88df64136bca3b160405160405180910390a35050505050565b600080836002600082815260200190815260200160002060009054906101000a900473ffffffffffffffffffffffffffffffffffffffff1673ffffffffffffffffffffffffffffffffffffffff163373ffffffffffffffffffffffffffffffffffffffff16141515611e8757600080fd5b600185815481101515611e9657fe5b90600052602060002090600502019250600584815481101515611eb557fe5b90600052602060002090600302019150611ece83612850565b1515611ed957600080fd5b60018260000160019054906101000a900460ff1660ff1610151515611efd57600080fd5b81600001600181819054906101000a900460ff16809291906001900391906101000a81548160ff021916908360ff1602179055505060008260000160019054906101000a900460ff1660ff161415611fe657611fa26001600760003373ffffffffffffffffffffffffffffffffffffffff1673ffffffffffffffffffffffffffffffffffffffff1681526020019081526020016000205461283790919063ffffffff16565b600760003373ffffffffffffffffffffffffffffffffffffffff1673ffffffffffffffffffffffffffffffffffffffff168152602001908152602001600020819055505b6008548360010160009054906101000a900460ff1660ff1610156120885761200e83836129c4565b5b8260010160059054906101000a900463ffffffff1663ffffffff168360010160019054906101000a900463ffffffff1663ffffffff161015156120875761205583612b1c565b847f2e7a68ae79b91a55a87ce42081bdb1b4333d3c3feff3c211ac1f9f32b62541d660405160405180910390a261200f565b5b61209460006064612c06565b600b81905550600a54600b541015156120c2576120c18260000160009054906101000a900460ff16612d2f565b5b6120cb83612dc8565b5050505050565b60026020528060005260406000206000915054906101000a900473ffffffffffffffffffffffffffffffffffffffff1681565b61210d61315c565b6006600084815260200190815260200160002060009054906101000a900473ffffffffffffffffffffffffffffffffffffffff1673ffffffffffffffffffffffffffffffffffffffff163373ffffffffffffffffffffffffffffffffffffffff1614151561217a57600080fd5b6000151560058481548110151561218d57fe5b906000526020600020906003020160020160009054906101000a900460ff1615151415156121ba57600080fd5b6080604051908101604052803373ffffffffffffffffffffffffffffffffffffffff168152602001848152602001836fffffffffffffffffffffffffffffffff168152602001600015158152509050600c819080600181540180825580915050906001820390600052602060002090600302016000909192909190915060008201518160000160006101000a81548173ffffffffffffffffffffffffffffffffffffffff021916908373ffffffffffffffffffffffffffffffffffffffff1602179055506020820151816001015560408201518160020160006101000a8154816fffffffffffffffffffffffffffffffff02191690836fffffffffffffffffffffffffffffffff16021790555060608201518160020160106101000a81548160ff02191690831515021790555050505060016005848154811015156122fb57fe5b906000526020600020906003020160020160006101000a81548160ff0219169083151502179055506123766001600760003373ffffffffffffffffffffffffffffffffffffffff1673ffffffffffffffffffffffffffffffffffffffff1681526020019081526020016000205461283790919063ffffffff16565b600760003373ffffffffffffffffffffffffffffffffffffffff1673ffffffffffffffffffffffffffffffffffffffff168152602001908152602001600020819055506123cf6001600d5461286190919063ffffffff16565b600d81905550505050565b6000806000806123e8613089565b600086101515156123f857600080fd5b600e805490508610151561240b57600080fd5b600e8681548110151561241a57fe5b9060005260206000209060030201608060405190810160405290816000820160009054906101000a900473ffffffffffffffffffffffffffffffffffffffff1673ffffffffffffffffffffffffffffffffffffffff1673ffffffffffffffffffffffffffffffffffffffff168152602001600182015481526020016002820160009054906101000a90046fffffffffffffffffffffffffffffffff166fffffffffffffffffffffffffffffffff166fffffffffffffffffffffffffffffffff1681526020016002820160109054906101000a900460ff16151515158152505090508060000151816020015182604001518360600151816fffffffffffffffffffffffffffffffff1691509450945094509450509193509193565b6000809054906101000a900473ffffffffffffffffffffffffffffffffffffffff1673ffffffffffffffffffffffffffffffffffffffff163373ffffffffffffffffffffffffffffffffffffffff1614151561258f57600080fd5b600073ffffffffffffffffffffffffffffffffffffffff168173ffffffffffffffffffffffffffffffffffffffff16141515156125cb57600080fd5b8073ffffffffffffffffffffffffffffffffffffffff166000809054906101000a900473ffffffffffffffffffffffffffffffffffffffff1673ffffffffffffffffffffffffffffffffffffffff167f8be0079c531659141344cd1fd0a4f28419497f9722a3daafe3b4186f6b6457e060405160405180910390a3806000806101000a81548173ffffffffffffffffffffffffffffffffffffffff021916908373ffffffffffffffffffffffffffffffffffffffff16021790555050565b606080600080600f546040519080825280602002602001820160405280156126c05781602001602082028038833980820191505090505b509250600090505b600e805490508110156127425760001515600e828154811015156126e857fe5b906000526020600020906003020160020160109054906101000a900460ff16151514156127355780838381518110151561271e57fe5b906020019060200201818152505081806001019250505b80806001019150506126c8565b82935050505090565b61279e6001600360003373ffffffffffffffffffffffffffffffffffffffff1673ffffffffffffffffffffffffffffffffffffffff1681526020019081526020016000205461286190919063ffffffff16565b600360003373ffffffffffffffffffffffffffffffffffffffff1673ffffffffffffffffffffffffffffffffffffffff16815260200190815260200160002081905550336002600083815260200190815260200160002060006101000a81548173ffffffffffffffffffffffffffffffffffffffff021916908373ffffffffffffffffffffffffffffffffffffffff1602179055505050565b600082821115151561284557fe5b818303905092915050565b600042826003015411159050919050565b600080828401905083811015151561287557fe5b8091505092915050565b6128d26001600760003373ffffffffffffffffffffffffffffffffffffffff1673ffffffffffffffffffffffffffffffffffffffff1681526020019081526020016000205461286190919063ffffffff16565b600760003373ffffffffffffffffffffffffffffffffffffffff1673ffffffffffffffffffffffffffffffffffffffff16815260200190815260200160002081905550336006600083815260200190815260200160002060006101000a81548173ffffffffffffffffffffffffffffffffffffffff021916908373ffffffffffffffffffffffffffffffffffffffff1602179055505050565b60008060008463ffffffff16141561298657600091506129bd565b82840290508263ffffffff168463ffffffff168263ffffffff168115156129a957fe5b0463ffffffff161415156129b957fe5b8091505b5092915050565b60018160000160009054906101000a900460ff1660ff161415612a3657612a0f604b8360010160019054906101000a900463ffffffff1663ffffffff16612dd890919063ffffffff16565b8260010160016101000a81548163ffffffff021916908363ffffffff160217905550612b18565b60028160000160009054906101000a900460ff1660ff161415612aa857612a8160968360010160019054906101000a900463ffffffff1663ffffffff16612dd890919063ffffffff16565b8260010160016101000a81548163ffffffff021916908363ffffffff160217905550612b17565b60038160000160009054906101000a900460ff1660ff161415612b1657612af360e18360010160019054906101000a900463ffffffff1663ffffffff16612dd890919063ffffffff16565b8260010160016101000a81548163ffffffff021916908363ffffffff1602179055505b5b5b5050565b80600101600081819054906101000a900460ff168092919060010191906101000a81548160ff021916908360ff16021790555050612b918160010160059054906101000a900463ffffffff168260010160019054906101000a900463ffffffff1663ffffffff16612e0290919063ffffffff16565b8160010160016101000a81548163ffffffff021916908363ffffffff160217905550612be160328260010160059054906101000a900463ffffffff1663ffffffff16612dd890919063ffffffff16565b8160010160056101000a81548163ffffffff021916908363ffffffff16021790555050565b6000806000808242600143034041444360405160200180876000191660001916815260200186815260200185600019166000191681526020018473ffffffffffffffffffffffffffffffffffffffff1673ffffffffffffffffffffffffffffffffffffffff166c0100000000000000000000000002815260140183815260200182815260200196505050505050506040516020818303038152906040526040518082805190602001908083835b602083101515612cd85780518252602082019150602081019050602083039250612cb3565b6001836020036101000a038019825116818451168082178552505050505050905001915050604051809103902092506001868603019150818360019004811515612d1e57fe5b068601905080935050505092915050565b60006032600b5410158015612d4757506050600b5411155b15612d9257600a82029050612d916040805190810160405280601381526020017f4e6577204b6e696768742041637175697265640000000000000000000000000081525082611adc565b5b6046600b5410158015612da857506064600b5411155b15612dc457612dc3612dbe60018460ff16612c06565b612e27565b5b5050565b6009544201816003018190555050565b60008082840190508363ffffffff168163ffffffff1610151515612df857fe5b8091505092915050565b60008263ffffffff168263ffffffff1611151515612e1c57fe5b818303905092915050565b612e2f61327e565b60006080604051908101604052808460ff168152602001600560ff168152602001606060405190810160405280602481526020017f526571756972656420746f20616363657373207468652064756e67656f6e206781526020017f6174652e00000000000000000000000000000000000000000000000000000000815250815260200160001515815250915060016005839080600181540180825580915050906001820390600052602060002090600302016000909192909190915060008201518160000160006101000a81548160ff021916908360ff16021790555060208201518160000160016101000a81548160ff021916908360ff1602179055506040820151816001019080519060200190612f499291906131fe565b5060608201518160020160006101000a81548160ff0219169083151502179055505050039050336006600083815260200190815260200160002060006101000a81548173ffffffffffffffffffffffffffffffffffffffff021916908373ffffffffffffffffffffffffffffffffffffffff1602179055506130146001600760003373ffffffffffffffffffffffffffffffffffffffff1673ffffffffffffffffffffffffffffffffffffffff1681526020019081526020016000205461286190919063ffffffff16565b600760003373ffffffffffffffffffffffffffffffffffffffff1673ffffffffffffffffffffffffffffffffffffffff16815260200190815260200160002081905550807f44ff5a1d96b658d6e6d1368850d7b60d71011fd0d12f5ff7a448ee083f7a648e60405160405180910390a2505050565b608060405190810160405280600073ffffffffffffffffffffffffffffffffffffffff1681526020016000815260200160006fffffffffffffffffffffffffffffffff1681526020016000151581525090565b828054600181600116156101000203166002900490600052602060002090601f016020900481019282601f1061311d57803560ff191683800117855561314b565b8280016001018555821561314b579182015b8281111561314a57823582559160200191906001019061312f565b5b50905061315891906132af565b5090565b608060405190810160405280600073ffffffffffffffffffffffffffffffffffffffff1681526020016000815260200160006fffffffffffffffffffffffffffffffff1681526020016000151581525090565b60e06040519081016040528060608152602001600060ff168152602001600063ffffffff168152602001600063ffffffff16815260200160608152602001600081526020016000151581525090565b828054600181600116156101000203166002900490600052602060002090601f016020900481019282601f1061323f57805160ff191683800117855561326d565b8280016001018555821561326d579182015b8281111561326c578251825591602001919060010190613251565b5b50905061327a91906132af565b5090565b608060405190810160405280600060ff168152602001600060ff168152602001606081526020016000151581525090565b6132d191905b808211156132cd5760008160009055506001016132b5565b5090565b905600a165627a7a72305820711b10c79bf13cb4d1a3eac8c25270b2b0b053790197b97480519e1c8f5b4ef20029",
  "source": "pragma solidity ^0.4.24;\r\n\r\nimport \"./TicketMarket.sol\";\r\n\r\ncontract KnightMarket is TicketMarket {\r\n\r\n    struct MarketKnight {\r\n        address Seller;\r\n        uint256 KnightId;\r\n        uint128 Price;\r\n        bool isSold;\r\n    }\r\n\r\n    MarketKnight[] marketKnights;\r\n    uint totalKnightsInMarket = 0;\r\n    \r\n    function sellKnight(uint _knightId, uint128 _price) onlyOwnerOf(_knightId) public {\r\n        require(_isReady(knights[_knightId]));\r\n        MarketKnight memory market = MarketKnight({\r\n            Seller: msg.sender,\r\n            KnightId: _knightId,\r\n            Price: _price,\r\n            isSold: false\r\n        });\r\n        marketKnights.push(market);\r\n        knights[_knightId].isInMarket = true;\r\n        //reduce owner knight count by 1 so when function getKnightsByOwner call, it will return the new int array of index\r\n        ownerKnightCount[msg.sender] = ownerKnightCount[msg.sender].sub(1);\r\n        totalKnightsInMarket = totalKnightsInMarket.add(1);\r\n    }\r\n    \r\n    function buyKnight(uint _marketId) public payable {\r\n        MarketKnight storage marketKnight = marketKnights[_marketId];\r\n        require(marketKnight.Price == msg.value);\r\n        require(marketKnight.isSold == false);\r\n        marketKnight.Seller.transfer(msg.value);\r\n        _transferKnightToBuyer(marketKnight.Seller, marketKnight.KnightId);\r\n        //mark sold knight\r\n        marketKnight.isSold = true;\r\n        //subtract totalKnightsInMarket by 1\r\n        totalKnightsInMarket = totalKnightsInMarket.sub(1);\r\n        //set knight isInMarket to false so it can be sell again in the market\r\n        knights[marketKnight.KnightId].isInMarket = false;\r\n    }\r\n    \r\n    function _transferKnightToBuyer(address _to, uint _knightId) private {\r\n        ownerKnightCount[msg.sender] = ownerKnightCount[msg.sender].add(1);\r\n        knightIndexToOwner[_knightId] = msg.sender;\r\n    }\r\n    \r\n    function getMarketKnights() public view returns(uint[]) {\r\n        uint[] memory result = new uint[](totalKnightsInMarket);\r\n        uint counter;\r\n        for (uint i = 0; i < marketKnights.length; i++) {\r\n            if (marketKnights[i].isSold == false) {\r\n                result[counter] = i;\r\n                counter++;\r\n            }\r\n        }\r\n        return result;\r\n    }\r\n    \r\n    function getMarketKnightDetails(uint _marketId) public view returns(address, uint, uint, bool) {\r\n        require(_marketId >= 0);\r\n        require(_marketId < marketKnights.length);\r\n        MarketKnight memory marketKnight = marketKnights[_marketId];\r\n        return (marketKnight.Seller, marketKnight.KnightId, marketKnight.Price, marketKnight.isSold);\r\n    }\r\n}",
  "sourcePath": "C:\\Users\\arj\\Desktop\\Blockchain Project\\Dapp\\KryptoKnight-v2\\KryptoKnight\\contracts\\KnightMarket.sol",
  "compiler": {
    "name": "solc",
    "version": "0.4.24+commit.e67f0147.Emscripten.clang"
  },
  "schemaVersion": "2.0.1",
  "updatedAt": "2018-09-28T20:45:58.566Z"
}