{
  "contractName": "KnightHelper",
  "abi": [
    {
      "constant": true,
      "inputs": [
        {
          "name": "",
          "type": "uint256"
        }
      ],
      "name": "ticketIndexToOwner",
      "outputs": [
        {
          "name": "",
          "type": "address"
        }
      ],
      "payable": false,
      "stateMutability": "view",
      "type": "function"
    },
    {
      "constant": true,
      "inputs": [],
      "name": "owner",
      "outputs": [
        {
          "name": "",
          "type": "address"
        }
      ],
      "payable": false,
      "stateMutability": "view",
      "type": "function"
    },
    {
      "constant": true,
      "inputs": [
        {
          "name": "",
          "type": "uint256"
        }
      ],
      "name": "knightIndexToOwner",
      "outputs": [
        {
          "name": "",
          "type": "address"
        }
      ],
      "payable": false,
      "stateMutability": "view",
      "type": "function"
    },
    {
      "constant": false,
      "inputs": [
        {
          "name": "newOwner",
          "type": "address"
        }
      ],
      "name": "transferOwnership",
      "outputs": [],
      "payable": false,
      "stateMutability": "nonpayable",
      "type": "function"
    },
    {
      "anonymous": false,
      "inputs": [
        {
          "indexed": true,
          "name": "ticketId",
          "type": "uint256"
        }
      ],
      "name": "NewTicket",
      "type": "event"
    },
    {
      "anonymous": false,
      "inputs": [
        {
          "indexed": true,
          "name": "knightId",
          "type": "uint256"
        },
        {
          "indexed": true,
          "name": "name",
          "type": "string"
        }
      ],
      "name": "NewKnight",
      "type": "event"
    },
    {
      "anonymous": false,
      "inputs": [
        {
          "indexed": true,
          "name": "previousOwner",
          "type": "address"
        },
        {
          "indexed": true,
          "name": "newOwner",
          "type": "address"
        }
      ],
      "name": "OwnershipTransferred",
      "type": "event"
    },
    {
      "constant": false,
      "inputs": [
        {
          "name": "_knightId",
          "type": "uint256"
        },
        {
          "name": "_newName",
          "type": "string"
        }
      ],
      "name": "changeName",
      "outputs": [],
      "payable": false,
      "stateMutability": "nonpayable",
      "type": "function"
    },
    {
      "constant": false,
      "inputs": [
        {
          "name": "_knightId",
          "type": "uint256"
        },
        {
          "name": "_newTitle",
          "type": "string"
        }
      ],
      "name": "changeTitle",
      "outputs": [],
      "payable": false,
      "stateMutability": "nonpayable",
      "type": "function"
    },
    {
      "constant": false,
      "inputs": [
        {
          "name": "_ticketId",
          "type": "uint256"
        }
      ],
      "name": "refreshTicketUseLimit",
      "outputs": [],
      "payable": true,
      "stateMutability": "payable",
      "type": "function"
    },
    {
      "constant": true,
      "inputs": [
        {
          "name": "_index",
          "type": "uint256"
        }
      ],
      "name": "getKnightDetails",
      "outputs": [
        {
          "name": "",
          "type": "string"
        },
        {
          "name": "",
          "type": "uint256"
        },
        {
          "name": "",
          "type": "uint256"
        },
        {
          "name": "",
          "type": "uint256"
        },
        {
          "name": "",
          "type": "string"
        }
      ],
      "payable": false,
      "stateMutability": "view",
      "type": "function"
    },
    {
      "constant": true,
      "inputs": [
        {
          "name": "_owner",
          "type": "address"
        }
      ],
      "name": "getKnightsByOwner",
      "outputs": [
        {
          "name": "",
          "type": "uint256[]"
        }
      ],
      "payable": false,
      "stateMutability": "view",
      "type": "function"
    },
    {
      "constant": true,
      "inputs": [
        {
          "name": "_index",
          "type": "uint256"
        }
      ],
      "name": "getTicketDetails",
      "outputs": [
        {
          "name": "",
          "type": "uint256"
        },
        {
          "name": "",
          "type": "uint256"
        },
        {
          "name": "",
          "type": "string"
        }
      ],
      "payable": false,
      "stateMutability": "view",
      "type": "function"
    },
    {
      "constant": true,
      "inputs": [
        {
          "name": "_owner",
          "type": "address"
        }
      ],
      "name": "getTicketsByOwner",
      "outputs": [
        {
          "name": "",
          "type": "uint256[]"
        }
      ],
      "payable": false,
      "stateMutability": "view",
      "type": "function"
    }
  ],
  "bytecode": "0x60806040526032600460006101000a81548163ffffffff021916908363ffffffff160217905550336000806101000a81548173ffffffffffffffffffffffffffffffffffffffff021916908373ffffffffffffffffffffffffffffffffffffffff160217905550620000b76040805190810160405280600781526020017f47656e657369730000000000000000000000000000000000000000000000000081525060fa62000385640100000000026401000000009004565b620001086040805190810160405280600981526020017f416e6f7468657220310000000000000000000000000000000000000000000000815250600162000385640100000000026401000000009004565b620001596040805190810160405280600681526020017f5465737420330000000000000000000000000000000000000000000000000000815250600162000385640100000000026401000000009004565b620001aa6040805190810160405280600681526020017f5465737420340000000000000000000000000000000000000000000000000000815250600162000385640100000000026401000000009004565b620001fb6040805190810160405280600681526020017f5465737420350000000000000000000000000000000000000000000000000000815250600162000385640100000000026401000000009004565b6200024c6040805190810160405280600181526020017f3600000000000000000000000000000000000000000000000000000000000000815250600162000385640100000000026401000000009004565b6200029d6040805190810160405280600981526020017f416e6f7468657220370000000000000000000000000000000000000000000000815250600162000385640100000000026401000000009004565b620002ee6040805190810160405280600181526020017f3800000000000000000000000000000000000000000000000000000000000000815250600162000385640100000000026401000000009004565b336000806101000a81548173ffffffffffffffffffffffffffffffffffffffff021916908373ffffffffffffffffffffffffffffffffffffffff160217905550620003496001620006be640100000000026401000000009004565b620003646002620006be640100000000026401000000009004565b6200037f6003620006be640100000000026401000000009004565b62000aa4565b60006200039162000987565b6000620003cb600460009054906101000a900463ffffffff168560ff166200090b6401000000000262001009179091906401000000009004565b925060c0604051908101604052808681526020018560ff168152602001600063ffffffff1681526020018463ffffffff1681526020016040805190810160405280600a81526020017f416476656e7475726572000000000000000000000000000000000000000000008152508152602001428152509150600180839080600181540180825580915050906001820390600052602060002090600402016000909192909190915060008201518160000190805190602001906200048f929190620009cd565b5060208201518160010160006101000a81548160ff021916908360ff16021790555060408201518160010160016101000a81548163ffffffff021916908363ffffffff16021790555060608201518160010160056101000a81548163ffffffff021916908363ffffffff16021790555060808201518160020190805190602001906200051d929190620009cd565b5060a082015181600301555050039050336002600083815260200190815260200160002060006101000a81548173ffffffffffffffffffffffffffffffffffffffff021916908373ffffffffffffffffffffffffffffffffffffffff160217905550620005e26001600360003373ffffffffffffffffffffffffffffffffffffffff1673ffffffffffffffffffffffffffffffffffffffff16815260200190815260200160002054620009686401000000000262001062179091906401000000009004565b600360003373ffffffffffffffffffffffffffffffffffffffff1673ffffffffffffffffffffffffffffffffffffffff16815260200190815260200160002081905550846040518082805190602001908083835b6020831015156200065d578051825260208201915060208101905060208303925062000636565b6001836020036101000a0380198251168184511680821785525050505050509050019150506040518091039020817fdd7528f86d7595165cc235f18bdd47a562f826a3fda4d76bc88df64136bca3b160405160405180910390a35050505050565b620006c862000a54565b60006060604051908101604052808460ff168152602001600560ff168152602001606060405190810160405280602481526020017f526571756972656420746f20616363657373207468652064756e67656f6e206781526020017f6174652e00000000000000000000000000000000000000000000000000000000815250815250915060016005839080600181540180825580915050906001820390600052602060002090600202016000909192909190915060008201518160000160006101000a81548160ff021916908360ff16021790555060208201518160000160016101000a81548160ff021916908360ff1602179055506040820151816001019080519060200190620007db929190620009cd565b505050039050336006600083815260200190815260200160002060006101000a81548173ffffffffffffffffffffffffffffffffffffffff021916908373ffffffffffffffffffffffffffffffffffffffff160217905550620008966001600760003373ffffffffffffffffffffffffffffffffffffffff1673ffffffffffffffffffffffffffffffffffffffff16815260200190815260200160002054620009686401000000000262001062179091906401000000009004565b600760003373ffffffffffffffffffffffffffffffffffffffff1673ffffffffffffffffffffffffffffffffffffffff16815260200190815260200160002081905550807f44ff5a1d96b658d6e6d1368850d7b60d71011fd0d12f5ff7a448ee083f7a648e60405160405180910390a2505050565b60008060008463ffffffff16141562000928576000915062000961565b82840290508263ffffffff168463ffffffff168263ffffffff168115156200094c57fe5b0463ffffffff161415156200095d57fe5b8091505b5092915050565b60008082840190508381101515156200097d57fe5b8091505092915050565b60c06040519081016040528060608152602001600060ff168152602001600063ffffffff168152602001600063ffffffff16815260200160608152602001600081525090565b828054600181600116156101000203166002900490600052602060002090601f016020900481019282601f1062000a1057805160ff191683800117855562000a41565b8280016001018555821562000a41579182015b8281111562000a4057825182559160200191906001019062000a23565b5b50905062000a50919062000a7c565b5090565b606060405190810160405280600060ff168152602001600060ff168152602001606081525090565b62000aa191905b8082111562000a9d57600081600090555060010162000a83565b5090565b90565b6110ac8062000ab46000396000f3006080604052600436106100af576000357c0100000000000000000000000000000000000000000000000000000000900463ffffffff16806324c14160146100b45780635a38b3f11461016857806367aa23e21461028f57806380310ea5146103275780638ac85869146103945780638da5cb5b146103d9578063936fe67514610430578063ac001b92146104c8578063c39cbef1146104e8578063d24d48fa1461052d578063f2fde38b1461059a575b600080fd5b3480156100c057600080fd5b506100df600480360381019080803590602001909291905050506105dd565b6040518084815260200183815260200180602001828103825283818151815260200191508051906020019080838360005b8381101561012b578082015181840152602081019050610110565b50505050905090810190601f1680156101585780820380516001836020036101000a031916815260200191505b5094505050505060405180910390f35b34801561017457600080fd5b50610193600480360381019080803590602001909291905050506106e1565b604051808060200186815260200185815260200184815260200180602001838103835288818151815260200191508051906020019080838360005b838110156101e95780820151818401526020810190506101ce565b50505050905090810190601f1680156102165780820380516001836020036101000a031916815260200191505b50838103825284818151815260200191508051906020019080838360005b8381101561024f578082015181840152602081019050610234565b50505050905090810190601f16801561027c5780820380516001836020036101000a031916815260200191505b5097505050505050505060405180910390f35b34801561029b57600080fd5b506102d0600480360381019080803573ffffffffffffffffffffffffffffffffffffffff1690602001909291905050506108d5565b6040518080602001828103825283818151815260200191508051906020019060200280838360005b838110156103135780820151818401526020810190506102f8565b505050509050019250505060405180910390f35b34801561033357600080fd5b5061035260048036038101908080359060200190929190505050610a07565b604051808273ffffffffffffffffffffffffffffffffffffffff1673ffffffffffffffffffffffffffffffffffffffff16815260200191505060405180910390f35b3480156103a057600080fd5b506103d760048036038101908080359060200190929190803590602001908201803590602001919091929391929390505050610a3a565b005b3480156103e557600080fd5b506103ee610b22565b604051808273ffffffffffffffffffffffffffffffffffffffff1673ffffffffffffffffffffffffffffffffffffffff16815260200191505060405180910390f35b34801561043c57600080fd5b50610471600480360381019080803573ffffffffffffffffffffffffffffffffffffffff169060200190929190505050610b47565b6040518080602001828103825283818151815260200191508051906020019060200280838360005b838110156104b4578082015181840152602081019050610499565b505050509050019250505060405180910390f35b6104e660048036038101908080359060200190929190505050610c79565b005b3480156104f457600080fd5b5061052b60048036038101908080359060200190929190803590602001908201803590602001919091929391929390505050610cf4565b005b34801561053957600080fd5b5061055860048036038101908080359060200190929190505050610ddc565b604051808273ffffffffffffffffffffffffffffffffffffffff1673ffffffffffffffffffffffffffffffffffffffff16815260200191505060405180910390f35b3480156105a657600080fd5b506105db600480360381019080803573ffffffffffffffffffffffffffffffffffffffff169060200190929190505050610e0f565b005b600080606060006005858154811015156105f357fe5b906000526020600020906002020190508060000160009054906101000a900460ff168160000160019054906101000a900460ff16826001018260ff1692508160ff169150808054600181600116156101000203166002900480601f0160208091040260200160405190810160405280929190818152602001828054600181600116156101000203166002900480156106cc5780601f106106a1576101008083540402835291602001916106cc565b820191906000526020600020905b8154815290600101906020018083116106af57829003601f168201915b50505050509050935093509350509193909250565b60606000806000606060008087101515156106fb57600080fd5b6001805490508710151561070e57600080fd5b60018781548110151561071d57fe5b90600052602060002090600402019050806000018160010160009054906101000a900460ff168260010160019054906101000a900463ffffffff168360010160059054906101000a900463ffffffff1684600201848054600181600116156101000203166002900480601f0160208091040260200160405190810160405280929190818152602001828054600181600116156101000203166002900480156108065780601f106107db57610100808354040283529160200191610806565b820191906000526020600020905b8154815290600101906020018083116107e957829003601f168201915b505050505094508360ff1693508263ffffffff1692508163ffffffff169150808054600181600116156101000203166002900480601f0160208091040260200160405190810160405280929190818152602001828054600181600116156101000203166002900480156108ba5780601f1061088f576101008083540402835291602001916108ba565b820191906000526020600020905b81548152906001019060200180831161089d57829003601f168201915b50505050509050955095509550955095505091939590929450565b606080600080600760008673ffffffffffffffffffffffffffffffffffffffff1673ffffffffffffffffffffffffffffffffffffffff168152602001908152602001600020546040519080825280602002602001820160405280156109495781602001602082028038833980820191505090505b50925060009150600090505b6005805490508110156109fc578473ffffffffffffffffffffffffffffffffffffffff166006600083815260200190815260200160002060009054906101000a900473ffffffffffffffffffffffffffffffffffffffff1673ffffffffffffffffffffffffffffffffffffffff1614156109ef578083838151811015156109d857fe5b906020019060200201818152505081806001019250505b8080600101915050610955565b829350505050919050565b60066020528060005260406000206000915054906101000a900473ffffffffffffffffffffffffffffffffffffffff1681565b826002600082815260200190815260200160002060009054906101000a900473ffffffffffffffffffffffffffffffffffffffff1673ffffffffffffffffffffffffffffffffffffffff163373ffffffffffffffffffffffffffffffffffffffff16141515610aa857600080fd5b600a8481600182815481101515610abb57fe5b906000526020600020906004020160010160009054906101000a900460ff1660ff1610151515610aea57600080fd5b8484600188815481101515610afb57fe5b90600052602060002090600402016002019190610b19929190610f64565b50505050505050565b6000809054906101000a900473ffffffffffffffffffffffffffffffffffffffff1681565b606080600080600360008673ffffffffffffffffffffffffffffffffffffffff1673ffffffffffffffffffffffffffffffffffffffff16815260200190815260200160002054604051908082528060200260200182016040528015610bbb5781602001602082028038833980820191505090505b50925060009150600090505b600180549050811015610c6e578473ffffffffffffffffffffffffffffffffffffffff166002600083815260200190815260200160002060009054906101000a900473ffffffffffffffffffffffffffffffffffffffff1673ffffffffffffffffffffffffffffffffffffffff161415610c6157808383815181101515610c4a57fe5b906020019060200201818152505081806001019250505b8080600101915050610bc7565b829350505050919050565b6000600582815481101515610c8a57fe5b906000526020600020906002020160000160019054906101000a900460ff1660ff16141515610cb857600080fd5b60058082815481101515610cc857fe5b906000526020600020906002020160000160016101000a81548160ff021916908360ff16021790555050565b826002600082815260200190815260200160002060009054906101000a900473ffffffffffffffffffffffffffffffffffffffff1673ffffffffffffffffffffffffffffffffffffffff163373ffffffffffffffffffffffffffffffffffffffff16141515610d6257600080fd5b60028481600182815481101515610d7557fe5b906000526020600020906004020160010160009054906101000a900460ff1660ff1610151515610da457600080fd5b8484600188815481101515610db557fe5b90600052602060002090600402016000019190610dd3929190610f64565b50505050505050565b60026020528060005260406000206000915054906101000a900473ffffffffffffffffffffffffffffffffffffffff1681565b6000809054906101000a900473ffffffffffffffffffffffffffffffffffffffff1673ffffffffffffffffffffffffffffffffffffffff163373ffffffffffffffffffffffffffffffffffffffff16141515610e6a57600080fd5b600073ffffffffffffffffffffffffffffffffffffffff168173ffffffffffffffffffffffffffffffffffffffff1614151515610ea657600080fd5b8073ffffffffffffffffffffffffffffffffffffffff166000809054906101000a900473ffffffffffffffffffffffffffffffffffffffff1673ffffffffffffffffffffffffffffffffffffffff167f8be0079c531659141344cd1fd0a4f28419497f9722a3daafe3b4186f6b6457e060405160405180910390a3806000806101000a81548173ffffffffffffffffffffffffffffffffffffffff021916908373ffffffffffffffffffffffffffffffffffffffff16021790555050565b828054600181600116156101000203166002900490600052602060002090601f016020900481019282601f10610fa557803560ff1916838001178555610fd3565b82800160010185558215610fd3579182015b82811115610fd2578235825591602001919060010190610fb7565b5b509050610fe09190610fe4565b5090565b61100691905b80821115611002576000816000905550600101610fea565b5090565b90565b60008060008463ffffffff161415611024576000915061105b565b82840290508263ffffffff168463ffffffff168263ffffffff1681151561104757fe5b0463ffffffff1614151561105757fe5b8091505b5092915050565b600080828401905083811015151561107657fe5b80915050929150505600a165627a7a723058202165eb8ea188dbba25cfa8a4dbad530f3740d1c87ee198c1866e9621463624f50029",
  "source": "pragma solidity ^0.4.24;\r\n\r\nimport \"./KnightCastle.sol\";\r\nimport \"./KnightTicket.sol\";\r\n\r\ncontract KnightHelper is KnightCastle, KnightTicket {\r\n    \r\n    //event KnightNameChange(uint indexed knightId, string indexed newName);\r\n    //event KnightTitleChange(uint indexed knightId, string indexed newTitle);\r\n    //event TicketRefresh(uint _ticketId);\r\n\r\n    modifier aboveLevel(uint _level, uint _knightId) {\r\n        require(knights[_knightId].Level >= _level);\r\n        _;\r\n    }\r\n    \r\n    modifier onlyOwnerOf(uint _knightId) {\r\n        require(msg.sender == knightIndexToOwner[_knightId]);\r\n        _;\r\n    }\r\n    \r\n    //knight level 2 or above can change Name\r\n    function changeName(uint _knightId, string _newName) external onlyOwnerOf(_knightId) aboveLevel(2, _knightId)  {\r\n        knights[_knightId].Name = _newName;\r\n        //emit KnightNameChange(_knightId, _newName);\r\n    }\r\n    \r\n    //knight level 10 or above can change Title\r\n    function changeTitle(uint _knightId, string _newTitle) external onlyOwnerOf(_knightId) aboveLevel(10, _knightId) {\r\n        knights[_knightId].Title = _newTitle;\r\n        //emit KnightTitleChange(_knightId, _newTitle);\r\n    }\r\n    \r\n    function refreshTicketUseLimit(uint _ticketId) external payable {\r\n        require(tickets[_ticketId].UseLimit == 0);\r\n        tickets[_ticketId].UseLimit = 5;\r\n        //emit TicketRefresh(_ticketId);\r\n    }\r\n    \r\n    function getKnightDetails(uint _index) external view returns(string, uint, uint, uint, string) {\r\n        require(_index >= 0);\r\n        require(_index < knights.length);        \r\n        Knight storage knight = knights[_index];\r\n        return (knight.Name, knight.Level, knight.CurrentExp, knight.ExpNeededForNextLevel, knight.Title);\r\n    }\r\n\r\n    //return array of uint of knightIndexToOwner\r\n    function getKnightsByOwner(address _owner) external view returns(uint[]) {\r\n        uint[] memory result = new uint[](ownerKnightCount[_owner]);\r\n        uint counter = 0;\r\n        for (uint i = 0; i < knights.length; i++) {\r\n            if (knightIndexToOwner[i] == _owner) {\r\n                result[counter] = i;\r\n                counter++;\r\n            }\r\n        }\r\n        return result;\r\n    }\r\n\r\n    function getTicketDetails(uint _index) external view returns(uint, uint, string) {\r\n        Ticket storage ticket = tickets[_index];\r\n        return (ticket.Gate, ticket.UseLimit, ticket.Description);\r\n    }\r\n\r\n    //return array of uint of ticketIndexToOwner\r\n    function getTicketsByOwner(address _owner) external view returns(uint[]) {\r\n        uint[] memory result = new uint[](ownerTicketCount[_owner]);\r\n        uint counter = 0;\r\n        for (uint i = 0; i < tickets.length; i++) {\r\n            if (ticketIndexToOwner[i] == _owner) {\r\n                result[counter] = i;\r\n                counter++;\r\n            }\r\n        }\r\n        return result;\r\n    }\r\n}",
  "sourcePath": "C:\\Users\\arj\\Desktop\\Blockchain Project\\Dapp\\KryptoKnight-v2\\KryptoKnight\\contracts\\KnightHelper.sol",
  "compiler": {
    "name": "solc",
    "version": "0.4.24+commit.e67f0147.Emscripten.clang"
  },
  "schemaVersion": "2.0.1",
  "updatedAt": "2018-09-27T09:33:49.290Z"
}