{
  "contractName": "KryptoKnight",
  "abi": [
    {
      "constant": true,
      "inputs": [
        {
          "name": "",
          "type": "address"
        }
      ],
      "name": "players",
      "outputs": [
        {
          "name": "Level",
          "type": "uint256"
        },
        {
          "name": "Experience",
          "type": "uint256"
        },
        {
          "name": "Border",
          "type": "string"
        }
      ],
      "payable": false,
      "stateMutability": "view",
      "type": "function"
    },
    {
      "constant": true,
      "inputs": [
        {
          "name": "",
          "type": "address"
        },
        {
          "name": "",
          "type": "uint256"
        }
      ],
      "name": "itemsOfPlayers",
      "outputs": [
        {
          "name": "Name",
          "type": "string"
        },
        {
          "name": "Quantity",
          "type": "uint256"
        }
      ],
      "payable": false,
      "stateMutability": "view",
      "type": "function"
    },
    {
      "inputs": [],
      "payable": false,
      "stateMutability": "nonpayable",
      "type": "constructor"
    },
    {
      "constant": false,
      "inputs": [
        {
          "name": "_addr",
          "type": "address"
        }
      ],
      "name": "addKnight",
      "outputs": [],
      "payable": false,
      "stateMutability": "nonpayable",
      "type": "function"
    },
    {
      "constant": false,
      "inputs": [],
      "name": "sellItem",
      "outputs": [],
      "payable": false,
      "stateMutability": "nonpayable",
      "type": "function"
    },
    {
      "constant": false,
      "inputs": [],
      "name": "buyItem",
      "outputs": [],
      "payable": false,
      "stateMutability": "nonpayable",
      "type": "function"
    }
  ],
  "bytecode": "0x608060405234801561001057600080fd5b5061003d73a05c526eae7859bb30070bdbaf03a03454e737a2610076640100000000026401000000009004565b61006973c2d9cfff963c16015ca495050870a88796fd2610610076640100000000026401000000009004565b6000600281905550610211565b61007e61014a565b60606040519081016040528060008152602001600081526020016040805190810160405280600681526020017f4e6f726d616c00000000000000000000000000000000000000000000000000008152508152509050806000808473ffffffffffffffffffffffffffffffffffffffff1673ffffffffffffffffffffffffffffffffffffffff1681526020019081526020016000206000820151816000015560208201518160010155604082015181600201908051906020019061014292919061016c565b509050505050565b6060604051908101604052806000815260200160008152602001606081525090565b828054600181600116156101000203166002900490600052602060002090601f016020900481019282601f106101ad57805160ff19168380011785556101db565b828001600101855582156101db579182015b828111156101da5782518255916020019190600101906101bf565b5b5090506101e891906101ec565b5090565b61020e91905b8082111561020a5760008160009055506001016101f2565b5090565b90565b6105df806102206000396000f30060806040526004361061006d576000357c0100000000000000000000000000000000000000000000000000000000900463ffffffff1680633f59544614610072578063795612d6146100b5578063e2eb41ff146100cc578063fd0c060d14610196578063fff58ee0146101ad575b600080fd5b34801561007e57600080fd5b506100b3600480360381019080803573ffffffffffffffffffffffffffffffffffffffff16906020019092919050505061027a565b005b3480156100c157600080fd5b506100ca61034e565b005b3480156100d857600080fd5b5061010d600480360381019080803573ffffffffffffffffffffffffffffffffffffffff169060200190929190505050610350565b6040518084815260200183815260200180602001828103825283818151815260200191508051906020019080838360005b8381101561015957808201518184015260208101905061013e565b50505050905090810190601f1680156101865780820380516001836020036101000a031916815260200191505b5094505050505060405180910390f35b3480156101a257600080fd5b506101ab610412565b005b3480156101b957600080fd5b506101f8600480360381019080803573ffffffffffffffffffffffffffffffffffffffff16906020019092919080359060200190929190505050610414565b6040518080602001838152602001828103825284818151815260200191508051906020019080838360005b8381101561023e578082015181840152602081019050610223565b50505050905090810190601f16801561026b5780820380516001836020036101000a031916815260200191505b50935050505060405180910390f35b6102826104ec565b60606040519081016040528060008152602001600081526020016040805190810160405280600681526020017f4e6f726d616c00000000000000000000000000000000000000000000000000008152508152509050806000808473ffffffffffffffffffffffffffffffffffffffff1673ffffffffffffffffffffffffffffffffffffffff1681526020019081526020016000206000820151816000015560208201518160010155604082015181600201908051906020019061034692919061050e565b509050505050565b565b6000602052806000526040600020600091509050806000015490806001015490806002018054600181600116156101000203166002900480601f0160208091040260200160405190810160405280929190818152602001828054600181600116156101000203166002900480156104085780601f106103dd57610100808354040283529160200191610408565b820191906000526020600020905b8154815290600101906020018083116103eb57829003601f168201915b5050505050905083565b565b60016020528160005260406000208181548110151561042f57fe5b906000526020600020906002020160009150915050806000018054600181600116156101000203166002900480601f0160208091040260200160405190810160405280929190818152602001828054600181600116156101000203166002900480156104dc5780601f106104b1576101008083540402835291602001916104dc565b820191906000526020600020905b8154815290600101906020018083116104bf57829003601f168201915b5050505050908060010154905082565b6060604051908101604052806000815260200160008152602001606081525090565b828054600181600116156101000203166002900490600052602060002090601f016020900481019282601f1061054f57805160ff191683800117855561057d565b8280016001018555821561057d579182015b8281111561057c578251825591602001919060010190610561565b5b50905061058a919061058e565b5090565b6105b091905b808211156105ac576000816000905550600101610594565b5090565b905600a165627a7a72305820e41a5cc3df09fca09f4b6f088cb7c272524125f8a32e4a370394851949d447e20029",
  "source": "pragma solidity ^0.4.24;\r\n\r\ncontract KryptoKnight {\r\n    \r\n    struct Knight {\r\n        uint Level;\r\n        uint Experience;\r\n        string Border;\r\n    }\r\n    \r\n    struct Item {\r\n        string Name;\r\n        uint Quantity;\r\n    }\r\n    \r\n    mapping(address => Knight) public players;\r\n    \r\n    mapping(address => Item[]) public itemsOfPlayers;\r\n    \r\n    uint totalKnightsInShop;\r\n    \r\n    constructor() public {\r\n        addKnight(0xa05c526eae7859bb30070bdbaf03a03454e737a2);\r\n        addKnight(0xc2d9cfff963c16015ca495050870a88796fd2610);\r\n        totalKnightsInShop = 0;\r\n    }\r\n    \r\n    function addKnight(address _addr) public {\r\n        Knight memory knight = Knight({\r\n           Level: 0,\r\n           Experience: 0,\r\n           Border: \"Normal\"\r\n        });\r\n        players[_addr] = knight;\r\n    }\r\n    \r\n    function sellItem() public {\r\n        \r\n    }\r\n    \r\n    function buyItem() public {\r\n        \r\n    }\r\n}",
  "sourcePath": "C:\\Users\\arj\\Desktop\\Dapp\\KryptoKnights\\contracts\\KryptoKnight.sol",
  "compiler": {
    "name": "solc",
    "version": "0.4.24+commit.e67f0147.Emscripten.clang"
  },
  "schemaVersion": "2.0.1",
  "updatedAt": "2018-09-11T12:04:03.956Z"
}