{
  "contractName": "TicketMarket",
  "abi": [
    {
      "constant": true,
      "inputs": [
        {
          "name": "_index",
          "type": "uint256"
        }
      ],
      "name": "getTicketDetails",
      "outputs": [
        {
          "name": "",
          "type": "uint256"
        },
        {
          "name": "",
          "type": "uint256"
        },
        {
          "name": "",
          "type": "string"
        }
      ],
      "payable": false,
      "stateMutability": "view",
      "type": "function"
    },
    {
      "constant": true,
      "inputs": [
        {
          "name": "_index",
          "type": "uint256"
        }
      ],
      "name": "getKnightDetails",
      "outputs": [
        {
          "name": "",
          "type": "string"
        },
        {
          "name": "",
          "type": "uint256"
        },
        {
          "name": "",
          "type": "uint256"
        },
        {
          "name": "",
          "type": "uint256"
        },
        {
          "name": "",
          "type": "string"
        }
      ],
      "payable": false,
      "stateMutability": "view",
      "type": "function"
    },
    {
      "constant": true,
      "inputs": [],
      "name": "knightsLength",
      "outputs": [
        {
          "name": "",
          "type": "uint256"
        }
      ],
      "payable": false,
      "stateMutability": "view",
      "type": "function"
    },
    {
      "constant": true,
      "inputs": [
        {
          "name": "_owner",
          "type": "address"
        }
      ],
      "name": "getTicketsByOwner",
      "outputs": [
        {
          "name": "",
          "type": "uint256[]"
        }
      ],
      "payable": false,
      "stateMutability": "view",
      "type": "function"
    },
    {
      "constant": true,
      "inputs": [
        {
          "name": "",
          "type": "uint256"
        }
      ],
      "name": "ticketIndexToOwner",
      "outputs": [
        {
          "name": "",
          "type": "address"
        }
      ],
      "payable": false,
      "stateMutability": "view",
      "type": "function"
    },
    {
      "constant": false,
      "inputs": [
        {
          "name": "_knightId",
          "type": "uint256"
        },
        {
          "name": "_newTitle",
          "type": "string"
        }
      ],
      "name": "changeTitle",
      "outputs": [],
      "payable": false,
      "stateMutability": "nonpayable",
      "type": "function"
    },
    {
      "constant": true,
      "inputs": [],
      "name": "owner",
      "outputs": [
        {
          "name": "",
          "type": "address"
        }
      ],
      "payable": false,
      "stateMutability": "view",
      "type": "function"
    },
    {
      "constant": true,
      "inputs": [
        {
          "name": "_owner",
          "type": "address"
        }
      ],
      "name": "getKnightsByOwner",
      "outputs": [
        {
          "name": "",
          "type": "uint256[]"
        }
      ],
      "payable": false,
      "stateMutability": "view",
      "type": "function"
    },
    {
      "constant": false,
      "inputs": [
        {
          "name": "_ticketId",
          "type": "uint256"
        }
      ],
      "name": "refreshTicketUseLimit",
      "outputs": [],
      "payable": true,
      "stateMutability": "payable",
      "type": "function"
    },
    {
      "constant": false,
      "inputs": [
        {
          "name": "_knightId",
          "type": "uint256"
        },
        {
          "name": "_newName",
          "type": "string"
        }
      ],
      "name": "changeName",
      "outputs": [],
      "payable": false,
      "stateMutability": "nonpayable",
      "type": "function"
    },
    {
      "constant": false,
      "inputs": [
        {
          "name": "_name",
          "type": "string"
        },
        {
          "name": "_level",
          "type": "uint8"
        }
      ],
      "name": "_createKnight",
      "outputs": [],
      "payable": false,
      "stateMutability": "nonpayable",
      "type": "function"
    },
    {
      "constant": false,
      "inputs": [
        {
          "name": "_knightId",
          "type": "uint256"
        },
        {
          "name": "_ticketId",
          "type": "uint256"
        }
      ],
      "name": "enterDungeon",
      "outputs": [],
      "payable": false,
      "stateMutability": "nonpayable",
      "type": "function"
    },
    {
      "constant": true,
      "inputs": [
        {
          "name": "",
          "type": "uint256"
        }
      ],
      "name": "knightIndexToOwner",
      "outputs": [
        {
          "name": "",
          "type": "address"
        }
      ],
      "payable": false,
      "stateMutability": "view",
      "type": "function"
    },
    {
      "constant": false,
      "inputs": [
        {
          "name": "newOwner",
          "type": "address"
        }
      ],
      "name": "transferOwnership",
      "outputs": [],
      "payable": false,
      "stateMutability": "nonpayable",
      "type": "function"
    },
    {
      "anonymous": false,
      "inputs": [
        {
          "indexed": true,
          "name": "knightId",
          "type": "uint256"
        }
      ],
      "name": "KnightLeveledUp",
      "type": "event"
    },
    {
      "anonymous": false,
      "inputs": [
        {
          "indexed": true,
          "name": "ticketId",
          "type": "uint256"
        }
      ],
      "name": "NewTicket",
      "type": "event"
    },
    {
      "anonymous": false,
      "inputs": [
        {
          "indexed": true,
          "name": "knightId",
          "type": "uint256"
        },
        {
          "indexed": true,
          "name": "name",
          "type": "string"
        }
      ],
      "name": "NewKnight",
      "type": "event"
    },
    {
      "anonymous": false,
      "inputs": [
        {
          "indexed": true,
          "name": "previousOwner",
          "type": "address"
        },
        {
          "indexed": true,
          "name": "newOwner",
          "type": "address"
        }
      ],
      "name": "OwnershipTransferred",
      "type": "event"
    },
    {
      "constant": false,
      "inputs": [
        {
          "name": "_ticketId",
          "type": "uint256"
        },
        {
          "name": "_price",
          "type": "uint128"
        }
      ],
      "name": "sellTicket",
      "outputs": [],
      "payable": false,
      "stateMutability": "nonpayable",
      "type": "function"
    },
    {
      "constant": false,
      "inputs": [
        {
          "name": "_marketId",
          "type": "uint256"
        }
      ],
      "name": "buyTicket",
      "outputs": [],
      "payable": true,
      "stateMutability": "payable",
      "type": "function"
    },
    {
      "constant": true,
      "inputs": [],
      "name": "getMarketTickets",
      "outputs": [
        {
          "name": "",
          "type": "uint256[]"
        }
      ],
      "payable": false,
      "stateMutability": "view",
      "type": "function"
    },
    {
      "constant": true,
      "inputs": [
        {
          "name": "_marketId",
          "type": "uint256"
        }
      ],
      "name": "getMarketTicketDetails",
      "outputs": [
        {
          "name": "",
          "type": "address"
        },
        {
          "name": "",
          "type": "uint256"
        },
        {
          "name": "",
          "type": "uint256"
        },
        {
          "name": "",
          "type": "bool"
        }
      ],
      "payable": false,
      "stateMutability": "view",
      "type": "function"
    }
  ],
  "bytecode": "0x60806040526032600460006101000a81548163ffffffff021916908363ffffffff16021790555060fa60085560016009556032600a556000600d55336000806101000a81548173ffffffffffffffffffffffffffffffffffffffff021916908373ffffffffffffffffffffffffffffffffffffffff160217905550620000cb6040805190810160405280600781526020017f47656e657369730000000000000000000000000000000000000000000000000081525060fa620001b3640100000000026401000000009004565b6200011c6040805190810160405280600681526020017f54657374203100000000000000000000000000000000000000000000000000008152506001620001b3640100000000026401000000009004565b336000806101000a81548173ffffffffffffffffffffffffffffffffffffffff021916908373ffffffffffffffffffffffffffffffffffffffff16021790555062000177600162000515640100000000026401000000009004565b62000192600262000515640100000000026401000000009004565b620001ad600362000515640100000000026401000000009004565b62000936565b6000620001bf62000807565b6000620001f9600460009054906101000a900463ffffffff168560ff166200078b640100000000026200204b179091906401000000009004565b925060e0604051908101604052808681526020018560ff168152602001600063ffffffff1681526020018463ffffffff1681526020016040805190810160405280600a81526020017f416476656e747572657200000000000000000000000000000000000000000000815250815260200142815260200160001515815250915060018083908060018154018082558091505090600182039060005260206000209060050201600090919290919091506000820151816000019080519060200190620002c692919062000856565b5060208201518160010160006101000a81548160ff021916908360ff16021790555060408201518160010160016101000a81548163ffffffff021916908363ffffffff16021790555060608201518160010160056101000a81548163ffffffff021916908363ffffffff16021790555060808201518160020190805190602001906200035492919062000856565b5060a0820151816003015560c08201518160040160006101000a81548160ff0219169083151502179055505050039050336002600083815260200190815260200160002060006101000a81548173ffffffffffffffffffffffffffffffffffffffff021916908373ffffffffffffffffffffffffffffffffffffffff160217905550620004396001600360003373ffffffffffffffffffffffffffffffffffffffff1673ffffffffffffffffffffffffffffffffffffffff16815260200190815260200160002054620007e864010000000002620020a4179091906401000000009004565b600360003373ffffffffffffffffffffffffffffffffffffffff1673ffffffffffffffffffffffffffffffffffffffff16815260200190815260200160002081905550846040518082805190602001908083835b602083101515620004b457805182526020820191506020810190506020830392506200048d565b6001836020036101000a0380198251168184511680821785525050505050509050019150506040518091039020817fdd7528f86d7595165cc235f18bdd47a562f826a3fda4d76bc88df64136bca3b160405160405180910390a35050505050565b6200051f620008dd565b60006080604051908101604052808460ff168152602001600560ff168152602001606060405190810160405280602481526020017f526571756972656420746f20616363657373207468652064756e67656f6e206781526020017f6174652e00000000000000000000000000000000000000000000000000000000815250815260200160001515815250915060016005839080600181540180825580915050906001820390600052602060002090600302016000909192909190915060008201518160000160006101000a81548160ff021916908360ff16021790555060208201518160000160016101000a81548160ff021916908360ff16021790555060408201518160010190805190602001906200063b92919062000856565b5060608201518160020160006101000a81548160ff0219169083151502179055505050039050336006600083815260200190815260200160002060006101000a81548173ffffffffffffffffffffffffffffffffffffffff021916908373ffffffffffffffffffffffffffffffffffffffff160217905550620007166001600760003373ffffffffffffffffffffffffffffffffffffffff1673ffffffffffffffffffffffffffffffffffffffff16815260200190815260200160002054620007e864010000000002620020a4179091906401000000009004565b600760003373ffffffffffffffffffffffffffffffffffffffff1673ffffffffffffffffffffffffffffffffffffffff16815260200190815260200160002081905550807f44ff5a1d96b658d6e6d1368850d7b60d71011fd0d12f5ff7a448ee083f7a648e60405160405180910390a2505050565b60008060008463ffffffff161415620007a85760009150620007e1565b82840290508263ffffffff168463ffffffff168263ffffffff16811515620007cc57fe5b0463ffffffff16141515620007dd57fe5b8091505b5092915050565b6000808284019050838110151515620007fd57fe5b8091505092915050565b60e06040519081016040528060608152602001600060ff168152602001600063ffffffff168152602001600063ffffffff16815260200160608152602001600081526020016000151581525090565b828054600181600116156101000203166002900490600052602060002090601f016020900481019282601f106200089957805160ff1916838001178555620008ca565b82800160010185558215620008ca579182015b82811115620008c9578251825591602001919060010190620008ac565b5b509050620008d991906200090e565b5090565b608060405190810160405280600060ff168152602001600060ff168152602001606081526020016000151581525090565b6200093391905b808211156200092f57600081600090555060010162000915565b5090565b90565b6129bc80620009466000396000f3006080604052600436106100fc576000357c0100000000000000000000000000000000000000000000000000000000900463ffffffff16806324c14160146101015780632b0e799c146101b55780635a38b3f1146102215780636313a9881461034857806367aa23e21461037357806367dd74ca1461040b57806380310ea51461042b5780638ac85869146104985780638da5cb5b146104dd578063936fe67514610534578063a6d5b584146105cc578063ac001b9214610652578063c39cbef114610672578063c74cf2f1146106b7578063ce3d644b1461072d578063d24d48fa14610764578063d5b7bf29146107d1578063f2fde38b1461081a575b600080fd5b34801561010d57600080fd5b5061012c6004803603810190808035906020019092919050505061085d565b6040518084815260200183815260200180602001828103825283818151815260200191508051906020019080838360005b8381101561017857808201518184015260208101905061015d565b50505050905090810190601f1680156101a55780820380516001836020036101000a031916815260200191505b5094505050505060405180910390f35b3480156101c157600080fd5b506101ca610983565b6040518080602001828103825283818151815260200191508051906020019060200280838360005b8381101561020d5780820151818401526020810190506101f2565b505050509050019250505060405180910390f35b34801561022d57600080fd5b5061024c60048036038101908080359060200190929190505050610a45565b604051808060200186815260200185815260200184815260200180602001838103835288818151815260200191508051906020019080838360005b838110156102a2578082015181840152602081019050610287565b50505050905090810190601f1680156102cf5780820380516001836020036101000a031916815260200191505b50838103825284818151815260200191508051906020019080838360005b838110156103085780820151818401526020810190506102ed565b50505050905090810190601f1680156103355780820380516001836020036101000a031916815260200191505b5097505050505050505060405180910390f35b34801561035457600080fd5b5061035d610c39565b6040518082815260200191505060405180910390f35b34801561037f57600080fd5b506103b4600480360381019080803573ffffffffffffffffffffffffffffffffffffffff169060200190929190505050610c46565b6040518080602001828103825283818151815260200191508051906020019060200280838360005b838110156103f75780820151818401526020810190506103dc565b505050509050019250505060405180910390f35b61042960048036038101908080359060200190929190505050610ded565b005b34801561043757600080fd5b5061045660048036038101908080359060200190929190505050610f89565b604051808273ffffffffffffffffffffffffffffffffffffffff1673ffffffffffffffffffffffffffffffffffffffff16815260200191505060405180910390f35b3480156104a457600080fd5b506104db60048036038101908080359060200190929190803590602001908201803590602001919091929391929390505050610fbc565b005b3480156104e957600080fd5b506104f26110a4565b604051808273ffffffffffffffffffffffffffffffffffffffff1673ffffffffffffffffffffffffffffffffffffffff16815260200191505060405180910390f35b34801561054057600080fd5b50610575600480360381019080803573ffffffffffffffffffffffffffffffffffffffff1690602001909291905050506110c9565b6040518080602001828103825283818151815260200191508051906020019060200280838360005b838110156105b857808201518184015260208101905061059d565b505050509050019250505060405180910390f35b3480156105d857600080fd5b506105f760048036038101908080359060200190929190505050611236565b604051808573ffffffffffffffffffffffffffffffffffffffff1673ffffffffffffffffffffffffffffffffffffffff1681526020018481526020018381526020018215151515815260200194505050505060405180910390f35b61067060048036038101908080359060200190929190505050611390565b005b34801561067e57600080fd5b506106b56004803603810190808035906020019092919080359060200190820180359060200191909192939192939050505061140b565b005b3480156106c357600080fd5b5061072b600480360381019080803590602001908201803590602001908080601f0160208091040260200160405190810160405280939291908181526020018383808284378201915050505050509192919290803560ff1690602001909291905050506114f3565b005b34801561073957600080fd5b50610762600480360381019080803590602001909291908035906020019092919050505061182d565b005b34801561077057600080fd5b5061078f60048036038101908080359060200190929190505050611ae9565b604051808273ffffffffffffffffffffffffffffffffffffffff1673ffffffffffffffffffffffffffffffffffffffff16815260200191505060405180910390f35b3480156107dd57600080fd5b506108186004803603810190808035906020019092919080356fffffffffffffffffffffffffffffffff169060200190929190505050611b1c565b005b34801561082657600080fd5b5061085b600480360381019080803573ffffffffffffffffffffffffffffffffffffffff169060200190929190505050611df1565b005b6000806060600080851015151561087357600080fd5b6005805490508510151561088657600080fd5b60058581548110151561089557fe5b906000526020600020906003020190508060000160009054906101000a900460ff168160000160019054906101000a900460ff16826001018260ff1692508160ff169150808054600181600116156101000203166002900480601f01602080910402602001604051908101604052809291908181526020018280546001816001161561010002031660029004801561096e5780601f106109435761010080835404028352916020019161096e565b820191906000526020600020905b81548152906001019060200180831161095157829003601f168201915b50505050509050935093509350509193909250565b606080600080600d546040519080825280602002602001820160405280156109ba5781602001602082028038833980820191505090505b509250600090505b600c80549050811015610a3c5760001515600c828154811015156109e257fe5b906000526020600020906003020160020160109054906101000a900460ff1615151415610a2f57808383815181101515610a1857fe5b906020019060200201818152505081806001019250505b80806001019150506109c2565b82935050505090565b6060600080600060606000808710151515610a5f57600080fd5b60018054905087101515610a7257600080fd5b600187815481101515610a8157fe5b90600052602060002090600502019050806000018160010160009054906101000a900460ff168260010160019054906101000a900463ffffffff168360010160059054906101000a900463ffffffff1684600201848054600181600116156101000203166002900480601f016020809104026020016040519081016040528092919081815260200182805460018160011615610100020316600290048015610b6a5780601f10610b3f57610100808354040283529160200191610b6a565b820191906000526020600020905b815481529060010190602001808311610b4d57829003601f168201915b505050505094508360ff1693508263ffffffff1692508163ffffffff169150808054600181600116156101000203166002900480601f016020809104026020016040519081016040528092919081815260200182805460018160011615610100020316600290048015610c1e5780601f10610bf357610100808354040283529160200191610c1e565b820191906000526020600020905b815481529060010190602001808311610c0157829003601f168201915b50505050509050955095509550955095505091939590929450565b6000600180549050905090565b606080600080600760008673ffffffffffffffffffffffffffffffffffffffff1673ffffffffffffffffffffffffffffffffffffffff16815260200190815260200160002054604051908082528060200260200182016040528015610cba5781602001602082028038833980820191505090505b50925060009150600090505b600580549050811015610de2578473ffffffffffffffffffffffffffffffffffffffff166006600083815260200190815260200160002060009054906101000a900473ffffffffffffffffffffffffffffffffffffffff1673ffffffffffffffffffffffffffffffffffffffff161415610dd55760001515600582815481101515610d4d57fe5b906000526020600020906003020160020160009054906101000a900460ff1615151415610dd4576000600582815481101515610d8557fe5b906000526020600020906003020160000160019054906101000a900460ff1660ff161115610dd357808383815181101515610dbc57fe5b906020019060200201818152505081806001019250505b5b5b8080600101915050610cc6565b829350505050919050565b6000600c82815481101515610dfe57fe5b90600052602060002090600302019050348160020160009054906101000a90046fffffffffffffffffffffffffffffffff166fffffffffffffffffffffffffffffffff16141515610e4e57600080fd5b600015158160020160109054906101000a900460ff161515141515610e7257600080fd5b8060000160009054906101000a900473ffffffffffffffffffffffffffffffffffffffff1673ffffffffffffffffffffffffffffffffffffffff166108fc349081150290604051600060405180830381858888f19350505050158015610edc573d6000803e3d6000fd5b50610f0f8160000160009054906101000a900473ffffffffffffffffffffffffffffffffffffffff168260010154611f46565b60018160020160106101000a81548160ff021916908315150217905550610f426001600d5461203290919063ffffffff16565b600d81905550600060058260010154815481101515610f5d57fe5b906000526020600020906003020160020160006101000a81548160ff0219169083151502179055505050565b60066020528060005260406000206000915054906101000a900473ffffffffffffffffffffffffffffffffffffffff1681565b826002600082815260200190815260200160002060009054906101000a900473ffffffffffffffffffffffffffffffffffffffff1673ffffffffffffffffffffffffffffffffffffffff163373ffffffffffffffffffffffffffffffffffffffff1614151561102a57600080fd5b600a848160018281548110151561103d57fe5b906000526020600020906005020160010160009054906101000a900460ff1660ff161015151561106c57600080fd5b848460018881548110151561107d57fe5b9060005260206000209060050201600201919061109b929190612798565b50505050505050565b6000809054906101000a900473ffffffffffffffffffffffffffffffffffffffff1681565b606080600080600360008673ffffffffffffffffffffffffffffffffffffffff1673ffffffffffffffffffffffffffffffffffffffff1681526020019081526020016000205460405190808252806020026020018201604052801561113d5781602001602082028038833980820191505090505b50925060009150600090505b60018054905081101561122b578473ffffffffffffffffffffffffffffffffffffffff166002600083815260200190815260200160002060009054906101000a900473ffffffffffffffffffffffffffffffffffffffff1673ffffffffffffffffffffffffffffffffffffffff16141561121e57600015156001828154811015156111d057fe5b906000526020600020906005020160040160009054906101000a900460ff161515141561121d5780838381518110151561120657fe5b906020019060200201818152505081806001019250505b5b8080600101915050611149565b829350505050919050565b600080600080611244612818565b6000861015151561125457600080fd5b600c805490508610151561126757600080fd5b600c8681548110151561127657fe5b9060005260206000209060030201608060405190810160405290816000820160009054906101000a900473ffffffffffffffffffffffffffffffffffffffff1673ffffffffffffffffffffffffffffffffffffffff1673ffffffffffffffffffffffffffffffffffffffff168152602001600182015481526020016002820160009054906101000a90046fffffffffffffffffffffffffffffffff166fffffffffffffffffffffffffffffffff166fffffffffffffffffffffffffffffffff1681526020016002820160109054906101000a900460ff16151515158152505090508060000151816020015182604001518360600151816fffffffffffffffffffffffffffffffff1691509450945094509450509193509193565b60006005828154811015156113a157fe5b906000526020600020906003020160000160019054906101000a900460ff1660ff161415156113cf57600080fd5b600580828154811015156113df57fe5b906000526020600020906003020160000160016101000a81548160ff021916908360ff16021790555050565b826002600082815260200190815260200160002060009054906101000a900473ffffffffffffffffffffffffffffffffffffffff1673ffffffffffffffffffffffffffffffffffffffff163373ffffffffffffffffffffffffffffffffffffffff1614151561147957600080fd5b6002848160018281548110151561148c57fe5b906000526020600020906005020160010160009054906101000a900460ff1660ff16101515156114bb57600080fd5b84846001888154811015156114cc57fe5b906000526020600020906005020160000191906114ea929190612798565b50505050505050565b60006114fd61286b565b6000611527600460009054906101000a900463ffffffff168560ff1661204b90919063ffffffff16565b925060e0604051908101604052808681526020018560ff168152602001600063ffffffff1681526020018463ffffffff1681526020016040805190810160405280600a81526020017f416476656e7475726572000000000000000000000000000000000000000000008152508152602001428152602001600015158152509150600180839080600181540180825580915050906001820390600052602060002090600502016000909192909190915060008201518160000190805190602001906115f29291906128ba565b5060208201518160010160006101000a81548160ff021916908360ff16021790555060408201518160010160016101000a81548163ffffffff021916908363ffffffff16021790555060608201518160010160056101000a81548163ffffffff021916908363ffffffff160217905550608082015181600201908051906020019061167e9291906128ba565b5060a0820151816003015560c08201518160040160006101000a81548160ff0219169083151502179055505050039050336002600083815260200190815260200160002060006101000a81548173ffffffffffffffffffffffffffffffffffffffff021916908373ffffffffffffffffffffffffffffffffffffffff1602179055506117536001600360003373ffffffffffffffffffffffffffffffffffffffff1673ffffffffffffffffffffffffffffffffffffffff168152602001908152602001600020546120a490919063ffffffff16565b600360003373ffffffffffffffffffffffffffffffffffffffff1673ffffffffffffffffffffffffffffffffffffffff16815260200190815260200160002081905550846040518082805190602001908083835b6020831015156117cc57805182526020820191506020810190506020830392506117a7565b6001836020036101000a0380198251168184511680821785525050505050509050019150506040518091039020817fdd7528f86d7595165cc235f18bdd47a562f826a3fda4d76bc88df64136bca3b160405160405180910390a35050505050565b600080836002600082815260200190815260200160002060009054906101000a900473ffffffffffffffffffffffffffffffffffffffff1673ffffffffffffffffffffffffffffffffffffffff163373ffffffffffffffffffffffffffffffffffffffff1614151561189e57600080fd5b6001858154811015156118ad57fe5b906000526020600020906005020192506005848154811015156118cc57fe5b906000526020600020906003020191506118e5836120c2565b15156118f057600080fd5b60018260000160019054906101000a900460ff1660ff161015151561191457600080fd5b81600001600181819054906101000a900460ff16809291906001900391906101000a81548160ff021916908360ff1602179055505060008260000160019054906101000a900460ff1660ff1614156119fd576119b96001600760003373ffffffffffffffffffffffffffffffffffffffff1673ffffffffffffffffffffffffffffffffffffffff1681526020019081526020016000205461203290919063ffffffff16565b600760003373ffffffffffffffffffffffffffffffffffffffff1673ffffffffffffffffffffffffffffffffffffffff168152602001908152602001600020819055505b6008548360010160009054906101000a900460ff1660ff161015611a9f57611a2583836120d3565b5b8260010160059054906101000a900463ffffffff1663ffffffff168360010160019054906101000a900463ffffffff1663ffffffff16101515611a9e57611a6c8361222b565b847f2e7a68ae79b91a55a87ce42081bdb1b4333d3c3feff3c211ac1f9f32b62541d660405160405180910390a2611a26565b5b611aab60006064612315565b600b81905550600a54600b54101515611ad957611ad88260000160009054906101000a900460ff1661243e565b5b611ae2836124d7565b5050505050565b60026020528060005260406000206000915054906101000a900473ffffffffffffffffffffffffffffffffffffffff1681565b611b24612818565b6006600084815260200190815260200160002060009054906101000a900473ffffffffffffffffffffffffffffffffffffffff1673ffffffffffffffffffffffffffffffffffffffff163373ffffffffffffffffffffffffffffffffffffffff16141515611b9157600080fd5b60001515600584815481101515611ba457fe5b906000526020600020906003020160020160009054906101000a900460ff161515141515611bd157600080fd5b6080604051908101604052803373ffffffffffffffffffffffffffffffffffffffff168152602001848152602001836fffffffffffffffffffffffffffffffff168152602001600015158152509050600c819080600181540180825580915050906001820390600052602060002090600302016000909192909190915060008201518160000160006101000a81548173ffffffffffffffffffffffffffffffffffffffff021916908373ffffffffffffffffffffffffffffffffffffffff1602179055506020820151816001015560408201518160020160006101000a8154816fffffffffffffffffffffffffffffffff02191690836fffffffffffffffffffffffffffffffff16021790555060608201518160020160106101000a81548160ff0219169083151502179055505050506001600584815481101515611d1257fe5b906000526020600020906003020160020160006101000a81548160ff021916908315150217905550611d8d6001600760003373ffffffffffffffffffffffffffffffffffffffff1673ffffffffffffffffffffffffffffffffffffffff1681526020019081526020016000205461203290919063ffffffff16565b600760003373ffffffffffffffffffffffffffffffffffffffff1673ffffffffffffffffffffffffffffffffffffffff16815260200190815260200160002081905550611de66001600d546120a490919063ffffffff16565b600d81905550505050565b6000809054906101000a900473ffffffffffffffffffffffffffffffffffffffff1673ffffffffffffffffffffffffffffffffffffffff163373ffffffffffffffffffffffffffffffffffffffff16141515611e4c57600080fd5b600073ffffffffffffffffffffffffffffffffffffffff168173ffffffffffffffffffffffffffffffffffffffff1614151515611e8857600080fd5b8073ffffffffffffffffffffffffffffffffffffffff166000809054906101000a900473ffffffffffffffffffffffffffffffffffffffff1673ffffffffffffffffffffffffffffffffffffffff167f8be0079c531659141344cd1fd0a4f28419497f9722a3daafe3b4186f6b6457e060405160405180910390a3806000806101000a81548173ffffffffffffffffffffffffffffffffffffffff021916908373ffffffffffffffffffffffffffffffffffffffff16021790555050565b611f996001600760003373ffffffffffffffffffffffffffffffffffffffff1673ffffffffffffffffffffffffffffffffffffffff168152602001908152602001600020546120a490919063ffffffff16565b600760003373ffffffffffffffffffffffffffffffffffffffff1673ffffffffffffffffffffffffffffffffffffffff16815260200190815260200160002081905550336006600083815260200190815260200160002060006101000a81548173ffffffffffffffffffffffffffffffffffffffff021916908373ffffffffffffffffffffffffffffffffffffffff1602179055505050565b600082821115151561204057fe5b818303905092915050565b60008060008463ffffffff161415612066576000915061209d565b82840290508263ffffffff168463ffffffff168263ffffffff1681151561208957fe5b0463ffffffff1614151561209957fe5b8091505b5092915050565b60008082840190508381101515156120b857fe5b8091505092915050565b600042826003015411159050919050565b60018160000160009054906101000a900460ff1660ff1614156121455761211e604b8360010160019054906101000a900463ffffffff1663ffffffff166124e790919063ffffffff16565b8260010160016101000a81548163ffffffff021916908363ffffffff160217905550612227565b60028160000160009054906101000a900460ff1660ff1614156121b75761219060968360010160019054906101000a900463ffffffff1663ffffffff166124e790919063ffffffff16565b8260010160016101000a81548163ffffffff021916908363ffffffff160217905550612226565b60038160000160009054906101000a900460ff1660ff1614156122255761220260e18360010160019054906101000a900463ffffffff1663ffffffff166124e790919063ffffffff16565b8260010160016101000a81548163ffffffff021916908363ffffffff1602179055505b5b5b5050565b80600101600081819054906101000a900460ff168092919060010191906101000a81548160ff021916908360ff160217905550506122a08160010160059054906101000a900463ffffffff168260010160019054906101000a900463ffffffff1663ffffffff1661251190919063ffffffff16565b8160010160016101000a81548163ffffffff021916908363ffffffff1602179055506122f060328260010160059054906101000a900463ffffffff1663ffffffff166124e790919063ffffffff16565b8160010160056101000a81548163ffffffff021916908363ffffffff16021790555050565b6000806000808242600143034041444360405160200180876000191660001916815260200186815260200185600019166000191681526020018473ffffffffffffffffffffffffffffffffffffffff1673ffffffffffffffffffffffffffffffffffffffff166c0100000000000000000000000002815260140183815260200182815260200196505050505050506040516020818303038152906040526040518082805190602001908083835b6020831015156123e757805182526020820191506020810190506020830392506123c2565b6001836020036101000a03801982511681845116808217855250505050505090500191505060405180910390209250600186860301915081836001900481151561242d57fe5b068601905080935050505092915050565b60006032600b541015801561245657506050600b5411155b156124a157600a820290506124a06040805190810160405280601381526020017f4e6577204b6e6967687420416371756972656400000000000000000000000000815250826114f3565b5b6046600b54101580156124b757506064600b5411155b156124d3576124d26124cd60018460ff16612315565b612536565b5b5050565b6009544201816003018190555050565b60008082840190508363ffffffff168163ffffffff161015151561250757fe5b8091505092915050565b60008263ffffffff168263ffffffff161115151561252b57fe5b818303905092915050565b61253e61293a565b60006080604051908101604052808460ff168152602001600560ff168152602001606060405190810160405280602481526020017f526571756972656420746f20616363657373207468652064756e67656f6e206781526020017f6174652e00000000000000000000000000000000000000000000000000000000815250815260200160001515815250915060016005839080600181540180825580915050906001820390600052602060002090600302016000909192909190915060008201518160000160006101000a81548160ff021916908360ff16021790555060208201518160000160016101000a81548160ff021916908360ff16021790555060408201518160010190805190602001906126589291906128ba565b5060608201518160020160006101000a81548160ff0219169083151502179055505050039050336006600083815260200190815260200160002060006101000a81548173ffffffffffffffffffffffffffffffffffffffff021916908373ffffffffffffffffffffffffffffffffffffffff1602179055506127236001600760003373ffffffffffffffffffffffffffffffffffffffff1673ffffffffffffffffffffffffffffffffffffffff168152602001908152602001600020546120a490919063ffffffff16565b600760003373ffffffffffffffffffffffffffffffffffffffff1673ffffffffffffffffffffffffffffffffffffffff16815260200190815260200160002081905550807f44ff5a1d96b658d6e6d1368850d7b60d71011fd0d12f5ff7a448ee083f7a648e60405160405180910390a2505050565b828054600181600116156101000203166002900490600052602060002090601f016020900481019282601f106127d957803560ff1916838001178555612807565b82800160010185558215612807579182015b828111156128065782358255916020019190600101906127eb565b5b509050612814919061296b565b5090565b608060405190810160405280600073ffffffffffffffffffffffffffffffffffffffff1681526020016000815260200160006fffffffffffffffffffffffffffffffff1681526020016000151581525090565b60e06040519081016040528060608152602001600060ff168152602001600063ffffffff168152602001600063ffffffff16815260200160608152602001600081526020016000151581525090565b828054600181600116156101000203166002900490600052602060002090601f016020900481019282601f106128fb57805160ff1916838001178555612929565b82800160010185558215612929579182015b8281111561292857825182559160200191906001019061290d565b5b509050612936919061296b565b5090565b608060405190810160405280600060ff168152602001600060ff168152602001606081526020016000151581525090565b61298d91905b80821115612989576000816000905550600101612971565b5090565b905600a165627a7a723058202bfa94cdc912c724b9dfd95f0f82ffb674d0281c2c12768cb7bd60cd9d897e520029",
  "source": "pragma solidity ^0.4.24;\r\n\r\nimport \"./KnightAdventure.sol\";\r\n\r\ncontract TicketMarket is KnightAdventure {\r\n\r\n    struct MarketTicket {\r\n        address Seller;\r\n        uint256 TicketId;\r\n        uint128 Price;\r\n        bool isSold;\r\n    }\r\n\r\n    MarketTicket[] marketTickets;\r\n    uint totalTicketsInMarket = 0;\r\n    \r\n    function sellTicket(uint _ticketId, uint128 _price) public {\r\n        require(msg.sender == ticketIndexToOwner[_ticketId]);\r\n        require(tickets[_ticketId].isInMarket == false);\r\n        MarketTicket memory market = MarketTicket({\r\n            Seller: msg.sender,\r\n            TicketId: _ticketId,\r\n            Price: _price,\r\n            isSold: false\r\n        });\r\n        marketTickets.push(market);\r\n        tickets[_ticketId].isInMarket = true;\r\n        //reduce owner ticket count by 1 so when function getTicketsByOwner call, it will return the new int array of index\r\n        ownerTicketCount[msg.sender] = ownerTicketCount[msg.sender].sub(1);\r\n        totalTicketsInMarket = totalTicketsInMarket.add(1);\r\n    }\r\n    \r\n    function buyTicket(uint _marketId) public payable {\r\n        MarketTicket storage marketTicket = marketTickets[_marketId];\r\n        require(marketTicket.Price == msg.value);\r\n        require(marketTicket.isSold == false);\r\n        marketTicket.Seller.transfer(msg.value);\r\n        _transferTicketToBuyer(marketTicket.Seller, marketTicket.TicketId);\r\n        //mark sold ticket\r\n        marketTicket.isSold = true;\r\n        //subtract totalTicketsInMarket by 1\r\n        totalTicketsInMarket = totalTicketsInMarket.sub(1);\r\n        //set ticket isInMarket to false so it can be sell again in the market\r\n        tickets[marketTicket.TicketId].isInMarket = false;\r\n    }\r\n    \r\n    function _transferTicketToBuyer(address _to, uint _ticketId) private {\r\n        ownerTicketCount[msg.sender] = ownerTicketCount[msg.sender].add(1);\r\n        ticketIndexToOwner[_ticketId] = msg.sender;\r\n    }\r\n    \r\n    function getMarketTickets() public view returns(uint[]) {\r\n        uint[] memory result = new uint[](totalTicketsInMarket);\r\n        uint counter;\r\n        for (uint i = 0; i < marketTickets.length; i++) {\r\n            if (marketTickets[i].isSold == false) {\r\n                result[counter] = i;\r\n                counter++;\r\n            }\r\n        }\r\n        return result;\r\n    }\r\n    \r\n    function getMarketTicketDetails(uint _marketId) public view returns(address, uint, uint, bool) {\r\n        require(_marketId >= 0);\r\n        require(_marketId < marketTickets.length);\r\n        MarketTicket memory marketTicket = marketTickets[_marketId];\r\n        return (marketTicket.Seller, marketTicket.TicketId, marketTicket.Price, marketTicket.isSold);\r\n    }\r\n}",
  "sourcePath": "C:\\Users\\arj\\Desktop\\Blockchain Project\\Dapp\\KryptoKnight-v2\\KryptoKnight\\contracts\\TicketMarket.sol",
  "compiler": {
    "name": "solc",
    "version": "0.4.24+commit.e67f0147.Emscripten.clang"
  },
  "schemaVersion": "2.0.1",
  "updatedAt": "2018-09-28T20:45:57.413Z"
}